:020000041000EA
:1000000000B5324B212058609868022188439860DF
:10001000D860186158612E4B002199600221596106
:100020000121F02299502B49196001219960352056
:1000300000F044F80222904214D00621196600F024
:1000400034F8196E01211966002018661A6600F04E
:100050002CF8196E196E196E052000F02FF8012189
:100060000842F9D1002199601B49196000215960AB
:100070001A491B48016001219960EB211966A021F2
:10008000196600F012F800219960164914480160C1
:100090000121996001BC002800D000471248134993
:1000A000086003C880F30888084703B5996A0420EC
:1000B0000142FBD001200142F8D103BD02B5186610
:1000C0001866FFF7F2FF186E186E02BD00000240BE
:1000D000000000180000070000035F00212200005C
:1000E000F4000018222000A00001001008ED00E03C
:1000F00000000000000000000000000074B24E7A12
:1001000000200420F7010010C3010010C5010010F9
:10011000C1010010C1010010C1010010C101001097
:10012000C1010010C1010010C1010010C701001081
:10013000C1010010C1010010C9010010CB01001065
:10014000CD010010CD010010CD010010CD01001037
:10015000CD010010CD010010CD010010CD01001027
:10016000CD010010CD010010CD010010CD01001017
:10017000CD010010CD010010CD010010CD01001007
:10018000CD010010CD010010CD010010CD010010F7
:10019000CD010010CD010010CD010010CD010010E7
:1001A000CD010010CD010010CD010010CD010010D7
:1001B000CD010010CD010010CD010010CD010010C7
:1001C00000BE00BE00BE00BE00BE00BEEFF3058054
:1001D000103800BEF2EB8871E0B9001004BA0010CC
:1001E0003402001090A31AE700201F49086006C8D7
:1001F00081F3088810471D48006800282FD10DA4FE
:100200000ECC002902D000F012F8F9E71849194A7B
:10021000002000E001C19142FCD1174988471749ED
:1002200088471749884700BEFDE701C901C29A42C5
:10023000FBD3704704BA0010C000002078230020D0
:10024000BCDC00100000042000000420BCDC001016
:10025000001004200010042000000000704709482E
:1002600004F0D2F80047000008ED00E0000000D0E4
:100270007823002070310020B130001055030010A9
:10028000733000105756000006005250ABB3605355
:10029000C4A8001006005250861C0302D4A8001007
:1002A000060052505422A29DE0A8001005005250B2
:1002B000DE65F468BCDC0010F8B5C0460448054BA8
:1002C00010B5834203D0044B002B00D0984710BDDB
:1002D000782300207823002000000000064807490A
:1002E000091A8B10C90FC91810B5491003D0044B57
:1002F000002B00D0984710BD7823002078230020E1
:100300000000000010B5074C2378002B09D1FFF73F
:10031000D5FF054B002B02D0044800E000BF0123AD
:10032000237010BD8024002000000000789D001084
:10033000054B10B5002B03D00449054800E000BF71
:10034000FFF7CCFF10BDC046000000008424002051
:10035000789D001010B504F02FFF034802F055F906
:1003600000F0A4F8002010BD8813000000B585B08F
:1003700003AA6B23138004480023009302336821EF
:1003800007F0E8FB05B000BD001B0020F0B587B00A
:1003900005000E0017000F226A443B231370314CF6
:1003A0003A3B00936821200007F0D4FB2E4B1860E5
:1003B00000230093063304AA6821200007F0D6FB2F
:1003C0002A4B1860002308E05A0004A98C5C240220
:1003D000501C095C2143A9520133022BF4DD0F228A
:1003E0006A44432313701F4C423B00936821200052
:1003F00007F0B0FB1C4B186000230093063304AADF
:100400006821200007F0B2FB184B1860002308E0B9
:10041000580004AA155C2D02411C545C2C43345234
:100420000133022BF4DD0F226A44412313700D4C7B
:10043000403B00936821200007F08CFB0A4B1860BA
:1004400000230093023304AA6821200007F08EFBEA
:10045000064B18606B461A7C12025B7C13433B8090
:1004600007B0F0BD001B002060310020202F0020CD
:1004700010B504001F2100F067FF002200212000BA
:1004800000F07AFF0021200000F090FF10BD70B551
:100490000600080004F0D8FA04000D00300004F053
:1004A000D3FA22002B0004F023FB70BDF0B5DE462A
:1004B00057464E464546E0B5464CA54407F062FB1C
:1004C0001A20FFF7D5FF444E444D454C0123984672
:1004D0000093331C2A1C211C9FA800F06AFB434692
:1004E0000093331C2A1C211C8EA800F062FB0027FD
:1004F0000097331C2A1C211C7DA800F05AFB009792
:10050000331C2A1C211C6CA800F053FB43460093AB
:10051000331C2A1C211C5BA800F04BFB0097331CEA
:100520002A1C211C4AA800F044FB43460093331CBC
:100530002A1C211C39A800F03CFB0097331C2A1C04
:10054000211C28A800F035FB132125A800F0BAFED5
:10055000072122A800F0B6FE14211FA800F0B2FE69
:1005600000211CA800F0AEFE25A800F0B1FE22A8D4
:1005700000F0AEFE1FA800F0ABFE1CA800F0A8FE25
:10058000184804F0DDFD1848184907F0B7FA0321B0
:10059000042000F0D9FE0321052000F0D5FE002242
:1005A0000121042000F0E8FE00220121052000F0D6
:1005B000E3FEFFF7DBFE0023099308930793FA207D
:1005C000800002F022F80A4B9D6A27E0094804F0F7
:1005D000B7FD7AE03CFDFFFFA69BC43AA69B443BD7
:1005E000CDCC4C3F789D0010001B0020A086010060
:1005F00000400540AC9D00100A98099F04F0B8FB2C
:1006000004000D00DE4E381C04F0B2FB0090019196
:1006100022002B00300004F0C3FD059D1E2204AB18
:100620009C4662440CA90EA8FFF7B0FE0EAB002258
:100630009C5E02229E5E0427DF5F04AB20229B5E4D
:100640009A4604AB22229B5E994608F015FC059061
:10065000401B04F05FFBCB4904F0FDFA8346200009
:1006600060433500754340193B007B439846404446
:1006700004F0EAF904F034FA04F02AFA002104F054
:100680002DFB0028A2D139003000FFF700FFBE4A41
:10069000BE4B04F06CF904F01BFA08906442280089
:1006A000404404F0D1F904F01BFA06000F002000CA
:1006B00004F0CAF932003B0004F01AFAB24AB34B14
:1006C00004F055F904F004FA07900A9804F050FB7E
:1006D00002900391504604F0B7F90022AC4B04F0AD
:1006E0002CF906000F00584604F042FB04000D00F0
:1006F00002000B003000390004F039F902000B0051
:100700000298039904F014F9A24AA34B04F02FF9BC
:1007100006000F00089804F02BFBA04AA04B04F041
:1007200026F902000B003000390004F001F904F052
:10073000CFF90A90099804F01BFB06000F00484609
:1007400004F082F90022924B04F0F7F802000B004B
:100750002000290004F00BF902000B0030003900E2
:1007600004F0E6F88B4A8C4B04F001F904000D000C
:10077000079804F0FDFA894A894B04F0F8F8020062
:100780000B002000290004F0D3F804F0A1F909902F
:100790000A98099F04F0ECFA04000D00814E381C01
:1007A00004F0E6FA0090019122002B00300004F0E2
:1007B000F7FC0A9C640064087B49201C04F09EFA44
:1007C000002806D17849201C04F090FA002800D1B6
:1007D00012E7099C640064087349201C04F08EFA37
:1007E000002806D17049201C04F080FA002800D1AE
:1007F00002E70A9A0024211C9FA800F0ADFC1B9080
:10080000099A211C5BA800F0A7FC17901B98179968
:1008100004F01EFAFC21890504F031FA13900A9ABB
:10082000211C8EA800F098FC1A90099A211C4AA855
:1008300000F092FC16901A98169904F009FAFC211F
:10084000890504F01CFA12900A9A211C7DA800F078
:1008500083FC1990099A211C39A800F07DFC1590A1
:100860001998159904F0F4F9FC21890504F007FAA8
:1008700011900A9A211C6CA800F06EFC1890099A3D
:10088000211C28A800F068FC14901898149904F012
:10089000DFF9FC21890504F0F2F91090434B0422A2
:1008A0001A60434B1B68DB05FBD5414B586880B28F
:1008B000FA235B00984206D9FA231B01984204D31D
:1008C000FA20000101E0FA204000F538FF3823212A
:1008D00003F0C6FD0004030C800BC0184000C823C1
:1008E0009B009C46604404F01BFA041C1398211CD6
:1008F00004F0AEF904F036FA85B21298211C04F027
:10090000A7F904F02FFA87B21198211C04F0A0F97E
:1009100004F028FA86B21098211C04F099F904F02A
:1009200021FA84B2FA23DB009D4200D90025FA2384
:10093000DB009F4200D90027FA23DB009E4200D94A
:100940000026FA23DB009C4200D90024FA23DB00B6
:100950009D4210D2290025A800F0EEFC390022A803
:1009600000F0EAFC31001FA800F0E6FC21001CA802
:1009700000F0E2FC51E60F48290004F011FC4CE6BF
:10098000F89D00100000C842F8C1631ADCA54C4075
:10099000006060405C8FC2F5285CEF3F7B14AE477F
:1009A000E17A943FF09D0010FFFF7F7F00E004405C
:1009B00000C00440209E001070B50C00150004E03B
:1009C00001CC8021890004F05DFAAC42F8D370BDFF
:1009D00010B504000368002B09D0426A0432416953
:1009E000FFF7EAFF20686168890004F04BFA2000F5
:1009F00010BD10B588B0040083680093C3680193EC
:100A0000036902934369039383690493C36905935C
:100A1000036A0693436A0793FFF7DAFF200008B0E2
:100A200010BD10B5C268CB68D31A9B10541EA241EA
:100A30009B1ADB0102684068121A921098188B68A2
:100A40000A689B1A9B10C01810BD10B50400C0683E
:100A50008021890004F016FA63691A1D62615B68DF
:100A6000E360802292009A182261A36010BD10B545
:100A700083680269043A934202D00433836010BD54
:100A8000FFF7E3FFFBE710B50023802292059142B8
:100A90005B41002B03D1880004F0ECF910BD8023EA
:100AA000DB05994201D307F097F807F085F870B598
:100AB00014000D1A884204D02A000100200008F01A
:100AC000C9FC601970BD10B50023802292059142C7
:100AD0005B41002B03D1880004F0CCF910BD8023CA
:100AE000DB05994201D307F077F807F065F870B598
:100AF00006000C00150005E0002280213000FFF701
:100B0000E2FF01C4AC42F7D370BDF0B585B004007C
:100B10000F00CB095D1C0822029203330393082BBC
:100B200028D802AB19686160002201A8FFF7ABFF6B
:100B3000206063685B1B5B089B00C618AD007519DD
:100B40002A0031002000FFF7D2FF66613268E260C0
:100B50008021890053182361043D65622B68E3619D
:100B600059182162A2607F223A4092009B18A3612B
:100B700005B0F0BD03ABD5E710B50400002303605A
:100B800043608360C360036143618361C361036247
:100B900043620021FFF7B9FF200010BD10B504002B
:100BA0002822002104F05AF92000FFF7E5FF200079
:100BB00010BD10B5040002A8007821606260A36037
:100BC00004F0A8F8E060002323616361200018307E
:100BD000FFF7E4FF40231422E254200010BD10B5BB
:100BE000040011000023036043608360C36003615D
:100BF00043618361C36103624362FFF786FF2000A4
:100C000010BD70B514000D1A814205D0531B2A0087
:100C10000100180008F01EFC601B70BDF0B5D64640
:100C20004F464646C0B584B0050001919246416AE0
:100C300040690E1AB4100134019A14196B686700E8
:100C4000BB421AD92F68BC461B1B5B089B0054464D
:100C5000002C01D0920000E000229B1863441C008D
:100C6000984204D904311A00FFF721FF30E0043123
:100C7000321D9A18FFF7C5FF2AE0291D9A4213D8A2
:100C80000A689B18023398460022190003A8FFF750
:100C9000FAFE814643461C1B6408A4005346002B01
:100CA00004D0019B9B0002E001A9E9E70023E418BE
:100CB0004C44696A043168692200FFF7F8FE28682D
:100CC0006968890004F0DEF84B462B6043466B6090
:100CD0006C612368EB6080229200944663442B6130
:100CE000A4196C622368EB6163442B6204B0E0BC1E
:100CF000BA46B146A846F0BD70B54C1C4268436A7E
:100D000005685B1B9B10D31A9C4200D870BD002263
:100D1000FFF784FFFAE7000070B504000D001830FB
:100D200021000831FFF77DFE0F4B984218D00121BA
:100D30002000FFF7E1FF666A002280212000FFF714
:100D4000C2FE7060A3692A681A60636A1A1D626233
:100D50005B68E361802292009A182262A36170BDF1
:100D6000024806F061FFC046FFFFFF1F349E0010DF
:100D700010B58269036A043B9A4205D00B68136080
:100D800083690433836110BDFFF7C6FFFBE770B5CD
:100D900014000D1A884204D02A000100200008F037
:100DA00059FB601970BD10B502684368D31A9B10D7
:100DB0005B1805D47F2B03DC89005218026015E014
:100DC000002B14DDD9177F220A40D218D211C16836
:100DD00094000919C160096841608024A4000C19BD
:100DE0008460D2019B1A9B00C918016010BDDA43D0
:100DF000D209D243EBE7F0B583B0060008001D002E
:100E0000521A921000920FE001AB1F68BC00041947
:100E10002A682100FFF7BBFF39002800FFF7C3FF56
:100E20000099C91B00912000009B002B08DDAA68D7
:100E30002968521A921001929A42E5DB6B46E4E768
:100E40002B6833606B687360AB68B360EB68F3600A
:100E5000300003B0F0BDF0B5C64600B598B080468E
:100E60000D0017001C00CA68FB689A4242D009684E
:100E7000AA682368049363680593A3680693E368EC
:100E800007936E4604AB3000FFF7B5FF230007CE93
:100E900007C332681A60EE68043615E002CE236894
:100EA0000C9363680D93A3680E93E3680F9308ADEA
:100EB00080239B00CA180CAB2800FFF79CFF23007F
:100EC00007CD07C32A681A60FB68B342E6D1796888
:100ED0003A682368109363681193A3681293E368D8
:100EE000139310AB4046FFF786FF404618B080BC16
:100EF000B846F0BD09683A6823681493636815938F
:100F0000A3681693E368179314ABFFF774FFECE73D
:100F100010B58CB00400086800904868019088689B
:100F20000290C96803911168049151680591916814
:100F30000691D26807921A6808925A6809929A68CC
:100F40000A92DB680B9308AB04AA69462000FFF7FE
:100F500082FF20000CB010BD70B59CB004000E687C
:100F600008964D68099588680A90C9680B9104969F
:100F70000595069007911568109550681190916835
:100F80001291D26813920C950D900E910F921868E1
:100F90001890596819919A681A92DB681B931490FB
:100FA00015911692179314AB0CAA04A96846FFF783
:100FB000AFFF009B2360019B6360029BA360039BC8
:100FC000E36020001CB070BD70B594B004000E68E2
:100FD00004964D68059588680690C9680791009643
:100FE00001950290039115680C9550680D909168D9
:100FF0000E91D2680F92089509900A910B921A6887
:1010000010925A6811929A681292DB68139310AB8F
:1010100008AA69462000FFF79FFF200014B070BDAA
:1010200010B58CB00400086800904868019088688A
:101030000290C96803911168049151680591916803
:101040000691D26807921A6808925A6809929A68BB
:101050000A92DB680B9308AB04AA69462000FFF7ED
:10106000B3FF20000CB010BD10B58CB004000868B0
:1010700000904868019088680290C96803911168DF
:1010800004915168059191680691D26807921A6897
:1010900008925A6809929A680A92DB680B9308AB27
:1010A00004AA69462000FFF7BBFF20000CB010BD6A
:1010B00010B58CB0040008680090486801908868FA
:1010C0000290C96803911168049151680591916873
:1010D0000691D26807921A6808925A6809929A682B
:1010E0000A92DB680B9308AB04AA69462000FFF75D
:1010F000BBFF20000CB010BD30B595B005000C0052
:10110000080018300831FFF78CFC020003A9280002
:10111000FFF765FDA3680893E368099323690A93C1
:1011200063690B93A3690C93E3690D93236A0E9390
:10113000636A0F93AB681093EB6811932B6912935A
:101140006B691393009510AB0CAA08A904A8FFF7CC
:10115000AFFF280015B030BDF0B5D64600B592B04F
:1011600006000D1C141CC068002103F0B7FD002808
:1011700003D080231B069C466444211C281C03F0DA
:1011800064FD0D903000303031002031FFF749FC14
:101190004023F35C83420FD8340018342000FFF75B
:1011A00066FC0DA92000FFF7E3FD3100183103A80C
:1011B000FFF7A2FF002414E0300018300DA9FFF75C
:1011C000D7FDF2E70E93069A0F92079A1092089AAB
:1011D00011921968201C03F03BFD041C03A8FFF7C3
:1011E00046FC099A059B9A42ECD1201C03F0C0FDF5
:1011F000224A234B03F0BBFB03F06AFC041C706122
:10120000306803F0B5FD009001917168FE20800503
:1012100003F021FD011C201C03F031FD0D9F391C42
:1012200003F016FD03F0A4FD04000D00B3689A4618
:101230003169381C03F009FD011C504603F01FFD05
:1012400003F096FD0D4A0E4B03F077FB02000B00F6
:101250002000290003F06CFB02000B0000980199AC
:1012600003F085FB03F034FC041C376103A8FFF78F
:10127000C0FB201C12B080BCBA46F0BDFA7E6ABC2E
:101280007493683F83001B189B000B48844663449B
:1012900000290CD01020824000290AD00749186884
:1012A00042400A40802149010B431A607047080000
:1012B000F1E70349F3E7C0460C0005400000FFFFDB
:1012C000FFFF00000160002343608360704700005F
:1012D00010B504000068042100F036F823685A08AD
:1012E00007211140616001221340A3608B005B184D
:1012F0009B000F498C466344FA21C900596061681C
:101300008B005B189B0063440A49196161688B007C
:101310005B189B00634419688A43802149010B4391
:101320001A60FA22A16860689200FFF7ABFF10BD57
:1013300000000540B80B000010B50A008168406845
:10134000FFF7A0FF10BD000010B58300084A9446C7
:1013500063441A6840246240803414408022520161
:1013600013431C60C000034B9C466044416010BDA9
:1013700004C001400040014080000B4B9C4660448B
:1013800000290DD00823002A0CD004221343026840
:1013900053400C221A4080235B0103431A607047BC
:1013A0000023F0E70022F1E704C00140002909D042
:1013B0008000094B9C46604480239B0103434022EC
:1013C0001A6070478000044B9C466044C0239B0118
:1013D000034340221A60F4E704C00140034B1B683A
:1013E00002201840431E9841C0B2704700C006401A
:1013F000EFF3108072B6034B1B68002BFBD0BFF3DA
:101400005F8F70472C0100D0BFF35F8F024B00222B
:101410001A6080F3108870472C0100D0F8B50600E0
:101420000C001500FFF7E4FFE308F718F15C072252
:101430002240012393400B4205D1DBB20B433B70AA
:10144000FFF7E2FFF8BD2100280001F0E7FEF0B54C
:1014500083B00600019114001F00FFF7C9FF00E0F0
:101460000134BC420CD8E308F518F35C0721214095
:1014700001228A401A42F3D1D2B21A432A7001E003
:1014800001246442FFF7C0FF002C02DB200003B000
:10149000F0BD019B002BF9D0089801F0BFFE0000C1
:1014A000002307E0054A9A189200BFF35F8F0021DE
:1014B000116001331F2BF5D97047C046400000343E
:1014C000054A1078431CDBB21370172B02D91300A6
:1014D00010221A707047C046241A002010B582B03E
:1014E0000100054C054B00931F2318222000FFF735
:1014F000AEFF02B010BDC0465C2A0020649E001002
:10150000074B9B68103080001950BFF35F8FBFF30B
:101510005F8F044B0021196082F310887047C0462A
:1015200000ED00E0240100D010B50388DA0A1C2A7F
:1015300005D15B055B1502335B00C01810BD034B82
:10154000034A0448B12101F097FDC046809E001077
:1015500020AE0010989E001010B5091A0B1F0A4A01
:1015600088180A4A904208D8C90706D45B105B0560
:101570005B0D0748184380B210BD064B064A07486A
:10158000A32101F079FDC046FC070000FE0F00001A
:1015900000E0FFFFD89E001014AE0010989E0010CF
:1015A00010B5091A04394A08090B08D14905490D33
:1015B000064B0B430380064B1343438010BD054B82
:1015C000054A0648AB2101F057FDC04600F0FFFF79
:1015D00000F8FFFF089F0010E8AD0010989E001073
:1015E00001238340034A10681840431E9841C0B24B
:1015F0007047C04600E100E0002904D0034B1860AA
:10160000034B18607047034B1860FBE780E200E073
:1016100000E100E080E100E010B501238340180004
:10162000FFF7EAFF10BD000001238340014A136069
:101630007047C04600E200E0024B9B68103080001B
:10164000C058704700ED00E010B5FFF7F5FF002827
:1016500005D0054BC01A2F2803D8012010BD00204B
:10166000FCE70020FAE7C046281A002070B5040005
:101670000D00EFF3108672B60C4B1B68002BFBD0ED
:10168000BFF35F8F2000FFF7D7FF094B984201D0CF
:10169000A84205D1320029002000FFF731FF70BDBC
:1016A000044B054A0548862101F0E6FC240100D0E0
:1016B000CD010010189F001048AE0010989E001039
:1016C000F0B5DE4657464E464546E0B589B0814600
:1016D00001911500EFF3108A72B66D4B1B68002B59
:1016E000FBD0BFF35F8F6B4B00269E57002E41DB74
:1016F0007400A419A400684824180622A256654B59
:101700001A70664B9A684B4610339B00D358984624
:101710001F00181A2F2839D9614B984530D105AFD1
:10172000604B3B80604973009B46981980005A4B80
:10173000984640440230FFF70FFF78805B4BBB8038
:10174000FF23BB71FD71019B079333005B449B003A
:10175000434407CF07C301231C43A04652464146DA
:101760004846FFF7CDFE09B0F0BCBB46B246A946DD
:10177000A046F0BD4E4B4F4A4F48D72101F07CFCAC
:101780004E4B4C4A4C48DE2101F076FC01380C21CE
:1017900002F08EFE002912D101239F43BB463B007D
:1017A0000027DA79AA4211D90621595600290CDB03
:1017B0004A005218920038491F008B18F1E7404B3D
:1017C0003C4A3D48EA2101F057FC1F00002F2ED073
:1017D00005AB3C4A1A80813A5A800623FB56029395
:1017E000002B17DA384805AB9B469880029A9A710D
:1017F000DD71019A0792381D2100FFF7ADFEB88018
:10180000BE71254B7200921992009B185A4613CA5A
:1018100013C3A3E7381DFFF787FE0100700080198E
:1018200080001D4BC0180430FFF796FEDBE705AFC4
:101830001C4B3B801C49730002939B199B00164A6A
:1018400090461A0042440392901CFFF785FE788070
:10185000039A101D5946FFF77FFEB8801B4B5A466E
:101860004146521A524153431B0DBB71FD71019AFF
:101870000792029B9B199B00434407CF07C3114B60
:101880005A461380813B538001231C43A04665E7E1
:10189000240100D068310020281A002000ED00E06B
:1018A000CD01001000A1FFFF581A002001BDFFFF6D
:1018B000509F001030AE0010989E0010789F0010CE
:1018C000A09F00100148000001BD0000AAAA00006E
:1018D000F0B5CE46474680B583B006000D00EFF365
:1018E000108872B64F4B1B68002BFBD0BFF35F8F85
:1018F0004D4B9A6834001034A300D7584B4B9F428D
:1019000007D0AF4200D18BE00197494BFB1A2F2B38
:1019100009D9424639003000FFF7F2FD03B0C0BCE0
:10192000B946B046F0BD3000FFF75AFE81460021AF
:101930003000FFF771FEBFF35F8FEFF305810029E1
:1019400001D08C4211D10123019C9C430020A3684B
:10195000AB4212D00622A256002A0DDB53009B1880
:101960009B00334A2000D418F1E7324B324A36212B
:101970003248FF3101F080FB2000AB4249D10625FF
:101980006557002D2BDB2A4B6A00521992009B18D9
:101990009A68A260DA79E2719B795BB2A371002B3D
:1019A0000FDA2748A080224B6A00521992009B1838
:1019B000244A11789971157049463000FFF72CFEC2
:1019C000A7E7680040198000194BC0180430FFF7E2
:1019D000ABFD0100231D1800FFF7BEFDE2E7002963
:1019E00012D100280ED0FF238371174B8380154935
:1019F0000B78A3710E4A154BA41A644163431B0D67
:101A00000B70D9E7094FF2E71149201DFFF7C8FD18
:101A1000D2E7104B084A6A210848FF3101F02CFB3D
:101A2000024F76E7240100D000ED00E0CD01001068
:101A3000281A002014A0001000AE0010989E00107C
:101A400001BD00006831002001BDFFFFAAAA00000F
:101A5000621A002048A0001070B5012202432E4BEC
:101A6000D31A2F2B28D8EFF30583002B2BD0EFF3BD
:101A7000108C72B6294909680029FBD0BFF35F8F2B
:101A8000254C274905002D1B6D416943090D4CB2BA
:101A9000244989689B00C95891421BD00021032921
:101AA00032D81D4B4A00521892009B189B795BB2AA
:101AB000A3421FD00131F2E71B4B1C4AC7211C482F
:101AC000490001F0D9FA1B4B184A92211848FF31FE
:101AD00001F0D2FA134A92681749D150174B1A787D
:101AE00082711C70BFF35F8F0C4B00221A608CF365
:101AF000108870BD084B4A005518AD005D19FF26CF
:101B0000AE710F4AAA80E9E70E4B084AD121084876
:101B1000490001F0B1FAC046281A0020240100D083
:101B2000AAAA000000ED00E050A00010CCAD00100B
:101B3000989E001078A00010CD01001068310020A0
:101B400001BDFFFF84A000100022044B02E0044905
:101B500002C30132072AFAD97047C04600E400E008
:101B60008080808010B582B00100074C074B009345
:101B7000052300222000FFF76AFC002801DB1F2359
:101B8000181A02B010BDC0466D3100208CA00010A4
:101B9000024B9C466144890001607047400000345C
:101BA00010B5002B02DB0260436010BD024B034AFC
:101BB00003483F2101F060FAA8A0001088AE001091
:101BC000C4A0001070B582B0060014001D00FA22F7
:101BD000920000230698002103F01AF802000B007F
:101BE00012196B41002B09DB6846FFF7D9FF009AF9
:101BF000019B32607360300002B070BD012252421E
:101C0000004BF1E7FFFFFF7F10B582B0040000F04A
:101C10007BFD02000B006846FFF7C2FF009A019BA4
:101C200022606360200002B010BD30B585B00400B2
:101C30000D0002A8FFF7E8FF029A039B0095200021
:101C4000FFF7C0FF200005B030BD10B50400FFF75E
:101C500037FC01002000FFF79BFFFF232371BFF338
:101C60005F8F10BD10B50400FFF72AFC01002000B3
:101C7000FFF78EFFFF23237100236371BFF35F8F94
:101C800010BD0000034B9C46614489000160BFF316
:101C90005F8F70474000003410B504000120FFF74B
:101CA0001DFC01002000FFF7EDFF10BD084B5B6A33
:101CB000994209D8064A926A824207D2994201D0D3
:101CC000012002E0002000E0002070470120FCE736
:101CD0000040054010B500290AD003681B7B8B42E9
:101CE00006D38068054B9C4661440901401810BD2D
:101CF000034B044A04483C2101F0BEF9FFFFFF0FEB
:101D000098A1001070AF0010BCA10010F8B504003D
:101D10001700FFF7DFFF0668456839002000FFF76E
:101D2000D9FF026843680120AB4201D802D00020ED
:101D3000C0B2F8BDB242FBD8F9E7000010B5002BE5
:101D400002DB0260436010BD024B034A03483F219F
:101D500001F092F9A8A000103CAF0010C4A0001040
:101D600010B582B004000498059912184B41002B5D
:101D700009DB6846FFF7E2FF009A019B226063607F
:101D8000200002B010BD01225242014BF1E7C046D3
:101D9000FFFFFF7F10B5002908D0037B8B4205D3DE
:101DA00000684B005B18033BC01810BD024B034A90
:101DB0000348682101F060F9F4A1001018AF001089
:101DC00010A2001010B5437B8B4201D1012010BD41
:101DD000FFF7E0FF8378002B01D10020F7E7012017
:101DE000F5E770B50400857B002D01D1280070BD9A
:101DF0002900FFF7CFFF4378A373002B00D1E373D3
:101E00000023837043700370F0E70000F8B506000C
:101E10000C001500FFF7BEFF0700002C0DD0002DB1
:101E200011D0AC4215D029003000FFF7B3FF847009
:101E30003B78002B13D13D70F8BD0A4B0A4A0B4882
:101E40006F2101F019F90A4B074A0848702101F087
:101E500013F9084B044A0548712101F00DF943704C
:101E60003D70E9E75CA20010F4AE001010A2001073
:101E700068A2001074A2001070B506000D001400D6
:101E8000002914D0002A14D043688068984700289D
:101E900006D0220029003000FFF7B8FF280007E035
:101EA0002A0021003000FFF7B1FF200000E0100001
:101EB00070BD0800FCE7000070B504000D1E0CD0DA
:101EC000FFF768FF0023837043700370617B2A0073
:101ED0002000FFF7D1FF607370BD034B034A044835
:101EE000A52101F0C9F8C0468CA2001008AF00106F
:101EF00010A2001070B504000D1E0FD0FFF762FF96
:101F000000280BD1E17B00290ED1A37B002B03D14C
:101F1000E37B002B0DD1A573E57370BD084B094A17
:101F20000948F62101F0A8F82000FFF733FF4570BB
:101F3000EBE7064B034A0448FB2101F09DF8C0463D
:101F400090A20010E4AE001010A20010B4A2001085
:101F500010B5002907D003681B7B8B4203D3C068F0
:101F60000139401810BD034B034A0448412101F0D8
:101F700083F8C04698A10010D0AE0010BCA100109C
:101F800070B505000C00080000F09AFC094920001B
:101F900000F0DAFBFFF794FA074B9C4660448000A0
:101FA00068602C75D0231B061B786B75034BA4004F
:101FB000E55070BDCD20001040000034102F0020EF
:101FC0000A4B1A68EFF3108172B61368002BFCD02D
:101FD000BFF35F8F054B1B68BFF35F8F00221A6052
:101FE00081F3108840BF002000217047303100206D
:101FF00010B582B0040000F087FB02000B006846B9
:10200000FFF79CFE009A019B22606360200002B0F3
:1020100010BD70B584B0040016001D0002A8FFF7C3
:10202000E7FF029A039B009601952000FFF798FEB8
:10203000200004B070BD0000F0B583B0070001922D
:102040001D000AAB1C780BAB1E78002C0BD000686F
:102050002100FFF7B7FE002809D0194B194A1A488A
:10206000672101F009F80068FFF7BBFE0400002CAF
:1020700002D1200003B0F0BD21003800FFF72AFE96
:10208000019B03604560089B8360099BC3603868BF
:102090002100FFF711FFA042EBD1387D019A2B0000
:1020A00000F09AFB051E01D0002E04D00C9B002BE3
:1020B000DFD01D70DDE73868210000F047FDF5E74F
:1020C000C8A2001024AF0010BCA10010F0B5DE467D
:1020D00057464E464546E0B58FB00B900021794BF0
:1020E0008200D458894683E029002000FFF7F2FDE2
:1020F000804602684368921BBB41002B09DD4346C2
:102100001A685B680B9800F067FB0023984600266E
:102110008AE0002B01D1002AF1D10021584600F0BD
:102120000BFD0700A84215D143461A685B68089268
:10213000099343469E68DB689846002E10D029001C
:102140002000FFF705FF037899461B021F43276114
:10215000002069E05C4B5D4A5D488E2100F08CFFF9
:102160005C4B5A4A5A48922100F086FF2369002BA3
:1021700000D177E0BB4219D106980799002342426B
:102180008B4100920193089A099B0CA8FFF7E8FD88
:102190000C9A0D9B00210491013103910295414657
:1021A000019100962000FFF747FF16E04A4B474A8F
:1021B0004748A12100F060FF069A079B002B01D140
:1021C000002A52D120682900FFF794FE2900200040
:1021D000FFF7BEFE037801330370002323616268BA
:1021E000BFF35F8F13608AF310880120002861D04D
:1021F0000CA8FFF7FDFE0C9E0D9F00220023089205
:1022000009936268EFF3108A72B61368002BFCD052
:10221000BFF35F8F23689B465D7B002D00D063E793
:1022200000239846002600206368BFF35F8F0022DA
:102230001A608AF31088002ED8D04B461F022F4315
:1022400041463800B047069007916268EFF3108A64
:1022500072B61368002BFCD0BFF35F8F079B002B77
:1022600000DA83E7079B002BA6DD2369002BA9D0AA
:10227000BB4219D10CA8FFF7BBFE0C9A0D9B069828
:102280000799009001910CA8FFF76AFD0C9A0D9B2D
:10229000002104910131039102954146019100967C
:1022A0002000FFF7C9FE98E70B4B084A0848A42115
:1022B00000F0E2FE0FB0F0BCBB46B246A946A04615
:1022C000F0BDC046102F0020F0A2001054AF001047
:1022D000BCA1001008A3001014A3001010B50C4BF3
:1022E0005B68002B04D00B480A21FFF751FC10BD9E
:1022F000074C094A20682300102100F088FB0320C6
:1023000000F0F6F903212000FFF73AFEEBE7C046A4
:10231000701A0020303100200D1D001010B5064B42
:102320005B68002B01D0044810BD044B044A0548EB
:102330005E2100F0A1FEC046701A002050A30010DC
:10234000B8AE0010BCA10010F0B5DE4657464E46B0
:102350004546E0B58DB0060090461F00169B9A4694
:10236000179B994618AB1B780793272302AA94461C
:10237000634400221A7021E001003000FFF7E8FDFD
:1023800000783CE00698002B5CD0079B002B59D0CE
:102390004946D04704000D0003000B4359D00029E3
:1023A00040DB08A8FFF724FE089A099B00940195DA
:1023B00008A8FFF7D5FC089B9846099F7268EFF3C1
:1023C000108B72B6136859424B41D9B20691002B5B
:1023D000F8D1BFF35F8F273302AA94466344049376
:1023E0000023039302934B460193534600934246C6
:1023F0003B003000FFF720FE0400051EBCD17368CF
:10240000BFF35F8F002119608BF31088002D17D068
:10241000272302AA944663441B78002BB2D1000202
:102420002043B0E700236242AB4100920193424651
:102430003B0008A8FFF794FC089B9846099FBDE75E
:10244000012040420DB0F0BCBB46B246A946A046B2
:10245000F0BD0698F6E7F0B5C64600B584B00500B5
:10246000884616001F000AAB1C78FFF757FF02943E
:10247000019700962A004346FFF766FF04B080BC30
:10248000B846F0BDF0B5C64600B505000C1E42D0FA
:102490004268EFF3108772B61368002BFCD0BFF3CD
:1024A0005F8FE6B22B68984631001800FFF78AFC70
:1024B00000282AD02B69A34213D0240AE4B23100A9
:1024C0002800FFF745FD0378A34211D000206B6878
:1024D000BFF35F8F00221A6087F3108880BCB84674
:1024E000F0BD0E4B0E4A2C210E48FF3100F0C4FD0A
:1024F0003100404600F02AFB0028E8D10A4B084A88
:1025000099210848490000F0B7FD2B69A342DED1AC
:1025100000232B61DBE70020E0E7C04674A3001036
:10252000A0AE0010BCA1001098A3001010B50400CC
:10253000FFF7F4FE2100FFF7A5FF10BD407D7047B7
:1025400030B587B004000D00EFF30583002B20D1D8
:1025500006225242D31712196B418B4202D803D183
:10256000824201D90022002304A8FFF7E7FB02A85A
:10257000FFF73EFD02980399049A059B121A8B41BE
:10258000002B0BDC08D02000290000F0C9F807B0B0
:1025900030BD144800F042FE002AF4D0124A0498DC
:1025A000059900230093FFF756FF002813DAEAE7A6
:1025B0000E4B1A68EFF3108172B61368002BFCD033
:1025C000BFF35F8F094B1B68BFF35F8F00221A6058
:1025D00081F3108820BF04980599FFF767FB002856
:1025E000E6D0D0E79CA30010C11F001030310020BE
:1025F00000B583B002000B006846FFF70AFD0098A3
:102600000199FFF79DFF03B000BD10B5FA229200BB
:102610000023002102F0FCFAFFF7EAFF10BD0000E2
:1026200030B583B005000C00EFF30583002B0FD10C
:102630000B4A00230093FFF70EFF00280BDD20BF9D
:10264000FFF774FF28002100FFF730FB03B030BD17
:10265000FFF72CFBFAE728002100FFF727FBF5E73F
:10266000C11F001070B5EFF305801038EFF3108C28
:1026700072B6194B1B68002BFBD0BFF35F8F012292
:102680001300834015494B6315490B6015490978C0
:102690000C00C440224213D0104A546A124A8500EA
:1026A000AA58944205D3114AAA580E4C9943217056
:1026B00007E00A4A031D9B0099589950002200E048
:1026C0000022BFF35F8F044B002119608CF3108848
:1026D000002A00D0904770BD280100D0004005407E
:1026E0003C7005406C3100203C3100204429002022
:1026F00010B50100024A034B1800FEF78FFE10BD13
:10270000ECA3001067310020044B5B6A034A906A17
:102710001900536A9942F9D17047C04600400540FC
:10272000084B5B6A01E0074B5B6A8B42FBD301E01D
:10273000044B5B6A8B4203D1024B9B6A8342F7D303
:102740007047C0460040054070B504000E00EFF32E
:10275000108572B61B4B1B68002BFBD0BFF35F8F3D
:10276000002E1CD02000FEF767FF174B83420BD0D2
:1027700019002000FEF77AFF01212000FEF74CFF30
:102780000123A340114A1360114BA400E650BFF38C
:102790005F8F0C4B00221A6085F3108870BD0C4BC4
:1027A000A2000021D1500122A2400A490B78934394
:1027B0000B7005492000FFF78BF800212000FEF781
:1027C0002BFFE4E7280100D06526001038600540A3
:1027D000442900206C310020F0B5DE4600B584B0FD
:1027E0000400150001921E000293FFF78DFF039570
:1027F0008E4202D84ED185424CD9EFF3108B72B67F
:10280000274B1B68002BFBD0BFF35F8F254A17783F
:102810000125A540EBB23B431370234B5D63221DA2
:1028200092000199D150214AA100029888501B6A58
:102830002B4212D11C4B1B6C2B4208D00020BFF343
:102840005F8F174B00221A608BF3108823E0184B20
:10285000184A1948C52100F00FFCFFF755FF8E42BA
:1028600014D802D1039B834210D80E4B1B78BB4275
:102870000ED00D4B1D625D631F2222400123934049
:102880000E4A1360074B1F700120D8E70020D6E7DF
:102890000120D4E7012004B080BCBB46F0BDC04697
:1028A000280100D06C310020004005403C31002060
:1028B00010A400107CAF001034A4001080E200E0EF
:1028C000EFF3108C72B60B4B1B68002BFBD0BFF3E1
:1028D0005F8F01238340084A136208490A789A43AC
:1028E0000A70BFF35F8F034B00221A608CF31088CD
:1028F0007047C046280100D0004005406C310020E0
:1029000010B5002908D0037B8B4205D300684B002B
:102910005B18033BC01810BD024B034A03486821F3
:1029200000F0AAFBF4A10010D8AF001010A2001014
:10293000F8B506000C001500FFF7E2FF0700002CB9
:102940000DD0002D11D0AC4215D029003000FFF77A
:10295000D7FF84703B78002B13D13D70F8BD0A4B34
:102960000A4A0B486F2100F087FB0A4B074A0848C8
:10297000702100F081FB084B044A0548712100F0EA
:102980007BFB43703D70E9E75CA20010C4AF001010
:1029900010A2001068A2001074A2001070B506000A
:1029A0000D001400002914D0002A14D04368806858
:1029B0009847002806D0220029003000FFF7B8FF12
:1029C000280007E02A0021003000FFF7B1FF2000B7
:1029D00000E0100070BD0800FCE770B505000023A2
:1029E000437301338373037BC373012406E0210027
:1029F0002800FFF785FF0134E4B24470297BA1422F
:102A0000F5D82800FFF77CFF0023437070BD10B598
:102A1000017342608360FFF7E0FF10BDF0B5C6466A
:102A200000B505000C1E03D1200080BCB846F0BDE7
:102A3000FFF766FF4678002EF6D031002800FFF73A
:102A40005FFF477800239846437021002800FFF776
:102A500057FF43464370320021002800FFF79EFFD6
:102A6000040039002800FFF7D9FF020021002800E8
:102A7000FFF794FF0400D7E7F0B5C64600B50400A1
:102A80000D001700002927D0FFF73AFF4378002BED
:102A900028D18378002B2BD101782000FFF7BEFFCF
:102AA00006008046002F0AD0E17B002926D1A37BB7
:102AB000002B03D1E37B002B25D1A573E57343469F
:102AC000002B26D129002000FFF71AFF00234370B6
:102AD000300080BCB846F0BD114B124A1248382174
:102AE00000F0CAFA114B0F4A0F483A2100F0C4FA1D
:102AF0000F4B0C4A0C483B2100F0BEFA2000FFF7B8
:102B0000FFFE4570D3E70B4B064A0748422100F011
:102B1000B3FA31002000FFF7F3FE00238370D1E702
:102B200078A40010B0AF001080A40010B8A400106A
:102B3000E0A40010B4A2001070B504000A00457BA8
:102B40002900FFF799FF6073280070BD70B506007B
:102B50000C1E40D0437B8B4207D0FFF7D1FE05000F
:102B60008178002906D1002036E00121FFF7E4FF3B
:102B7000012031E03000FFF7C3FE0178A1420DD003
:102B80003000FFF7BDFE4178A1420AD00029F7D1FD
:102B9000124B134A13486B3100F06EFA6B780370D6
:102BA00001E06B7843700023AB706B700122210051
:102BB0003000FFF761FF0200717B814205D03000D9
:102BC000FFF7ECFE7073012006E0074B044A05484E
:102BD000712100F051FA002070BDC04684A00010A1
:102BE00098AF001080A4001004A50010F8B5DE46D0
:102BF00057464E464546E0B506000F0015000A9AB6
:102C0000934250D31A0E92461B0298460A9A00230A
:102C10004046514601F08AFC81467400A419A40084
:102C20002F4B9C4664446368834200D26060331F2C
:102C3000DBB29B46012B3CD9C0239B01234380225E
:102C400012011A60274BB200D158002907D05869E9
:102C500001F02EFC013043001B18033BFDD26D0137
:102C600023685D40E0222A4080235B0123431A60F1
:102C70005A46012A28D980239B012343802212012E
:102C80001A604B4663604A4600234046514601F0B5
:102C90004DFC144BB60098510120F0BCBB46B24627
:102CA000A946A046F8BD104B104A1148332100F048
:102CB000E3F9012FC0D1C0239B01234303221A60F3
:102CC000A368DB07FCD5CAE72168794003220A40E4
:102CD0001A60A3680125BD401D42FAD0CBE7C0466B
:102CE00000800040602A002024A50010E4AF0010FE
:102CF00038A5001030B583B00C2000F011F9FEF7B4
:102D00006DFB00280DD0002304E02E4A99002E48C8
:102D100088500133092BF8D92A4B2C4A5A6203B048
:102D200030BD2B4B00229A6700F06CF9294B012231
:102D30001A60274B5B6C012BFBD1274B03221A60D7
:102D4000234B9B6B012BFBD1013300930433234AAC
:102D50000121234800F054F805230093214A012162
:102D6000214800F04DF8214B00930022022104205D
:102D7000FFF73CFF1E4D00952B000022012105208E
:102D8000FFF734FF104C009423000022002107209D
:102D9000FFF72CFF00942300002200210820FFF7FA
:102DA00025FF0A4B00932300002200210920FFF792
:102DB0001DFF00952B00002200210620FFF716FFC3
:102DC000ADE7C046602A0020006CDC021BB70000A3
:102DD000008000403CB0004030B00040002F6859F7
:102DE00000800240008C864700C00240001BB700F4
:102DF00040597307014B8000C0587047602A00207B
:102E0000F0B5C64600B504000E0017001D00374897
:102E100001F04EFB8046364BFA18364B9A4239D8B1
:102E20000100380001F044FB0200103A98235B00D7
:102E30009A4235D86B1E062B38D8069B013B062BD1
:102E400034D83F09474537D32D04069B1B031D4348
:102E50002368002B36DB284B9C4244D080235B0147
:102E6000264A1360264A1360264A92681900914345
:102E7000FAD12660A060221DC0239B0113432122AA
:102E80001A602268002AFCDAE56008221A6080BC19
:102E9000B846F0BD1C4B1D4A1D48112100F0ECF84E
:102EA0001C4B1A4A1A48192100F0E6F81A4B174A27
:102EB00017481C2100F0E0F8184B144A144823214D
:102EC00000F0DAF822683F231340B342C3D1A3686D
:102ED0001B051B0D8342BED1E368EE22D2021340D4
:102EE000AB42B8D1D3E780239B01B9E7001BB70001
:102EF00080E84BD380F8A93200C0024000E00040D7
:102F000000F0004000C000407CA50010F4AF0010AD
:102F1000DCA500101CA6001038A6001084A6001026
:102F200080239B000343014AD36270470080054021
:102F3000024B1A68024B5A607047C046002F0020AF
:102F40000080054010B5174B8022D2051A60164B41
:102F5000164A1A6000290AD0154BE022D2041A60E2
:102F6000002809D1124B802212061A6010BD0D4BA9
:102F7000E022D2041A60F3E743011B1A9B001818E1
:102F800000010C4B186080235B04984202D3094B6C
:102F9000094A1A60FFF7CCFF054B8022D2051A6060
:102FA000E4E7C04600B0054008200140FCFF0100F6
:102FB00000A00540002F0020FFFFFF0010B5030018
:102FC00010000C4A8024E4051460002B0DD001226F
:102FD0001343094A094CD461094C5C4014625162A4
:102FE00093620021FFF7AEFF10BD034B0022DA61B0
:102FF000F7E7C04600B0054000800540D3C007B0E9
:103000002D3FF84F064BAA2212011A602F22DA60D8
:10301000044B054A1A60024B5B68002BFBDA7047D1
:10302000004002400060024000B0FA0000BEFDE730
:1030300003000A4A1268002A08D0084A1068C31818
:10304000074A9A4206D3054A13607047034A054966
:103050001160F2E701204042F7E7C046FC2A002059
:103060000000042070310020002070470120404201
:10307000704710B5FFF7DAFF30B583B00D001900C7
:10308000002A0BD0074B084C019200932B00020042
:10309000200002F085F80120FFF7C8FF034B1A005B
:1030A000F1E7C046A0A60010B0A600101C9E0010BC
:1030B00070B52B4B2B4A1A602B4B2C4A1A602C4BA9
:1030C0009A682A4B9343FAD12A4C01E008CC9847DE
:1030D000294B9C42FAD3FFF70DFE234B274A1A6077
:1030E000234B9B68DB43DB01FAD1254B40229A67D7
:1030F0005A671A67DA66234C09E0234B234A2448AF
:103100008721FFF7B9FF2000FEF79FFD0834214B10
:103110009C4209D22368002BF5D0012BEDD1200071
:10312000FEF7A0FD0834F2E71B4DA9681B4CC02236
:10313000200001F099FEAC60EFF30583002B00D076
:1031400000BEFEF7ADF9FEF7FFFCFFF7C7F8144C21
:1031500001E008CC9847134B9C42FAD370BDC0469F
:1031600000E00040BFCDFBFE00F00040FE7F3C00D1
:1031700000C000405823002068230020FFFFFF010B
:1031800000F0014050230020E0A6001018B000100D
:1031900000A700105823002000ED00E000000020F0
:1031A000682300207823002010B5002B02DB02608A
:1031B000436010BD024B034A03483F21FFF75CFF09
:1031C000A8A0001000B00010C4A0001010B582B07C
:1031D0000400FFF799FA02000B006846FFF7E4FFCE
:1031E000009A019B22606360200002B010BD0000C5
:1031F00010B582B004006846FFF7E8FF0098019917
:10320000054A002301F092F9206000236360A36067
:10321000E360002002B010BD102700000FB400B51D
:1032200083B0084801F08CFF049B002B07D005A950
:103230000191180001F094FF034801F081FF012083
:10324000FFF7F4FE44A70010309E0010704710B541
:10325000002802D00B684968984710BD0100002083
:1032600007E083001B185B00501C08601078C01832
:1032700030380A681378303BDBB2092BF1D970473C
:10328000F0B5DE4657464E464546E0B583B0934618
:103290001F000C9B9A460D9C0E9B99460F9B9B070B
:1032A00003D0B8460F00060022E00192A3468846EC
:1032B0004E46B9460700B44207D2551C4B4641461C
:1032C0002020B84701342A00F5E73D004F465C4610
:1032D000019B9B46B1464646B84637002E0007E0A4
:1032E000013C551C5346185D43463900B0472A003F
:1032F000002CF5D135003E0047460F9B9B0707D4B5
:10330000100003B0F0BCBB46B246A946A046F0BDD3
:10331000B0464E46B9462F005D46531BB342EFD22E
:10332000541C4B4641462020B8472200F5E7F0B533
:10333000CE46474680B585B0944698460C9D0D9C78
:103340000EAB1B789946109A119B129EB7071CD49E
:10335000002B0CD0F7070AD54F46002F02D10C37AF
:10336000374204D0013B02E030272F55013494420C
:1033700001D21F2CF8D9F70707D59C4205D21F2C84
:1033800003D830272F550134F5E7F70612D5770516
:1033900005D4002C03D0944221D09C421FD00F9A18
:1033A000102A32D00F9A022A37D01F2C0AD8302286
:1033B0002A5501341F2C05D84A46002A33D02D2225
:1033C0002A550134039602930194009543466246C0
:1033D000FFF756FF05B0C0BCB946B046F0BD621E4F
:1033E000012C10D00F9F102F0BD014000F9A102A11
:1033F000D8D1B206D6D51F2CD4D858222A5501349C
:10340000D3E7023CCBE71400C9E7B206EED41F2C89
:10341000ECD878222A550134C7E71F2CD2D8603265
:103420002A550134C1E7720703D52B222A550134EE
:10343000C8E73207C6D520222A550134C2E7F0B5C5
:10344000DE4657464E464546E0B593B081468A462D
:10345000089209931CAB10CB1B789B461E9D219BA9
:103460009846002C03D1102342469A43904680236D
:10347000DB0046461E4042461A4212D0002C22D0A3
:1034800000260EE03033D9B2771C0AAB99552900DB
:10349000200001F00DF8AC4216D31F2F14D83E00C7
:1034A00004002900200001F003F8CBB2092BE9D970
:1034B0004246920605D54121C918C9B20A39C9B296
:1034C000E2E76121F8E7270043460693209B059336
:1034D0001F9B049303955B46029301970AAB0093ED
:1034E000099B089A51464846FFF721FF13B0F0BCEC
:1034F000BB46B246A946A046F0BDF0B5DE465746EB
:103500004E464546E0B597B00A900B910C929A460C
:10351000209B9946219F22AA13789B46249B0993BE
:10352000259C289B98464A463A4302D11032934341
:1035300098468022D20045461540434613420AD0A1
:103540004A463A4341D000252E0053460D934D463E
:10355000099B9A461BE02E0053460D934D46099B4E
:103560009A4614E03033DAB2731C99460EAB9A5582
:10357000524623002800390000F0D8FFBC4226D86C
:1035800019D04B461F2B1CD84E4605000F00524643
:1035900023002800390000F0C9FFD3B2092BE1D97C
:1035A0004246920605D54122D218D2B20A3AD2B288
:1035B000DAE76122F8E7AA45E3D94E460D9B9A4621
:1035C00008E04E460D9B9A4604E0002602E04E4677
:1035D0000D9B9A4643460693279B0593269B04938F
:1035E000099B03935B46029301960EAB00935346EF
:1035F0000C9A0B990A98FFF79AFE17B0F0BCBB46DD
:10360000B246A946A046F0BDF0B5DE4657464E4646
:103610004546E0B591B0804689460C929A461A9C80
:103620001B9D22002B002000290001F0FAF9002840
:1036300000D0ECE001225242D44B2000290001F0DE
:10364000EBF9002800D0E2E001225242D04B2000EA
:10365000290001F0CBF9002800D0D8E00022002397
:103660002000290001F0C2F9002800D0E4E006940F
:1036700007958023DB001E9A1A400D921E9A1A426B
:1036800001D106231C930698079902000B000892AB
:10369000099303000A00024300D1D9E0080D400558
:1036A000400DBC4EB44660440A03120B1E00BA4BD8
:1036B00013431F0001F0C8F9B84AB94B01F057F99C
:1036C000B84AB94B01F034F9089009910022B74B80
:1036D0003000390001F027F9B54AB64B01F047F93F
:1036E00002000B000898099901F022F901F0C4F9D1
:1036F000834601F0A9F906000F00AF4AAF4B01F075
:1037000036F90022AE4B01F013F901F0B5F908903B
:10371000AC4AAD4B3000390001F029F906000F002A
:10372000089801F091F9A94AA94B01F020F902008B
:103730000B003000390001F0F6F806000F0002001F
:103740000B0001F014F90A900B91089BA14A9446D2
:10375000634400210022089109921B05099300236C
:10376000089332003B003000390001F0E1F80E9080
:103770000F9132003B0000208021C90501F0D3F8F1
:1037800006000F000022944B0A980B9901F0D5F81F
:103790000022924B01F0CCF802000B000A980B9922
:1037A00001F0CBF800228E4B01F0C2F802000B00B2
:1037B0000A980B9901F0C1F802000B0030003900A3
:1037C00001F0B6F802000B000E980F9901F0B5F861
:1037D0000022714B01F0ACF8089A099B01F0C7F880
:1037E00006000F0008960997069A079B01F014F946
:1037F00000282FD001235B429C46E3440022774BF4
:103800003000390001F099F80890099122E01E9BE0
:1038100004931D9B03931C9B0293009401955346B4
:103820000C9A4946404600F0FFF811B0F0BCBB4688
:10383000B246A946A046F0BD00210022069107929B
:10384000069480231B069C46AC446346079310E70E
:1038500000239B465B466333C62B20D804261E9B61
:103860001B0528D5089A099B190011430FD05D4A02
:103870005D4B0698079901F0C7F800287AD000221E
:103880005A4B0698079901F0B1F8002872D01C9B9A
:103890005B4506DD5A469B1A013B1C9303E0052657
:1038A000DDE700231C938023DB001E9A1A431E923F
:1038B000002600239B461D9B9E4265D29F1B022330
:1038C0001E9A1A400A921E9A134202D0002E00D06D
:1038D00000275B46002B07D0089A099B069807999A
:1038E00001F02BF806900791002200232000290008
:1038F00001F07CF8002800D07CE03D4B1E9A13407C
:10390000049303971C9B0293069B079C00930194CE
:1039100053460C9A4946404600F086F8002E00D1E6
:1039200083E71E9B9B0671D54525441C5346020028
:1039300049462800C0475A46D317D2185A40052393
:103940000593013E0496002303930A3302935B46DA
:10395000DB0F019300925346220049464046FFF791
:103960006EFD0A9B002B00D15FE7020047460C9ECC
:103970001D9D53E01C9B002B9DD00D9B002B9AD0CE
:103980001C9B013B1C9396E7002798E7FFFFEF7F06
:10399000FFFFEFFF01FCFFFF0000F03FFB799F50AE
:1039A0001344D33FB3C8608B288AC63F0000F83F5A
:1039B00061436F63A787D23F71A379094F930A4090
:1039C0000000E03F1655B5BBB16B0240EF39FAFE7F
:1039D000422EE63FFF03000000002C400000244080
:1039E000000018402D431CEBE2361A3F80842E4124
:1039F000FFF7FFFF069C079D22002900802000069C
:103A0000844661440B000692079376E765258CE7B0
:103A1000541C534649462020B8472200931BAB4212
:103A2000F6D3100001E7C046F0B5DE4657464E46D5
:103A30004546E0B595B00690079193469946209F7C
:103A40001E9A1F9B1000190000F0EBFF002831D1D7
:103A500001225242BF4B1E981F9900F0C7FF002859
:103A600037D101225242BC4B1E981F9900F0D4FF5F
:103A700000283DD10022B94B1E981F9900F0CCFFC1
:103A8000002850D10022B64B1E981F9900F0AEFFBF
:103A9000002848D1002200231E981F9900F0A6FF9D
:103AA000002850D100239846229B5B0500D4B6E045
:103AB000002458E0229B0393219B0293032301934C
:103AC000A84B00934B465A4607990698FFF7D8FB38
:103AD0000EE1229B0393219B029304230193A24BAB
:103AE00000934B465A4607990698FFF7C9FBFFE03B
:103AF0000423229A1A4022990B4210D09B4B002A91
:103B00000FD00422229903912199029101920093EE
:103B10004B465A4607990698FFF7B2FBE8E0944BEC
:103B2000EDE70322EEE7229B0493219B0393029788
:103B30001E9B1F9C009301944B465A46079906987A
:103B4000FFF762FDD4E01E9A1F9B0020002100F0C9
:103B5000EAFE1E901F9101239846A5E70CAB302288
:103B60001A55013F01341F2C01D8092FF6D81E9891
:103B70001F9900F081FF050000F066FF02000B00B6
:103B80001E981F9900F0CFFE7A4BFA009B181A6816
:103B90005B680A920B9300F0EAFE0890099100F02E
:103BA0008FFF060000F04CFF02000B0008980999F7
:103BB00000F0B9FE0890099100226F4B00F02CFF35
:103BC00000282ED00136300000F03AFF02000B0032
:103BD0000A980B9900F010FF002801D0013500264B
:103BE000002F2CD1280000F02FFF02000B001E98A0
:103BF0001F9900F098FE06000F0000225E4B00F0B7
:103C0000F5FE002846D100225B4B3000390000F061
:103C100003FF00283ED1EB073CD501353AE00627EB
:103C200046E70022544B0898099900F0DFFE00286F
:103C3000D6D1002E01D0F307D2D50136D0E7AA465F
:103C40001F2C11D8013F0A21300000F031FC651C07
:103C500030310CAB19550A21300000F029FC092E37
:103C60000ED906002C00EBE755461F2C0CD87B1E06
:103C7000002F09D00CAA302111551F000134F4E7A0
:103C80002B0055461C00F0E71F2C03D80CAB2E224E
:103C90001A5501341F2C10D80A21280000F0E0FB2F
:103CA000661C30310CAB19550A21280000F0D8FBF6
:103CB000051E01D03400EDE734000323229A13409F
:103CC000012B1CD01F2C06D84346002B32D00CAB46
:103CD0002D221A550134229B0393219B02930194B8
:103CE0000CAB00934B465A4607990698FFF7C8FA63
:103CF00015B0F0BCBB46B246A946A046F0BD219B1C
:103D0000002B13D04346002B02D10C3313420FD0AB
:103D1000219B013B2193190003E00CAB30221A5583
:103D200001348C42CED21F2CF7D9CBE72199F8E78A
:103D30002199F6E7229B5B0704D50CAB2B221A5581
:103D40000134C8E7229B1B07C5D50CAB20221A55AE
:103D50000134C0E7FFFFEFFFFFFFEF7F65CDCD41EF
:103D600065CDCDC160A7001064A7001054A7001056
:103D70005CA70010C8B100100000E03FF0B5DE46BF
:103D800057464E464546E0B593B082468846934630
:103D90001193002900D106E300255646119B18789F
:103DA000002800D102E3252809D06C1C5B462A00BC
:103DB0004146B047119B013311932500EEE70133D3
:103DC0001193002720E001231F43013211920124A7
:103DD00018E002231F4301321192012412E0042350
:103DE0001F430132119201240CE008231F430132CA
:103DF0001192012406E010231F4301321192012485
:103E000000E00024002C09D0119A1378203BD9B28D
:103E10001029F6D88B00C449CB589F46119B1A78BD
:103E20001300303BDBB2092B10D92A2A13D00B9494
:103E3000119B1A782E2A1ED0119A1378683BD9B29A
:103E4000122959D88B00B949CB589F4611A8FFF7C2
:103E500005FA0B90ECE71C9B1A1D1C921B68002BAB
:103E600004DB0B93119B01331193E1E7022217430B
:103E70005B420B93F6E78022D20017435A1C119243
:103E80005A781300303BDBB2092B0BD92A2AD3D145
:103E90001C9B1A1D1C921C68002C08DB119B013313
:103EA0001193C9E711A8FFF7D9F90400C4E700246A
:103EB000F4E780235B003B43511C119151786C293E
:103EC00001D01F0018E0C0239B001F430232119253
:103ED00012E080233B43511C11915178682901D095
:103EE0001F0009E0C0231F430232119204E0802327
:103EF0005B001F4301321192119B1878672816D876
:103F0000252826D30300253BDAB2422A21D8930084
:103F1000874AD3589F4680239B001F43013211924A
:103F2000EAE780235B001F4301321192E4E778281F
:103F30000FD869280DD30200693AD2B20123934009
:103F40007C4A13420FD11A0600D507E25B0500D563
:103F500094E16C1C5B462A004146B047119B01333B
:103F6000119325001AE778280AD062283AD06F28E2
:103F70003BD058283CD010239F43063B9C4601E091
:103F800010239C46582836D0692803D0642801D0D5
:103F90000C2297437A0501D50122974369282DD039
:103FA00064282BD0BA0500D5A2E0FA0500D5C3E0FD
:103FB0007A0600D4D5E01C9A111D1C911168FF22CD
:103FC0000A4005970B9B04930394634602930023D6
:103FD000019300925B462A0041463000FFF72FFA1A
:103FE00005002AE002239C46CCE708239C46C9E74B
:103FF00010239C46C6E720221743C5E7BA0520D404
:10400000FA0550D47A0666D51C9A111D1C911168C8
:10401000FF220A40D0171118414005970B9B0493CB
:10402000039463460293D20F019200915B462A00EB
:1040300041463000FFF703FA0500119B013311934D
:10404000ACE61C9A073207218A43110008311C9103
:10405000116853689946DB170C930D930C9A0D9BCE
:10406000100048400E904A4653400F930E980F9907
:104070000C9A0D9B801A99410E900F9108970B9BFB
:104080000793069463460493002305934B46DA0F87
:104090000292009001915B462A0041463000FFF7F2
:1040A0002CFA0500C9E71C9A111D1C911268D01743
:1040B0001118414005970B9B0493039463460293A8
:1040C000D20F019200915B462A0041463000FFF773
:1040D000B6F90500B1E73A0605D51C9A111D1C91E9
:1040E0000023D25E96E71C9A111D1C91126891E77D
:1040F0001C9A073207218A43110008311C91089746
:104100000B9B079306946346049300230593029345
:1041100053681268009201935B462A0041463000C2
:10412000FFF7EBF9050088E728B000106CB000102D
:10413000B8B00010419000001C9A111D1C91059709
:104140000B9B04930394634602930023019313682B
:1041500000935B462A0041463000FFF770F90500E6
:104160006BE73A0606D51C9A111D1C9112681204C1
:10417000120C26E71C9A111D1C91126821E7462893
:1041800019D01C9B0733072293431A0008321C9254
:1041900004970B9A039202941A685B680092019349
:1041A0005B462A0041463000FFF73EFC0500119BAC
:1041B00001331193F2E520231F43E2E7672801D082
:1041C000472802D180231B011F43452801D04728DF
:1041D00001D120231F431C9B0733072293431A005E
:1041E00008321C9204970B9A039202941A685B6837
:1041F000009201935B462A0041463000FFF704FA23
:104200000500119B01331193C8E502231A003A40BF
:1042100091463B421DD001241C9B1A1D1C926F1C11
:1042200018785B462A004146B0474B46002B14D114
:10423000119B013311933D00B0E5571C5B4641468D
:104240002020B04723003A005C1C9D42F5D81500A1
:10425000E2E701232A000B9DF6E73A00B1460B9EE8
:1042600006E0571C5B4641462020C8472C003A0018
:10427000651CA642F5D817004E46D9E71C9B1A1DAF
:104280001C921B689A46002C25D1012252425346AB
:1042900001E001330A001978002902D0511E002ADA
:1042A000F7D152469B1A8022D2003900114089462C
:1042B000174202D0A34200D9230002221100394044
:1042C00010913A4209D02A00250057469A463300F9
:1042D0004E46994621E02200D9E72A004546A046ED
:1042E00006E0541C5B4629002020B0473B0022001A
:1042F0005F1C0B999942F4D84446A8463B00250020
:1043000057469A4633004E46994606E01D0001374F
:10431000541C5B464146C84722003878002804D028
:10432000002EF4D06B1E002DF0D1150053464E46E2
:10433000109A002A03D1119B013311932EE50B9F94
:104340002A0006E0551C5B4641462020B04723006A
:104350002A005C1C9F42F5D81500ECE721233B4363
:104360001C9A111D1C911268059308230493039451
:10437000083302930023019300925B462A004146D2
:104380003000FFF75CF80500119B0133119305E540
:104390006C1C5B462A0041462520B047119B013327
:1043A00011932500FAE40B4B9A46F5E4B2465D45BD
:1043B0000DD35B465A1E5B4641460020D04728007D
:1043C00013B0F0BCBB46B246A946A046F0BD2A00D9
:1043D000F1E7C0464D32001000B585B00290039160
:1043E00001210448009313004A4202A9FFF7C6FCCA
:1043F00005B000BD4F32001001480421014B1847A1
:10440000A01A00202944001010B5010018231B88B1
:1044100014221088984710BD10B5010018231B887E
:1044200016221088984710BDF0B5C64600B50700A3
:104430000E0000250123984600E00135B5420AD25E
:10444000AC003C192068FFF7DFFF20600028F4D1A2
:1044500000239846F1E7404680BCB846F0BD000016
:10446000124A936F9B0815D29066D166002905D039
:10447000FFE7FFE7FFE7516F106F704704B580213A
:104480000906C2175140002800D0C84305F0F4FBCC
:10449000002104BDF0B5146E556E576F166FFFF70F
:1044A000E3FF1466556657671667F0BD000000D03D
:1044B000114A936F9B0813D210665166002905D0EC
:1044C000FFE7FFE7FFE7516F106F704704B5002863
:1044D00001D00020C04305F0CFFB002104BDC04641
:1044E000F0B5146E556E576F166FFFF7E5FF146643
:1044F000556657671667F0BD000000D094464A4ADB
:10450000926F9208624601D228E0C046F0B5464E4E
:10451000346E756E776F366F00F020F89446424A1D
:1045200014665566576716676246F0BD94463E4A64
:10453000926F9208624601D254E0C046F0B53A4EFE
:10454000346E756E776F366F00F04CF89446364ACD
:1045500014665566576716676246F0BD002B24DB6C
:1045600011D000293EDA00B5C943404200D10131E3
:1045700000F038F8C943404200D10131DB435242D8
:1045800000D1013300BD002AEBD1002801D1002960
:1045900005D00020C90FC90701D1C043410800B5AB
:1045A00005F032FB0022002300BD00B500290ADB24
:1045B000DB43524200D1013300F014F8C9434042BA
:1045C00000D1013100BDC943404200D10131DB437C
:1045D000524200D1013300F005F8DB43524200D1D2
:1045E000013300BD002923D1002B18D1002A0CD0A3
:1045F000BC460D4F38667A6600210023FFE7FFE7CF
:10460000FFE77A6F386F67467047002801D0074888
:10461000010000B505F0F8FA0022002300BD0200F9
:104620000B00002000217047000000D0FFFFFFFFBB
:10463000002B00D0BFE0130C28D1002AE7D080B4B3
:10464000114F39667A66FFE7FFE730B4040C7B6FE1
:10465000396F1B0423433B667A66FFE7FFE7FFE7FA
:10466000C04684B27B6F3D6F1B0423433B667A6672
:10467000FFE7FFE7C04600232C042D0C7A6F386F4C
:1046800000196941B0BC7047000000D0F0B59446F5
:104690000025140E01D112020835140F01D11201A8
:1046A0000435940F01D192000235D40F01D152008C
:1046B0000135D40B0134254F7C66254C3C660E0C2D
:1046C00093B2FFE7FFE7FFE73C6F6643360C7703E3
:1046D000BE467343DF0B5B04C01AB941130C73432E
:1046E000DB18C91ACE086643360CB64493B273433E
:1046F0001F0F1B01C01AB941130C73431F0B1B057D
:10470000C01AB941860D8F023E436643360C092D0F
:1047100024DB520A7243801A7703460A6643360C3A
:1047200016235B1BDE40DF40BF1964466643821BD5
:104730007046043506330100D940A840C01900D3A3
:104740000131A24206D20023F0BD0000000000D0DB
:10475000FFFFFFFF121B0130F3D3F1E709277F1B97
:10476000FE406446A2B27243801A00D20139220C84
:104770007243130C1204821A99410B0070460435DF
:1047800013370100F940A840801900D30131002BF4
:1047900002D1A2420AD2F0BD013000D30131121B76
:1047A000FAD2013BF8D1A24200D2F0BD013000D3D1
:1047B0000131121BF7E7F0B51C0C00D080E00CB4FF
:1047C00000251C0A04D11B02160E334312020835C1
:1047D0001C0B04D11B01160F3343120104359C0B33
:1047E00004D19B00960F334392000235DC0B02D1BB
:1047F00092185B4101351C00971864410134464F03
:104800007C66464C3C660E0CFFE7FFE7FFE7C046C0
:104810003C6F6643360C7703BE4697B27743C01BA6
:1048200000D20139C01B00D201399FB27743C91BA6
:10483000C91B170C77437E04FF0B801BB941CE08C0
:104840006643360C0C2D33DBB644120B1F053A437E
:104850001B0B97B27743C01B00D201399FB277433D
:10486000C91B170C77433E043F0C801BB941860DD2
:104870008F023E43664329277F1BFE400C3D77464F
:10488000AF40BF1930BCA2B2ABB272437343801ABF
:104890009941220C7243130C1204801A99410200B0
:1048A0000B000137001BA941F9D2781E0021F0BD91
:1048B0000C277F1BFE4077467F0BAF40FF19E0E7D8
:1048C00000245D1C07D0144F7D663966FFE7FFE7C3
:1048D000FFE7FFE73C6F95B29EB265436643401B1E
:1048E000B141150C1E0C6543664336042F0C3E4344
:1048F0002D04401BB141994204D202000B0020005C
:104900000021F0BD01D19042F7D3801A99410134C2
:104910009942F2D3F6E70000000000D0FFFFFFFF4E
:1049200048404140484018B4134B5B68019308BDB0
:1049300018B4114B1B68019308BD94460F4A926F3F
:10494000920805D2624618B40B4BDB68019308BD90
:104950000A4AF0B5146E556E576F166F6246FFF730
:10496000F2FF064A1466556657671667F0BD18B41D
:10497000014B9B68019308BD2C2F0020000000D044
:10498000FFB550404240504059404B40594000E034
:10499000FFB5154F4C00640D03D0BC4204D10C038D
:1049A00014D80020090D09055C00640D03D0BC4239
:1049B00004D11C030AD800221B0D1B0501264B4005
:1049C00009D44B4003D58B4200D18242FFBD9942AE
:1049D000FCD19042FFBD0B43DB1803431343F5D0DA
:1049E000C9434918FFBD0000FF07000000B5FFF7ED
:1049F000CFFF804100BDC04600B5FFF7C9FF01D918
:104A0000002000BD012000BD00B5FFF7B9FF01D9AE
:104A1000002000BD012000BD00B5FFF7B1FF8041BF
:104A200000BD012040054A00121804D85A0012188F
:104A300001D8002070470120704700207047000017
:104A40000021002805D17047C1174840401AFAD00C
:104A5000C90713B5064B1B6898470CBC441CA24001
:104A60001005120B0349091B09051943114310BD19
:104A70002C3000201F04000010B54C00620D802374
:104A8000D218DB00D21A5B057E2A10DD9E3A13DABB
:104A9000CC170903490819435242D140640001343C
:104AA0001532202A05DAD0400843604310BD0020AB
:104AB00010BD0846604310BDC80FC018013810BDB6
:104AC00018B4024B5B6A019308BD00002C2F002034
:104AD00018B4024BDB6F019308BD00002C2F00209F
:104AE00018B4024B9B69019308BD00002C2F0020D5
:104AF00018B4024B9B6D019308BD00002C2F0020C1
:104B000010B50148FEF78AFB6CA7001070B513239F
:104B10001C78012C12D0012C12DC214B214A936409
:104B20002148FFF771FC214B186070BD20491D4AD8
:104B30009800815001331F2BF8D9ECE70023FAE7E6
:104B40001C48FFF769FC05001B48FFF765FC0238AD
:104B500003789B007F2B09DD12488022290000F09A
:104B600083F9022C08D0022CDADCD6E7134B144A66
:104B700014483221FEF780FA134B1A88B5231B0222
:104B80009A4209D1114B1A88114B9A4204D1114B08
:104B90001A88114B9A42E6D00020FEF73FFBC04630
:104BA000DD4B00102C2F00204C3300002C30002057
:104BB000014B0010534400005346000084A700102E
:104BC00018B20010D8A7001054380000D8380000E0
:104BD000494600009C3800005946000007B5604671
:104BE000002800D100BE01880A0A0230DF2AFAD16B
:104BF000C9B2820804D3028840880004104300E050
:104C00000068024A5050039007BD00002C2F00207E
:104C100051434343C9188C46110C83B24B4310B423
:104C2000040C614392B280B2504362431C041B0CDB
:104C3000001910BC59411304120CC01851416144B1
:104C4000704700004840414048400E4B5B681847A1
:104C50000C4B1B6818470C4A936F9B0802D2094BF8
:104C6000DB681847F0B5146E556E576F166FFFF777
:104C7000F6FF054A1466556657671667F0BD014B87
:104C80009B68184730300020000000D007B548402E
:104C90004140484001E0C04607B54200120E03D033
:104CA000FF2A03D1420218D8C00DC0054A00120ED7
:104CB00003D0FF2A03D14A020FD8C90DC90501222A
:104CC000414005D4414001D5814207BD884207BD1E
:104CD0000143491801D0C043001807BD00B5FFF7D4
:104CE000DBFF01D0002000BD012000BD00B5FFF7B3
:104CF000D3FF01D9002000BD012000BD01231B0608
:104D00004200D21804D84A00D21801D800207047B7
:104D100001207047491A002808D108467047000052
:104D2000C10FC90700D54042002817D0F44603B48C
:104D30000B4B1B68984706BC81409E38404280312F
:104D400007D20B0607D04900490AC00510430843A3
:104D500060470130F8E7490A8902F5E7704700002B
:104D60002C300020014B5B6A1847000030300020D7
:104D7000014BDB6F184700003030002010B50148B0
:104D8000FEF74CFA1C9E001070B513231E781848CD
:104D9000FFF742FB0500012E11D0012E09DDAB1EED
:104DA0001B789B007F2B1DDD12488022290000F01C
:104DB0005BF81148FFF728FB104B186070BD0D48D9
:104DC0005422290000F050F8002300E001331F2B8B
:104DD000E3D8084A9C00A258002AF7D10849054A9E
:104DE000A150F3E7074B084A08484221FEF744F96F
:104DF00053460000303000204C3300002C3000209F
:104E00007D4D001020A800102CB2001054A80010F6
:104E100010B5002804D04018034B984200D810BDAC
:104E20000248FEF7FBF9C046000004209CA80010D1
:104E300070B5050004F040F804002900FFF7E8FF12
:104E4000200070BD10B504F041F810BD01480421E8
:104E5000014B1847B01A002029440010014B1B6871
:104E600018470000B01A0020014B5B68184700008B
:104E7000B01A002010B5FFF7DBFF10BD10B5FFF72B
:104E8000E1FF10BD10B5FFF7DDFF10BD10B5030049
:104E9000080011001B68984710BD0000F8B5070016
:104EA0000D001600437D002B02D0002400200CE0F2
:104EB00003681100280098472DE03B7D10E03B6817
:104EC000154802219847601C0134B44214DA002CC2
:104ED000F3DD2B19013B1B780D3B5A425341DBB2EA
:104EE0002A5D0A2AF0D1002BEED1A042E7DA3B6816
:104EF000211A28189847E2E7B04203DA3B68311AD2
:104F000028189847002E06DDAD19013D2B780D3B82
:104F10005A4253413B75F8BD64B2001070B50500AC
:104F20000368002B16D00C4B1C6805E0290004C94F
:104F30002000FFF7B3FF2469002C09D02368002B61
:104F4000F9D0064B1B68002BF0D0A342F3D1EDE75C
:104F500000232B6070BDC046F02A0020F82A0020F4
:104F600070B505000C000B68802B05D023685A1C17
:104F70002260E418257170BD0800FFF7CFFFF5E748
:104F800010B5002B02DB0260436010BD024B034AE8
:104F900003483F21FEF770F8A8A0001068B2001087
:104FA000C4A0001010B582B00400FDF7ADFB0200F4
:104FB0000B006846FFF7E4FF009A019B22606360E4
:104FC000200002B010BD000070B582B006001400D1
:104FD0001D00FA229200002306980021FFF718FE18
:104FE00002000B0012196B41002B09DB6846FFF72A
:104FF000C7FF009A019B32607360300002B070BD41
:1050000001225242004BF1E7FFFFFF7F30B585B030
:1050100004000D0002A8FFF7C5FF029A039B00954C
:105020002000FFF7D1FF200005B030BD00B583B0F0
:10503000FA2189006846FFF7E9FF009A019B0248C0
:1050400004F05AFE03B000BD5023002010B5024802
:1050500004F0D2FD10BDC04650230020F0B5CE466E
:10506000474680B583B006000D0090461C00FFF750
:10507000DDFF81466B1C05D0002C08D0194F1A4B60
:105080001C6807E0300004F0FDFB0500F4E7174F53
:10509000F5E72469002C17D02368002BF9D0144BB6
:1050A0001B68002B01D0A342F3D12A00310020005D
:1050B000B8474346002BECD06B46D91D0A230B7032
:1050C00001222000B847E4E74B46002B07D16B1EB6
:1050D0009D41E8B203B0C0BCB946B046F0BDFFF791
:1050E000B5FFF4E78D4E0010F02A00209D4E001011
:1050F000F82A0020094A01E010331A001368002B37
:1051000008D08342F8D1002907D103691360002336
:10511000036102E0002900D010607047F02A0020EF
:1051200010B5064B1C6801E098472469002C03D099
:105130006368002BF8D1F8E710BDC046F02A0020C4
:1051400070B5050004F09EFB04000023012201005D
:105150002800FFF783FFFFF7E3FF200070BD00008A
:1051600070B5A2B004000E00FFF760FF0500002339
:1051700001930A483300220001A9FFF72DF904002A
:1051800001A8FFF7CBFEFFF7CBFF002D02D12000D7
:1051900022B070BDFFF75AFFF9E7C046614F00101B
:1051A0000FB400B583B004A901C90191FFF7D8FF7E
:1051B00003B008BC04B0184710B500F0AFF910BD3B
:1051C00070470000014B00221A70704769310020BF
:1051D0004B79FF2B0CD18B79002B0BD1CB79012B89
:1051E0000AD1082A0AD98A78054B1A70092000E0EA
:1051F000002070470020FCE70020FAE70020F8E7D5
:10520000693100200120704770B504000D0003488B
:10521000FFF7FAF8030029002000984755420000E4
:1052200010B5012926D1117953791B020B4312497C
:1052300009788B4201D000201DE05378012B03D068
:10524000022B10D0002016E09178D3781B0219436E
:10525000DB0506D54B0A012098407F231940FFF754
:10526000D3FF0020F9E7642200210020FDF7A6FE0D
:10527000012000E0012010BD6931002001230370EE
:105280000048704780B2001010B50A784B781B02B6
:1052900013438A7812041A43CB781B0613439622D1
:1052A000D200934200D010BD00210800FFF7ACFFF0
:1052B000024B1860024B19607047C046542A002008
:1052C000582A002010B5002B02DB0260436010BD9D
:1052D000024B034A03483F21FDF7CEFEA8A0001071
:1052E000B4B20010C4A0001010B582B00400FDF7E5
:1052F0000BFA02000B006846FFF7E4FF009A019BDF
:1053000022606360200002B010BD000070B582B062
:10531000060014001D00FA229200002306980021C6
:10532000FFF776FC02000B0012196B41002B09DB22
:105330006846FFF7C7FF009A019B32607360300038
:1053400002B070BD01225242004BF1E7FFFFFF7F28
:1053500030B585B004000D0002A8FFF7C5FF029A22
:10536000039B00952000FFF7D1FF200005B030BD62
:1053700010B582B004000498059912184B41002B17
:1053800009DB6846FFF79EFF009A019B226063607D
:10539000200002B010BD01225242014BF1E7C0468D
:1053A000FFFFFF7F10B5024B1878FCF73DF910BDE9
:1053B0006A3100200268EFF3108172B61368002B87
:1053C000FCD0BFF35F8F41607047000070B50F4B9A
:1053D0001B68002B16D00D4C2000FFF7EBFF0C4B89
:1053E00000221A7021686368BFF35F8F0A6083F33D
:1053F000108800240025074B1878FCF715F92000C9
:10540000290070BDFA24A4000025F4E7082F00202D
:105410006B3100206A310020F0B587B0040016001F
:105420001D000EAB1F7804A8FFF75EFF049A059BD2
:105430000096019504A8FFF79BFF049A059B02972D
:105440000D9901910C9900912000FCF77DFF07B0A8
:10545000F0BDF0B5C64600B584B00500884616001C
:105460001F000AAB1C78FCF759FF029401970096C5
:105470002A004346FFF7D0FF04B080BCB846F0BD19
:1054800010B582B01948002104F006FC002822D192
:10549000174B1B68002B26D0154C2000FFF78AFF06
:1054A000144A137801214B40DBB2012111702168AD
:1054B0006268BFF35F8F0020086082F31088002BC2
:1054C00011D00D4A012300930023FA20800000210F
:1054D000FFF7BFFF07E001200021404201F090F8F4
:1054E000024804F089FB02B010BDC04634310020F0
:1054F000082F00206B310020CD53001010B5054B54
:105500001868002804D0044B1968002200F0A2FD9E
:1055100010BDC046542A0020582A002010B582B081
:10552000D0231B061C68FCF7F9FEFDF707F8A04224
:105530002CD1234B1B7801F031FD2248FCF785FB71
:105540000120FCF70FFB204C20702049FF2318405E
:10555000FCF78CF820780121FCF75EF80520FCF7B9
:1055600073F8041E18D01A4900220520FCF7A8F889
:10557000FBF7A6FF0100174B1800FCF783FB16484A
:105580000121FFF7B7FD200002B010BD134B144AF4
:105590001448B221FDF770FD134A01230093002344
:1055A000FA2080000021FFF754FFC443E40F0948AC
:1055B00008220021FFF752FC002CE4D0DFE7C046B0
:1055C00000BA0010343100206A31002081540010EC
:1055D000A5530010082F0020C01A002048A000107A
:1055E000A4B20010ECA80010CD53001010B500209C
:1055F00001F0FEF910BD000030B583B004000D00CD
:10560000FFF7F4FF002830D0002001F00DFA002849
:105610002ED0FA2189006846FFF79AFE009A019B76
:10562000164804F069FB002825D0FFF7DFFF0028AB
:1056300004D0002001F0F8F900280CD1012000214D
:10564000404200F0DDFF032464420C4804F0D4FA29
:10565000200003B030BD2A002100002001F0F0F945
:10566000041EF2D103246442EFE703246442EFE70F
:1056700003246442ECE703246442E9E73431002068
:10568000F0B5C64600B582B080460D00FA2189000B
:105690006846FFF75DFE009A019B2C4804F02CFB46
:1056A000002803D102B080BCB846F0BDFFF79EFFD2
:1056B000002849D1264B002000211860596023485A
:1056C00004F09AFAEEE701200021404200F098FF32
:1056D000002001F0C9F9FFF789FF0028EFD0002072
:1056E00001F03AFA002820D0AC42E8DA2E1B002064
:1056F00001F032FA0200864200DC3200002AE2D0D9
:1057000043461919002001F00BFA06000120002180
:10571000404200F075FF002001F0A6F9A419FCF743
:10572000F3FF0B4B18605960DEE7FCF7EDFF084B09
:105730001E685F68074A002392197B419942BED8D0
:10574000D2D19042D0D9BAE70024CDE7343100203D
:105750007824002020A107000048704738B30010CB
:1057600000487047E4B2001010B50400154B1B78D8
:10577000002B0ED0002C11D1134B144A5A80012358
:1057800001335B009BB21048C02292001343038098
:1057900010BD0C48112100F025F8EBE7052C0ED8C0
:1057A0000B4BA400E4580023122BE9D8E15C00293C
:1057B000E6D00133044A58008152DBB2F4E70020FE
:1057C000E6E7C0464C310020C82A0020090400004A
:1057D000CCB2001010B5024800F032F810BDC0463F
:1057E000242F002010B5002901D000230AE0104B1F
:1057F000104A11481F31FDF73FFC00220DE03732FF
:10580000C25401334A1E9A420ED90F2B0CD85A08A3
:105810000A4CA45CDA07F0D4042214410F2222407F
:10582000092AECDC3032EBE7C0180023037010BD0E
:1058300074A900104CB300107CA90010242F002084
:1058400070B588B0040004AD00260496092200213A
:1058500005A8FFF703FB00960922002101A8FFF726
:10586000FDFA4B232B700D226946280004F0BCF989
:10587000002304E05A1D69468A5CE2540133072B79
:10588000F8DD08B070BD000002007F201040D20992
:10589000400080184001014BC0187047002B0020C9
:1058A00010B5038B3F333F229343022915D0124C8E
:1058B0002268C260D31823609C0610D10F4C62404E
:1058C000634080246401A3420FD8890611438023DA
:1058D0001B060B434268136010BD5B00E7E7084BF3
:1058E000084A09485421FDF7C7FB084B054A0648FA
:1058F0005621FDF7C1FBC046042F002000001050C8
:1059000020AB0010BCB3001050AB0010A4AB0010D3
:10591000F8B505000E001400FFF7B6FF7F232B40FB
:10592000EF0985707A427A4142700022C270068384
:10593000C476012F0DD0DA0012498C466244826091
:10594000826800211160002B09D143600E4BC360B7
:10595000F8BDDA000D498C4662448260F0E7012F01
:1059600009D0013BDB000A4A9446634443602100AE
:10597000FFF796FFECE7013BDB00064A94466344E1
:105980004360F4E784001050000110508000105074
:105990000C0010500800105070B584B006000D00C7
:1059A00014000C22002101A8FFF758FA6B461E7163
:1059B00003236A4653710295210001A804F08CF973
:1059C00004B070BD70B50C001500FFF75DFF2A0034
:1059D000210000F00DF970BD10B5002804D101219F
:1059E0000520FBF719FE10BD034B044AD5210448DE
:1059F0004900FDF741FBC046ECAB0010ACB3001012
:105A000050AB001010B5002805D1002200218020E5
:105A1000FFF7D8FF10BD034B034ADB2103484900C1
:105A2000FDF72AFBECAB00109CB3001050AB00104C
:105A3000024B80225202DA647047C04600201150A7
:105A400070B5041E26D100F0ADF8164D0C23AB67DF
:105A50001549FF220520FBF733FE144840220021A0
:105A6000FFF7FCF9002240210020FFF751FF002240
:105A700040218020FFF74CFF04F0D6F801232B646F
:105A800080239B05EB649023094AEA502000FFF72E
:105A9000CFFF70BD074B084A86210848FF31FDF74C
:105AA000EBFAC0460000115051040020002B0020EA
:105AB00010D00100ECAB0010D0B3001050AB0010C0
:105AC0000B785B0602D14B78052B00D070478A78A3
:105AD000014B1A60FAE7C0460000115010B50A00E9
