:020000041000EA
:1000000000B5324B212058609868022188439860DF
:10001000D860186158612E4B002199600221596106
:100020000121F02299502B49196001219960352056
:1000300000F044F80222904214D00621196600F024
:1000400034F8196E01211966002018661A6600F04E
:100050002CF8196E196E196E052000F02FF8012189
:100060000842F9D1002199601B49196000215960AB
:100070001A491B48016001219960EB211966A021F2
:10008000196600F012F800219960164914480160C1
:100090000121996001BC002800D000471248134993
:1000A000086003C880F30888084703B5996A0420EC
:1000B0000142FBD001200142F8D103BD02B5186610
:1000C0001866FFF7F2FF186E186E02BD00000240BE
:1000D000000000180000070000035F00212200005C
:1000E000F4000018222000A00001001008ED00E03C
:1000F00000000000000000000000000074B24E7A12
:1001000000200420F7010010C3010010C5010010F9
:10011000C1010010C1010010C1010010C101001097
:10012000C1010010C1010010C1010010C701001081
:10013000C1010010C1010010C9010010CB01001065
:10014000CD010010CD010010CD010010CD01001037
:10015000CD010010CD010010CD010010CD01001027
:10016000CD010010CD010010CD010010CD01001017
:10017000CD010010CD010010CD010010CD01001007
:10018000CD010010CD010010CD010010CD010010F7
:10019000CD010010CD010010CD010010CD010010E7
:1001A000CD010010CD010010CD010010CD010010D7
:1001B000CD010010CD010010CD010010CD010010C7
:1001C00000BE00BE00BE00BE00BE00BEEFF3058054
:1001D000103800BEF2EB887130C1001054C100101D
:1001E0003402001090A31AE700201F49086006C8D7
:1001F00081F3088810471D48006800282FD10DA4FE
:100200000ECC002902D000F012F8F9E71849194A7B
:10021000002000E001C19142FCD1174988471749ED
:1002200088471749884700BEFDE701C901C29A42C5
:10023000FBD3704754C10010C00000207823002079
:100240000CE4001000000420000004200CE4001066
:10025000001004200010042000000000704709482E
:1002600004F0F4F80047000008ED00E0000000D0C2
:1002700078230020703100206931001055030010F0
:100280002B3100105756000006005250ABB360539C
:100290002CB0001006005250861C03023CB0001027
:1002A000060052505422A29D48B000100500525042
:1002B000DE65F4680CE40010F8B5C0460448054B50
:1002C00010B5834203D0044B002B00D0984710BDDB
:1002D000782300207823002000000000064807490A
:1002E000091A8B10C90FC91810B5491003D0044B57
:1002F000002B00D0984710BD7823002078230020E1
:100300000000000010B5074C2378002B09D1FFF73F
:10031000D5FF054B002B02D0044800E000BF0123AD
:10032000237010BD8024002000000000D8A400101D
:10033000054B10B5002B03D00449054800E000BF71
:10034000FFF7CCFF10BDC046000000008424002051
:10035000D8A4001010B505F0FDFA034802F0B1F979
:1003600000F096F8002010BD8813000000B585B09D
:1003700003AA6B23138004480023009302336821EF
:1003800007F0B6FF05B000BD001B0020F0B587B038
:1003900005000E0017000F226A443B231370314CF6
:1003A0003A3B00936821200007F0A2FF2E4B186013
:1003B00000230093063304AA6821200007F0A4FF5D
:1003C0002A4B1860002308E05A0004A98C5C240220
:1003D000501C095C2143A9520133022BF4DD0F228A
:1003E0006A44432313701F4C423B00936821200052
:1003F00007F07EFF1C4B186000230093063304AA0D
:100400006821200007F080FF184B1860002308E0E7
:10041000580004AA155C2D02411C545C2C43345234
:100420000133022BF4DD0F226A44412313700D4C7B
:10043000403B00936821200007F05AFF0A4B1860E8
:1004400000230093023304AA6821200007F05CFF18
:10045000064B18606B461A7C12025B7C13433B8090
:1004600007B0F0BD001B002060310020202F0020CD
:1004700010B504001F2100F0C3FF0022002120005E
:1004800000F0D6FF0021200000F0ECFF10BD0000BE
:10049000F0B5DE4657464E464546E0B5494CA544C4
:1004A00007F03EFF1A20FFF7E3FF474E474D484C49
:1004B000012398460093331C2A1C211CA9A800F094
:1004C000D4FB43460093331C2A1C211C98A800F03F
:1004D000CCFB00270097331C2A1C211C87A800F0A6
:1004E000C4FB0097331C2A1C211C76A800F0BDFB1E
:1004F00043460093331C2A1C211C65A800F0B5FB61
:100500000097331C2A1C211C54A800F0AEFB434664
:100510000093331C2A1C211C43A800F0A6FB009763
:10052000331C2A1C211C32A800F09FFB13212FA88A
:1005300000F024FF07212CA800F020FF142129A897
:1005400000F01CFF002126A800F018FF2FA800F0E3
:100550001BFF2CA800F018FF29A800F015FF26A803
:1005600000F012FF1B4805F0B9F91B481B4907F0C2
:1005700093FE0321042000F043FF0321052000F037
:100580003FFF00220121042000F052FF0022012140
:10059000052000F04DFFFFF7E9FE002413941294AC
:1005A0001194FA20800002F08CF80D4B9D6A09949A
:1005B0002EE00C4805F092F999E00B4805F08EF911
:1005C000E3E0C04614FDFFFFA69BC43AA69B443B54
:1005D000CDCC4C3FD8A40010001B0020A086010009
:1005E000004005400CA5001028A500101498139F8A
:1005F00004F08CFF04000D00E04E381C04F086FF70
:100600000090019122002B00300005F097F90F9D1A
:100610002E220AAB9C46624416A918A8FFF7B6FE24
:1006200018AB00215A5E904602215A5E9146042280
:100630009B5E9B460AAB30229B5E9A460AAB3222F7
:100640009B5E0B93CE4B9B6A0F93581B04F030FFBD
:10065000CC4904F0CEFE0E9000231293404604F0E5
:100660001DFA06000F0000248025ED0522002B0056
:1006700004F0CEFD0C900D91584604F00FFA2200C4
:100680002B000690079104F0C3FD0C9A0D9B04F01B
:1006900071F904F04FFA0022002304F0C9F9002890
:1006A00087D122002B003000390004F0B1FD060094
:1006B0000F0022002B000698079904F0A9FD3200D4
:1006C0003B0004F057F904F035FA04000D004846E9
:1006D00004F0E4F922002B0004F051F904F034FD99
:1006E000A94AAA4B04F065F904F01CFA1290002301
:1006F0001193484604F0D2F900248025ED0522002C
:100700002B000C900D9104F083FD06000F002200D9
:100710002B000698079904F07BFD32003B0004F0A3
:1007200029F904F007FA0022002304F081F90028D7
:1007300000D042E743465B42994626002F00220044
:100740002B000C980D9904F063FD04000D0032009D
:100750003B000698079904F05BFD22002B0004F093
:1007600009F904F0E7F904000D00484604F096F991
:1007700022002B0004F003F904F0E6FC824A834BCC
:1007800004F017F904F0CEF911908321504603F0DC
:1007900089FE00B204F092FE0E9E311C04F03DFE74
:1007A0000A9904F023FE04F0B1FE794A794B04F073
:1007B00000F904000D00129804F0A8FE764A774B69
:1007C00004F0F7F802000B002000290004F0D2F832
:1007D00004F0A8F9149083210B9803F063FE00B293
:1007E00004F06CFE311C04F018FE099904F0FEFDC3
:1007F00004F08CFE664A674B04F0DBF804000D0041
:10080000119804F083FE644A644B04F0D2F80200AD
:100810000B002000290004F0ADF804F083F91390D8
:10082000149B0A93139B0993149C640064085C490D
:10083000201C04F031FE002806D15949201C04F088
:1008400023FE002800D1D1E6139C640064085449BB
:10085000201C04F021FE002806D15149201C04F080
:1008600013FE002800D1C1E6149A0024211CA9A877
:1008700000F0CEFC2590139A211C65A800F0C8FC5E
:1008800021902598219904F0B1FDFC21890504F0FF
:10089000C4FD1D90149A211C98A800F0B9FC249066
:1008A000139A211C54A800F0B3FC2090249820999E
:1008B00004F09CFDFC21890504F0AFFD1C90149A06
:1008C000211C87A800F0A4FC2390139A211C43A8A4
:1008D00000F09EFC1F9023981F9904F087FDFC21D7
:1008E000890504F09AFD1B90149A211C76A800F04B
:1008F0008FFC2290139A211C32A800F089FC1E90D4
:1009000022981E9904F072FDFC21890504F085FDF2
:100910001A901D981C9F1B9B98461A9B994604F0A1
:10092000F5FD04000D001F4E484604F0EFFD049055
:100930000591404604F0EAFD02900391381C04F052
:10094000E5FD0090019122002B00300004F0F6FF3D
:10095000154B04221A60154B1B68DB05FBD5134BA6
:10096000586880B2FA235B00984221D9FA231B0110
:1009700098421FD3FA2000011CE0C04660A5001079
:100980000040054000247449E79AD56194A94C4081
:100990005C8FC2F5285CEF3F7B14AE47E17A943F51
:1009A000FFFF7F7F44A5001000E0044000C004402A
:1009B000FA204000F538FF38232103F073FD0004CE
:1009C000030C800BC0184000C8239B009C46604469
:1009D00004F074FD041C1D98211C04F007FD04F0B4
:1009E0008FFD85B21C98211C04F000FD04F088FDE9
:1009F00087B21B98211C04F0F9FC04F081FD86B23B
:100A00001A98211C04F0F2FC04F07AFD84B2FA2357
:100A1000DB009D4200D90025FA23DB009F4200D96C
:100A20000027FA23DB009E4200D90026FA23DB00D0
:100A30009C4200D90024FA23DB009D4210D22900F9
:100A40002FA800F0D5FC39002CA800F0D1FC310013
:100A500029A800F0CDFC210026A800F0C9FCD6E5AD
:100A60000248290004F06AFFD1E5C04688A50010BD
:100A700070B50C00150004E001CC8021890004F061
:100A8000CFFDAC42F8D370BD10B504000368002B55
:100A900009D0426A04324169FFF7EAFF20686168C1
:100AA000890004F0BDFD200010BD10B588B0040021
:100AB00083680093C36801930369029343690393B6
:100AC00083690493C3690593036A0693436A079392
:100AD000FFF7DAFF200008B010BD10B5C268CB6880
:100AE000D31A9B10541EA2419B1ADB010268406876
:100AF000121A921098188B680A689B1A9B10C018DB
:100B000010BD10B50400C0688021890004F088FD84
:100B100063691A1D62615B68E360802292009A1823
:100B20002261A36010BD10B583680269043A934244
:100B300002D00433836010BDFFF7E3FFFBE710B57D
:100B400000238022920591425B41002B03D1880053
:100B500004F05EFD10BD8023DB05994201D307F050
:100B600009FC07F0F7FB70B514000D1A884204D099
:100B70002A000100200009F023F8601970BD10B5AB
:100B800000238022920591425B41002B03D1880013
:100B900004F03EFD10BD8023DB05994201D307F030
:100BA000E9FB07F0D7FB70B506000C00150005E067
:100BB000002280213000FFF7E2FF01C4AC42F7D3EE
:100BC00070BDF0B585B004000F00CB095D1C082294
:100BD000029203330393082B28D802AB1968616093
:100BE000002201A8FFF7ABFF206063685B1B5B0876
:100BF0009B00C618AD0075192A0031002000FFF7D0
:100C0000D2FF66613268E260802189005318236157
:100C1000043D65622B68E36159182162A2607F225E
:100C20003A4092009B18A36105B0F0BD03ABD5E735
:100C300010B504000023036043608360C360036158
:100C400043618361C361036243620021FFF7B9FF1F
:100C5000200010BD10B504002822002104F0CCFCB7
:100C60002000FFF7E5FF200010BD10B5040002A82A
:100C7000007821606260A36004F01AFCE060002349
:100C80002361636120001830FFF7E4FF4023142242
:100C9000E254200010BD10B50400110000230360D1
:100CA00043608360C360036143618361C361036226
:100CB0004362FFF786FF200010BD70B514000D1AC7
:100CC000814205D0531B2A000100180008F078FF6C
:100CD000601B70BDF0B5D6464F464646C0B584B0E1
:100CE000050001919246416A40690E1AB410013420
:100CF000019A14196B686700BB421AD92F68BC4669
:100D00001B1B5B089B005446002C01D0920000E0A6
:100D100000229B1863441C00984204D904311A0035
:100D2000FFF721FF30E00431321D9A18FFF7C5FFAD
:100D30002AE0291D9A4213D80A689B180233984664
:100D40000022190003A8FFF7FAFE814643461C1B48
:100D50006408A4005346002B04D0019B9B0002E0D2
:100D600001A9E9E70023E4184C44696A0431686981
:100D70002200FFF7F8FE28686968890004F050FC3B
:100D80004B462B6043466B606C612368EB608022AE
:100D90009200944663442B61A4196C622368EB6152
:100DA00063442B6204B0E0BCBA46B146A846F0BD2D
:100DB00070B54C1C4268436A05685B1B9B10D31AD4
:100DC0009C4200D870BD0022FFF784FFFAE70000C4
:100DD00070B504000D00183021000831FFF77DFECA
:100DE0000F4B984218D001212000FFF7E1FF666AFF
:100DF000002280212000FFF7C2FE7060A3692A68EC
:100E00001A60636A1A1D62625B68E3618022920065
:100E10009A182262A36170BD024807F0D3FAC04657
:100E2000FFFFFF1F9CA5001010B58269036A043BF9
:100E30009A4205D00B68136083690433836110BD47
:100E4000FFF7C6FFFBE770B514000D1A884204D007
:100E50002A000100200008F0B3FE601970BD10B533
:100E600002684368D31A9B105B1805D47F2B03DC00
:100E700089005218026015E0002B14DDD9177F227B
:100E80000A40D218D211C16894000919C1600968DA
:100E900041608024A4000C198460D2019B1A9B003D
:100EA000C918016010BDDA43D209D243EBE7F0B5AF
:100EB00083B0060008001D00521A921000920FE045
:100EC00001AB1F68BC0004192A682100FFF7BBFFB3
:100ED00039002800FFF7C3FF0099C91B00912000CB
:100EE000009B002B08DDAA682968521A9210019213
:100EF0009A42E5DB6B46E4E72B6833606B6873600E
:100F0000AB68B360EB68F360300003B0F0BDF0B5E0
:100F1000C64600B598B080460D0017001C00CA6890
:100F2000FB689A4242D00968AA6823680493636800
:100F30000593A3680693E36807936E4604AB3000FD
:100F4000FFF7B5FF230007CE07C332681A60EE68CB
:100F5000043615E002CE23680C9363680D93A368F2
:100F60000E93E3680F9308AD80239B00CA180CAB67
:100F70002800FFF79CFF230007CD07C32A681A60EB
:100F8000FB68B342E6D179683A68236810936368D6
:100F90001193A3681293E368139310AB4046FFF7D5
:100FA00086FF404618B080BCB846F0BD09683A6874
:100FB0002368149363681593A3681693E3681793E3
:100FC00014ABFFF774FFECE710B58CB004000868B1
:100FD00000904868019088680290C9680391116880
:100FE00004915168059191680691D26807921A6838
:100FF00008925A6809929A680A92DB680B9308ABC8
:1010000004AA69462000FFF782FF20000CB010BD43
:1010100070B59CB004000E6808964D680995886804
:101020000A90C9680B91049605950690079115687A
:1010300010955068119091681291D26813920C9596
:101040000D900E910F9218681890596819919A682E
:101050001A92DB681B93149015911692179314AB98
:101060000CAA04A96846FFF7AFFF009B2360019B11
:101070006360029BA360039BE36020001CB070BD13
:1010800070B594B004000E6804964D6805958868A4
:101090000690C96807910096019502900391156822
:1010A0000C9550680D9091680E91D2680F9208953A
:1010B00009900A910B921A6810925A6811929A68D4
:1010C0001292DB68139310AB08AA69462000FFF761
:1010D0009FFF200014B070BD10B58CB004000868EC
:1010E00000904868019088680290C968039111686F
:1010F00004915168059191680691D26807921A6827
:1011000008925A6809929A680A92DB680B9308ABB6
:1011100004AA69462000FFF7B3FF20000CB010BD01
:1011200010B58CB004000868009048680190886889
:101130000290C96803911168049151680591916802
:101140000691D26807921A6808925A6809929A68BA
:101150000A92DB680B9308AB04AA69462000FFF7EC
:10116000BBFF20000CB010BD10B58CB004000868A7
:1011700000904868019088680290C96803911168DE
:1011800004915168059191680691D26807921A6896
:1011900008925A6809929A680A92DB680B9308AB26
:1011A00004AA69462000FFF7BBFF20000CB010BD69
:1011B00030B595B005000C00080018300831FFF775
:1011C0008CFC020003A92800FFF765FDA3680893C3
:1011D000E368099323690A9363690B93A3690C93EA
:1011E000E3690D93236A0E93636A0F93AB681093C0
:1011F000EB6811932B6912936B691393009510ABF5
:101200000CAA08A904A8FFF7AFFF280015B030BD4D
:10121000F0B5D64600B592B006000D1C141CC0688F
:10122000002104F029F9002803D080231B069C46E6
:101230006444211C281C04F0D6F80D903000303096
:1012400031002031FFF749FC4023F35C83420FD883
:10125000340018342000FFF766FC0DA92000FFF7CA
:10126000E3FD3100183103A8FFF7A2FF002414E0CA
:10127000300018300DA9FFF7D7FDF2E70E93069A5C
:101280000F92079A1092089A11921968201C04F084
:10129000ADF8041C03A8FFF746FC099A059B9A4287
:1012A000ECD1201C04F032F9224A234B03F081FBDD
:1012B00003F038FC041C7061306804F027F90090DA
:1012C00001917168FE20800504F093F8011C201C38
:1012D00004F0A3F80D9F391C04F088F804F016F907
:1012E00004000D00B3689A463169381C04F07BF89D
:1012F000011C504604F091F804F008F90D4A0E4B19
:1013000003F03DFB02000B002000290003F032FB3C
:1013100002000B000098019903F04BFB03F002FC64
:10132000041C376103A8FFF7C0FB201C12B080BC6F
:10133000BA46F0BDFA7E6ABC7493683F83001B18FE
:101340009B000B488446634400290CD01020824047
:1013500000290AD00749186842400A408021490103
:101360000B431A6070470800F1E70349F3E7C046F2
:101370000C0005400000FFFFFFFF0000016000239C
:10138000436083607047000010B5040000680421CA
:1013900000F036F823685A080721114061600122E5
:1013A0001340A3608B005B189B000F498C4663447D
:1013B000FA21C900596061688B005B189B00634487
:1013C0000A49196161688B005B189B0063441968C6
:1013D0008A43802149010B431A60FA22A1686068A0
:1013E0009200FFF7ABFF10BD00000540B80B0000F6
:1013F00010B50A0081684068FFF7A0FF10BD00002B
:1014000010B58300084A944663441A684024624039
:10141000803414408022520113431C60C000034BEF
:101420009C466044416010BD04C001400040014042
:1014300080000B4B9C46604400290DD00823002AF5
:101440000CD004221343026853400C221A4080231C
:101450005B0103431A6070470023F0E70022F1E7C5
:1014600004C00140002909D08000094B9C4660441B
:1014700080239B01034340221A6070478000044B85
:101480009C466044C0239B01034340221A60F4E75A
:1014900004C00140034B1B6802201840431E9841C2
:1014A000C0B2704700C00640EFF3108072B6034B25
:1014B0001B68002BFBD0BFF35F8F70472C0100D05F
:1014C000BFF35F8F024B00221A6080F310887047D1
:1014D0002C0100D0F8B506000C001500FFF7E4FF62
:1014E000E308F718F15C07222240012393400B42E6
:1014F00005D1DBB20B433B70FFF7E2FFF8BD2100E3
:10150000280001F0ADFEF0B583B006000191140093
:101510001F00FFF7C9FF00E00134BC420CD8E3080C
:10152000F518F35C0721214001228A401A42F3D1C9
:10153000D2B21A432A7001E001246442FFF7C0FFCF
:10154000002C02DB200003B0F0BD019B002BF9D082
:10155000089801F085FE0000002307E0054A9A186C
:101560009200BFF35F8F0021116001331F2BF5D96B
:101570007047C04640000034054A1078431CDBB277
:101580001370172B02D9130010221A707047C0462F
:10159000241A002010B582B00100054C054B0093C1
:1015A0001F2318222000FFF7AEFF02B010BDC04677
:1015B0005C2A0020CCA50010074B9B6810308000EF
:1015C0001950BFF35F8FBFF35F8F044B0021196089
:1015D00082F310887047C04600ED00E0240100D07F
:1015E00010B50388DA0A1C2A05D15B055B150233A6
:1015F0005B00C01810BD034B034A0448B12101F041
:1016000097FDC046E8A5001088B5001000A60010A0
:1016100010B5091A0B1F0A4A88180A4A904208D8BE
:10162000C90706D45B105B055B0D0748184380B201
:1016300010BD064B064A0748A32101F079FDC046BC
:10164000FC070000FE0F000000E0FFFF40A60010B6
:101650007CB5001000A6001010B5091A04394A081C
:10166000090B08D14905490D064B0B430380064B76
:101670001343438010BD054B054A0648AB2101F0DA
:1016800057FDC04600F0FFFF00F8FFFF70A60010F6
:1016900050B5001000A6001001238340034A1068D3
:1016A0001840431E9841C0B27047C04600E100E0B8
:1016B000002904D0034B1860034B18607047034B9C
:1016C0001860FBE780E200E000E100E080E100E07C
:1016D00010B5012383401800FFF7EAFF10BD00009A
:1016E00001238340014A13607047C04600E200E0D6
:1016F000024B9B6810308000C058704700ED00E03E
:1017000010B5FFF7F5FF002805D0054BC01A2F28AC
:1017100003D8012010BD0020FCE70020FAE7C046F6
:10172000281A002070B504000D00EFF3108672B681
:101730000C4B1B68002BFBD0BFF35F8F2000FFF723
:10174000D7FF094B984201D0A84205D132002900A9
:101750002000FFF731FF70BD044B054A0548862184
:1017600001F0E6FC240100D0CD01001080A600109D
:10177000B0B5001000A60010F0B5DE4657464E4644
:101780004546E0B589B0814601911500EFF3108A16
:1017900072B66D4B1B68002BFBD0BFF35F8F6B4B9A
:1017A00000269E57002E41DB7400A419A40068484F
:1017B00024180622A256654B1A70664B9A684B464F
:1017C00010339B00D35898461F00181A2F2839D978
:1017D000614B984530D105AF604B3B806049730049
:1017E0009B46981980005A4B984640440230FFF7B8
:1017F0000FFF78805B4BBB80FF23BB71FD71019BAA
:10180000079333005B449B00434407CF07C3012386
:101810001C43A046524641464846FFF7CDFE09B05C
:10182000F0BCBB46B246A946A046F0BD4E4B4F4A5F
:101830004F48D72101F07CFC4E4B4C4A4C48DE21EE
:1018400001F076FC01380C2102F054FE002912D17F
:1018500001239F43BB463B000027DA79AA4211D9F6
:101860000621595600290CDB4A00521892003849CB
:101870001F008B18F1E7404B3C4A3D48EA2101F03C
:1018800057FC1F00002F2ED005AB3C4A1A80813A2E
:101890005A800623FB560293002B17DA384805AB13
:1018A0009B469880029A9A71DD71019A0792381DC1
:1018B0002100FFF7ADFEB880BE71254B7200921972
:1018C00092009B185A4613CA13C3A3E7381DFFF7AB
:1018D00087FE01007000801980001D4BC018043085
:1018E000FFF796FEDBE705AF1C4B3B801C497300FE
:1018F00002939B199B00164A90461A004244039299
:10190000901CFFF785FE7880039A101D5946FFF75B
:101910007FFEB8801B4B5A464146521A52415343F0
:101920001B0DBB71FD71019A0792029B9B199B00D5
:10193000434407CF07C3114B5A461380813B538062
:1019400001231C43A04665E7240100D06831002034
:10195000281A002000ED00E0CD01001000A1FFFFDB
:10196000581A002001BDFFFFB8A6001098B500105E
:1019700000A60010E0A6001008A700100148000013
:1019800001BD0000AAAA0000F0B5CE46474680B5CA
:1019900083B006000D00EFF3108872B64F4B1B6842
:1019A000002BFBD0BFF35F8F4D4B9A68340010348F
:1019B000A300D7584B4B9F4207D0AF4200D18BE0DA
:1019C0000197494BFB1A2F2B09D9424639003000A9
:1019D000FFF7F2FD03B0C0BCB946B046F0BD300021
:1019E000FFF75AFE814600213000FFF771FEBFF37A
:1019F0005F8FEFF30581002901D08C4211D10123C3
:101A0000019C9C430020A368AB4212D00622A25640
:101A1000002A0DDB53009B189B00334A2000D4188A
:101A2000F1E7324B324A36213248FF3101F080FB78
:101A30002000AB4249D106256557002D2BDB2A4BF0
:101A40006A00521992009B189A68A260DA79E271D2
:101A50009B795BB2A371002B0FDA2748A080224B41
:101A60006A00521992009B18244A117899711570D6
:101A700049463000FFF72CFEA7E7680040198000B8
:101A8000194BC0180430FFF7ABFD0100231D1800EF
:101A9000FFF7BEFDE2E7002912D100280ED0FF2398
:101AA0008371174B838015490B78A3710E4A154B30
:101AB000A41A644163431B0D0B70D9E7094FF2E789
:101AC0001149201DFFF7C8FDD2E7104B084A6A21D3
:101AD0000848FF3101F02CFB024F76E7240100D0CB
:101AE00000ED00E0CD010010281A00207CA70010B6
:101AF00068B5001000A6001001BD0000683100208C
:101B000001BDFFFFAAAA0000621A0020B0A70010C2
:101B100070B5012202432E4BD31A2F2B28D8EFF396
:101B20000583002B2BD0EFF3108C72B6294909687E
:101B30000029FBD0BFF35F8F254C274905002D1BE3
:101B40006D416943090D4CB2244989689B00C9580D
:101B500091421BD00021032932D81D4B4A00521854
:101B600092009B189B795BB2A3421FD00131F2E730
:101B70001B4B1C4AC7211C48490001F0D9FA1B4BDA
:101B8000184A92211848FF3101F0D2FA134A92689C
:101B90001749D150174B1A7882711C70BFF35F8FB1
:101BA0000C4B00221A608CF3108870BD084B4A0061
:101BB0005518AD005D19FF26AE710F4AAA80E9E7FE
:101BC0000E4B084AD1210848490001F0B1FAC0463D
:101BD000281A0020240100D0AAAA000000ED00E08D
:101BE000B8A7001034B5001000A60010E0A7001040
:101BF000CD0100106831002001BDFFFFECA70010EF
:101C00000022044B02E0044902C30132072AFAD938
:101C10007047C04600E400E08080808010B582B04C
:101C20000100074C074B0093052300222000FFF71B
:101C30006AFC002801DB1F23181A02B010BDC04641
:101C40006D310020F4A70010024B9C4661448900CE
:101C5000016070474000003410B5002B02DB0260C9
:101C6000436010BD024B034A03483F2101F060FA74
:101C700010A80010F0B500102CA8001070B582B0AC
:101C8000060014001D00FA2292000023069800218D
:101C900003F08CFB02000B0012196B41002B09DBD7
:101CA0006846FFF7D9FF009A019B326073603000ED
:101CB00002B070BD01225242004BF1E7FFFFFF7FEF
:101CC00010B582B0040000F07BFD02000B006846F6
:101CD000FFF7C2FF009A019B22606360200002B000
:101CE00010BD30B585B004000D0002A8FFF7E8FF75
:101CF000029A039B00952000FFF7C0FF200005B06B
:101D000030BD10B50400FFF737FC01002000FFF7DD
:101D10009BFFFF232371BFF35F8F10BD10B504003D
:101D2000FFF72AFC01002000FFF78EFFFF2323713D
:101D300000236371BFF35F8F10BD0000034B9C460F
:101D4000614489000160BFF35F8F70474000003439
:101D500010B504000120FFF71DFC01002000FFF773
:101D6000EDFF10BD084B5B6A994209D8064A926A9A
:101D7000824207D2994201D0012002E0002000E017
:101D8000002070470120FCE70040054010B5002905
:101D90000AD003681B7B8B4206D38068054B9C46A8
:101DA00061440901401810BD034B044A04483C211A
:101DB00001F0BEF9FFFFFF0F00A90010D8B6001018
:101DC00024A90010F8B504001700FFF7DFFF06682C
:101DD000456839002000FFF7D9FF026843680120F9
:101DE000AB4201D802D00020C0B2F8BDB242FBD84D
:101DF000F9E7000010B5002B02DB0260436010BD64
:101E0000024B034A03483F2101F092F910A8001049
:101E1000A4B600102CA8001010B582B004000498DD
:101E2000059912184B41002B09DB6846FFF7E2FFCA
:101E3000009A019B22606360200002B010BD012265
:101E40005242014BF1E7C046FFFFFF7F10B500296A
:101E500008D0037B8B4205D300684B005B18033B23
:101E6000C01810BD024B034A0348682101F060F915
:101E70005CA9001080B6001078A9001010B5437B53
:101E80008B4201D1012010BDFFF7E0FF8378002BCA
:101E900001D10020F7E70120F5E770B50400857B4C
:101EA000002D01D1280070BD2900FFF7CFFF437836
:101EB000A373002B00D1E37300238370437003707E
:101EC000F0E70000F8B506000C001500FFF7BEFFB4
:101ED0000700002C0DD0002D11D0AC4215D02900E8
:101EE0003000FFF7B3FF84703B78002B13D13D70B7
:101EF000F8BD0A4B0A4A0B486F2101F019F90A4B49
:101F0000074A0848702101F013F9084B044A0548B4
:101F1000712101F00DF943703D70E9E7C4A900108B
:101F20005CB6001078A90010D0A90010DCA9001040
:101F300070B506000D001400002914D0002A14D03A
:101F4000436880689847002806D0220029003000A6
:101F5000FFF7B8FF280007E02A0021003000FFF754
:101F6000B1FF200000E0100070BD0800FCE7000099
:101F700070B504000D1E0CD0FFF768FF00238370BE
:101F800043700370617B2A002000FFF7D1FF60736C
:101F900070BD034B034A0448A52101F0C9F8C046AF
:101FA000F4A9001070B6001078A9001070B50400F4
:101FB0000D1E0FD0FFF762FF00280BD1E17B002937
:101FC0000ED1A37B002B03D1E37B002B0DD1A57396
:101FD000E57370BD084B094A0948F62101F0A8F8DD
:101FE0002000FFF733FF4570EBE7064B034A044838
:101FF000FB2101F09DF8C046F8A900104CB6001076
:1020000078A900101CAA001010B5002907D0036899
:102010001B7B8B4203D3C0680139401810BD034BB2
:10202000034A0448412101F083F8C04600A900108A
:1020300038B6001024A9001070B505000C00080087
:1020400000F09AFC0949200000F0DAFBFFF794FA4F
:10205000074B9C466044800068602C75D0231B06AB
:102060001B786B75034BA400E55070BD85210010F3
:1020700040000034102F00200A4B1A68EFF3108143
:1020800072B61368002BFCD0BFF35F8F054B1B6843
:10209000BFF35F8F00221A6081F3108840BF0020D9
:1020A000002170473031002010B582B0040000F0EC
:1020B00087FB02000B006846FFF79CFE009A019B1D
:1020C00022606360200002B010BD70B584B00400CF
:1020D00016001D0002A8FFF7E7FF029A039B009677
:1020E00001952000FFF798FE200004B070BD0000AD
:1020F000F0B583B0070001921D000AAB1C780BAB52
:102100001E78002C0BD000682100FFF7B7FE0028D6
:1021100009D0194B194A1A48672101F009F80068DB
:10212000FFF7BBFE0400002C02D1200003B0F0BD7D
:1021300021003800FFF72AFE019B03604560089BE1
:102140008360099BC36038682100FFF711FFA0423C
:10215000EBD1387D019A2B0000F09AFB051E01D0CF
:10216000002E04D00C9B002BDFD01D70DDE73868FB
:10217000210000F047FDF5E730AA00108CB60010F2
:1021800024A90010F0B5DE4657464E464546E0B558
:102190008FB00B900021794B8200D458894683E0A0
:1021A00029002000FFF7F2FD804602684368921B79
:1021B000BB41002B09DD43461A685B680B9800F0B1
:1021C00067FB0023984600268AE0002B01D1002AF5
:1021D000F1D10021584600F00BFD0700A84215D1AF
:1021E00043461A685B680892099343469E68DB6819
:1021F0009846002E10D029002000FFF705FF037835
:1022000099461B021F432761002069E05C4B5D4A31
:102210005D488E2100F08CFF5C4B5A4A5A4892214F
:1022200000F086FF2369002B00D177E0BB4219D173
:1022300006980799002342428B4100920193089A25
:10224000099B0CA8FFF7E8FD0C9A0D9B0021049157
:102250000131039102954146019100962000FFF75C
:1022600047FF16E04A4B474A4748A12100F060FF6C
:10227000069A079B002B01D1002A52D12068290021
:10228000FFF794FE29002000FFF7BEFE037801331C
:102290000370002323616268BFF35F8F13608AF3CA
:1022A00010880120002861D00CA8FFF7FDFE0C9ECD
:1022B0000D9F00220023089209936268EFF3108AB1
:1022C00072B61368002BFCD0BFF35F8F23689B4668
:1022D0005D7B002D00D063E7002398460026002098
:1022E0006368BFF35F8F00221A608AF31088002EA4
:1022F000D8D04B461F022F4341463800B0470690C6
:1023000007916268EFF3108A72B61368002BFCD055
:10231000BFF35F8F079B002B00DA83E7079B002B3F
:10232000A6DD2369002BA9D0BB4219D10CA8FFF769
:10233000BBFE0C9A0D9B06980799009001910CA882
:10234000FFF76AFD0C9A0D9B002104910131039166
:1023500002954146019100962000FFF7C9FE98E7DB
:102360000B4B084A0848A42100F0E2FE0FB0F0BC75
:10237000BB46B246A946A046F0BDC046102F00207D
:1023800058AA0010BCB6001024A9001070AA0010B2
:102390007CAA001010B50C4B5B68002B04D00B48D6
:1023A0000A21FFF751FC10BD074C094A20682300A1
:1023B000102100F088FB032000F0F6F90321200033
:1023C000FFF73AFEEBE7C046701A002030310020DC
:1023D000C51D001010B5064B5B68002B01D00448EA
:1023E00010BD044B044A05485E2100F0A1FEC04622
:1023F000701A0020B8AA001020B6001024A90010FE
:10240000F0B5DE4657464E464546E0B58DB006006F
:1024100090461F00169B9A46179B994618AB1B784F
:102420000793272302AA9446634400221A7021E0EE
:1024300001003000FFF7E8FD00783CE00698002B33
:102440005CD0079B002B59D04946D04704000D00B3
:1024500003000B4359D0002940DB08A8FFF724FEF6
:10246000089A099B0094019508A8FFF7D5FC089BE2
:102470009846099F7268EFF3108B72B61368594241
:102480004B41D9B20691002BF8D1BFF35F8F2733B0
:1024900002AA9446634404930023039302934B4699
:1024A00001935346009342463B003000FFF720FE65
:1024B0000400051EBCD17368BFF35F8F0021196053
:1024C0008BF31088002D17D0272302AA944663446B
:1024D0001B78002BB2D100022043B0E700236242F8
:1024E000AB410092019342463B0008A8FFF794FCE1
:1024F000089B9846099FBDE7012040420DB0F0BC03
:10250000BB46B246A946A046F0BD0698F6E7F0B530
:10251000C64600B584B00500884616001F000AAB09
:102520001C78FFF757FF0294019700962A00434654
:10253000FFF766FF04B080BCB846F0BDF0B5C646F4
:1025400000B505000C1E42D04268EFF3108772B64A
:102550001368002BFCD0BFF35F8FE6B22B68984660
:1025600031001800FFF78AFC00282AD02B69A3420B
:1025700013D0240AE4B231002800FFF745FD0378A8
:10258000A34211D000206B68BFF35F8F00221A6056
:1025900087F3108880BCB846F0BD0E4B0E4A2C2144
:1025A0000E48FF3100F0C4FD3100404600F02AFB28
:1025B0000028E8D10A4B084A99210848490000F050
:1025C000B7FD2B69A342DED100232B61DBE700209E
:1025D000E0E7C046DCAA001008B6001024A90010ED
:1025E00000AB001010B50400FFF7F4FE2100FFF768
:1025F000A5FF10BD407D704730B587B004000D00C9
:10260000EFF30583002B20D106225242D317121973
:102610006B418B4202D803D1824201D900220023B0
:1026200004A8FFF7E7FB02A8FFF73EFD0298039915
:10263000049A059B121A8B41002B0BDC08D020005A
:10264000290000F0C9F807B030BD144800F008FEBA
:10265000002AF4D0124A0498059900230093FFF74A
:1026600056FF002813DAEAE70E4B1A68EFF31081E1
:1026700072B61368002BFCD0BFF35F8F094B1B6849
:10268000BFF35F8F00221A6081F3108820BF049887
:102690000599FFF767FB0028E6D0D0E704AB0010F0
:1026A000792000103031002000B583B002000B000B
:1026B0006846FFF70AFD00980199FFF79DFF03B0F8
:1026C00000BD10B5FA2292000023002102F06EFE38
:1026D000FFF7EAFF10BD000030B583B005000C0025
:1026E000EFF30583002B0FD10B4A00230093FFF774
:1026F0000EFF00280BDD20BFFFF774FF280021002C
:10270000FFF730FB03B030BDFFF72CFBFAE72800E2
:102710002100FFF727FBF5E77920001070B5EFF3F4
:1027200005801038EFF3108C72B6194B1B68002B24
:10273000FBD0BFF35F8F01221300834015494B6329
:1027400015490B60154909780C00C440224213D08A
:10275000104A546A124A8500AA58944205D3114A75
:10276000AA580E4C9943217007E00A4A031D9B00AA
:1027700099589950002200E00022BFF35F8F044B6C
:10278000002119608CF31088002A00D0904770BD9A
:10279000280100D0004005403C7005406C3100200D
:1027A0003C3100204429002010B50100024A034BAF
:1027B0001800FEF78FFE10BD54AB001067310020EB
:1027C000044B5B6A034A906A1900536A9942F9D133
:1027D0007047C04600400540084B5B6A01E0074B6C
:1027E0005B6A8B42FBD301E0044B5B6A8B4203D1F3
:1027F000024B9B6A8342F7D37047C04600400540B6
:1028000070B504000E00EFF3108572B61B4B1B6809
:10281000002BFBD0BFF35F8F002E1CD02000FEF7F3
:1028200067FF174B83420BD019002000FEF77AFF99
:1028300001212000FEF74CFF0123A340114A136041
:10284000114BA400E650BFF35F8F0C4B00221A60BF
:1028500085F3108870BD0C4BA2000021D1500122DD
:10286000A2400A490B7893430B7005492000FFF7FB
:102870008BF800212000FEF72BFFE4E7280100D0B1
:102880001D27001038600540442900206C310020CD
:10289000F0B5DE4600B584B00400150001921E00BC
:1028A0000293FFF78DFF03958E4202D84ED18542E9
:1028B0004CD9EFF3108B72B6274B1B68002BFBD063
:1028C000BFF35F8F254A17780125A540EBB23B4344
:1028D0001370234B5D63221D92000199D150214A50
:1028E000A100029888501B6A2B4212D11C4B1B6C12
:1028F0002B4208D00020BFF35F8F174B00221A60D5
:102900008BF3108823E0184B184A1948C52100F0B2
:102910000FFCFFF755FF8E4214D802D1039B834270
:1029200010D80E4B1B78BB420ED00D4B1D625D6361
:102930001F222240012393400E4A1360074B1F7051
:102940000120D8E70020D6E70120D4E7012004B019
:1029500080BCBB46F0BDC046280100D06C310020D1
:10296000004005403C31002078AB0010E4B6001078
:102970009CAB001080E200E0EFF3108C72B60B4BC2
:102980001B68002BFBD0BFF35F8F01238340084AF5
:10299000136208490A789A430A70BFF35F8F034BAA
:1029A00000221A608CF310887047C046280100D0BE
:1029B000004005406C31002010B5002908D0037B91
:1029C0008B4205D300684B005B18033BC01810BD59
:1029D000024B034A0348682100F0AAFB5CA90010DF
:1029E00040B7001078A90010F8B506000C001500DB
:1029F000FFF7E2FF0700002C0DD0002D11D0AC42F4
:102A000015D029003000FFF7D7FF84703B78002BEA
:102A100013D13D70F8BD0A4B0A4A0B486F2100F0F4
:102A200087FB0A4B074A0848702100F081FB084BDE
:102A3000044A0548712100F07BFB43703D70E9E7D3
:102A4000C4A900102CB7001078A90010D0A900105C
:102A5000DCA9001070B506000D001400002914D088
:102A6000002A14D0436880689847002806D02200C6
:102A700029003000FFF7B8FF280007E02A002100F6
:102A80003000FFF7B1FF200000E0100070BD08002B
:102A9000FCE770B505000023437301338373037BA8
:102AA000C373012406E021002800FFF785FF0134ED
:102AB000E4B24470297BA142F5D82800FFF77CFFDF
:102AC0000023437070BD10B5017342608360FFF74F
:102AD000E0FF10BDF0B5C64600B505000C1E03D1E1
:102AE000200080BCB846F0BDFFF766FF4678002E98
:102AF000F6D031002800FFF75FFF477800239846A3
:102B0000437021002800FFF757FF4346437032000F
:102B100021002800FFF79EFF040039002800FFF77E
:102B2000D9FF020021002800FFF794FF0400D7E737
:102B3000F0B5C64600B504000D001700002927D0E7
:102B4000FFF73AFF4378002B28D18378002B2BD155
:102B500001782000FFF7BEFF06008046002F0AD054
:102B6000E17B002926D1A37B002B03D1E37B002B43
:102B700025D1A573E5734346002B26D129002000FB
:102B8000FFF71AFF00234370300080BCB846F0BD49
:102B9000114B124A1248382100F0CAFA114B0F4A61
:102BA0000F483A2100F0C4FA0F4B0C4A0C483B2165
:102BB00000F0BEFA2000FFF7FFFE4570D3E70B4B95
:102BC000064A0748422100F0B3FA31002000FFF71F
:102BD000F3FE00238370D1E7E0AB001018B70010BC
:102BE000E8AB001020AC001048AC00101CAA00108C
:102BF00070B504000A00457B2900FFF799FF607358
:102C0000280070BD70B506000C1E40D0437B8B427F
:102C100007D0FFF7D1FE05008178002906D10020FA
:102C200036E00121FFF7E4FF012031E03000FFF73B
:102C3000C3FE0178A1420DD03000FFF7BDFE417800
:102C4000A1420AD00029F7D1124B134A13486B3125
:102C500000F06EFA6B78037001E06B78437000232C
:102C6000AB706B70012221003000FFF761FF0200A2
:102C7000717B814205D03000FFF7ECFE70730120BC
:102C800006E0074B044A0548712100F051FA002084
:102C900070BDC046ECA7001000B70010E8AB0010F4
:102CA0006CAC0010F8B5DE4657464E464546E0B5DA
:102CB00006000F0015000A9A934250D31A0E92464E
:102CC0001B0298460A9A00234046514601F050FCE8
:102CD00081467400A419A4002F4B9C466444636889
:102CE000834200D26060331FDBB29B46012B3CD98C
:102CF000C0239B012343802212011A60274BB2009C
:102D0000D158002907D0586901F0F4FB0130430085
:102D10001B18033BFDD26D0123685D40E0222A4071
:102D200080235B0123431A605A46012A28D9802355
:102D30009B012343802212011A604B4663604A467E
:102D400000234046514601F013FC144BB600985145
:102D50000120F0BCBB46B246A946A046F8BD104BC8
:102D6000104A1148332100F0E3F9012FC0D1C023EC
:102D70009B01234303221A60A368DB07FCD5CAE743
:102D80002168794003220A401A60A3680125BD40EA
:102D90001D42FAD0CBE7C04600800040602A0020E8
:102DA0008CAC00104CB70010A0AC001030B583B054
:102DB0000C2000F011F9FEF76DFB00280DD0002368
:102DC00004E02E4A99002E4888500133092BF8D987
:102DD0002A4B2C4A5A6203B030BD2B4B00229A6713
:102DE00000F06CF9294B01221A60274B5B6C012B18
:102DF000FBD1274B03221A60234B9B6B012BFBD18A
:102E0000013300930433234A0121234800F054F88E
:102E100005230093214A0121214800F04DF8214B60
:102E20000093002202210420FFF73CFF1E4D009575
:102E30002B00002201210520FFF734FF104C0094E5
:102E40002300002200210720FFF72CFF009423001D
:102E5000002200210820FFF725FF0A4B00932300E2
:102E6000002200210920FFF71DFF00952B00002202
:102E700000210620FFF716FFADE7C046602A0020BC
:102E8000006CDC021BB70000008000403CB000403A
:102E900030B00040002F685900800240008C864707
:102EA00000C00240001BB70040597307014B80006F
:102EB000C0587047602A0020F0B5C64600B504002F
:102EC0000E0017001D00374801F014FB8046364BFA
:102ED000FA18364B9A4239D80100380001F00AFB43
:102EE0000200103A98235B009A4235D86B1E062BDD
:102EF00038D8069B013B062B34D83F09474537D3CA
:102F00002D04069B1B031D432368002B36DB284B37
:102F10009C4244D080235B01264A1360264A1360FA
:102F2000264A926819009143FAD12660A060221DBA
:102F3000C0239B01134321221A602268002AFCDA75
:102F4000E56008221A6080BCB846F0BD1C4B1D4AE3
:102F50001D48112100F0ECF81C4B1A4A1A4819219F
:102F600000F0E6F81A4B174A17481C2100F0E0F869
:102F7000184B144A1448232100F0DAF822683F2342
:102F80001340B342C3D1A3681B051B0D8342BED1BE
:102F9000E368EE22D2021340AB42B8D1D3E78023DC
:102FA0009B01B9E7001BB70080E84BD380F8A9323A
:102FB00000C0024000E0004000F0004000C00040BF
:102FC000E4AC00105CB7001044AD001084AD0010FC
:102FD000A0AD0010ECAD001080239B000343014A1C
:102FE000D362704700800540024B1A68024B5A605A
:102FF0007047C046002F00200080054010B5174BD9
:103000008022D2051A60164B164A1A6000290AD08F
:10301000154BE022D2041A60002809D1124B8022FD
:1030200012061A6010BD0D4BE022D2041A60F3E7BD
:1030300043011B1A9B00181800010C4B18608023D9
:103040005B04984202D3094B094A1A60FFF7CCFF90
:10305000054B8022D2051A60E4E7C04600B0054067
:1030600008200140FCFF010000A00540002F0020C7
:10307000FFFFFF0010B5030010000C4A8024E40598
:103080001460002B0DD001221343094A094CD4616E
:10309000094C5C401462516293620021FFF7AEFF5D
:1030A00010BD034B0022DA61F7E7C04600B00540CF
:1030B00000800540D3C007B02D3FF84F064BAA2231
:1030C00012011A602F22DA60044B054A1A60024B83
:1030D0005B68002BFBDA7047004002400060024052
:1030E00000B0FA0000BEFDE703000A4A1268002A99
:1030F00008D0084A1068C318074A9A4206D3054AFE
:1031000013607047034A05491160F2E7012040420D
:10311000F7E7C046FC2A00200000042070310020A0
:103120000020704701204042704710B5FFF7DAFFDA
:1031300030B583B00D001900002A0BD0074B084CA6
:10314000019200932B000200200002F0F7FB012007
:10315000FFF7C8FF034B1A00F1E7C04608AE0010A6
:1031600018AE001084A5001070B52B4B2B4A1A60C6
:103170002B4B2C4A1A602C4B9A682A4B9343FAD15A
:103180002A4C01E008CC9847294B9C42FAD3FFF720
:103190000DFE234B274A1A60234B9B68DB43DB0160
:1031A000FAD1254B40229A675A671A67DA66234C90
:1031B00009E0234B234A24488721FFF7B9FF200069
:1031C000FEF79FFD0834214B9C4209D22368002B57
:1031D000F5D0012BEDD12000FEF7A0FD0834F2E779
:1031E0001B4DA9681B4CC022200002F00BFAAC60FA
:1031F000EFF30583002B00D000BEFEF7ADF9FEF71C
:10320000FFFCFFF7C7F8144C01E008CC9847134BBC
:103210009C42FAD370BDC04600E00040BFCDFBFE2B
:1032200000F00040FE7F3C0000C00040582300201A
:1032300068230020FFFFFF0100F001405023002021
:1032400048AE001068B7001068AE00105823002088
:1032500000ED00E00000002068230020782300201B
:103260000FB400B583B0084802F038FB049B002B74
:1032700007D005A90191180002F040FB034802F0B5
:103280002DFB0120FFF72EFFACAE001098A500101B
:10329000704710B5002802D00B684968984710BDE8
:1032A0000100002007E083001B185B00501C086031
:1032B0001078C01830380A681378303BDBB2092B1D
:1032C000F1D97047F0B5DE4657464E464546E0B563
:1032D00083B093461F000C9B9A460D9C0E9B99460B
:1032E0000F9B9B0703D0B8460F00060022E0019217
:1032F000A34688464E46B9460700B44207D2551C3D
:103300004B4641462020B84701342A00F5E73D00EE
:103310004F465C46019B9B46B1464646B846370041
:103320002E0007E0013C551C5346185D434639000A
:10333000B0472A00002CF5D135003E0047460F9BD0
:103340009B0707D4100003B0F0BCBB46B246A946A9
:10335000A046F0BDB0464E46B9462F005D46531B11
:10336000B342EFD2541C4B4641462020B8472200BE
:10337000F5E7F0B5CE46474680B585B09446984609
:103380000C9D0D9C0EAB1B789946109A119B129EBA
:10339000B7071CD4002B0CD0F7070AD54F46002FD7
:1033A00002D10C37374204D0013B02E030272F55C1
:1033B0000134944201D21F2CF8D9F70707D59C425B
:1033C00005D21F2C03D830272F550134F5E7F70617
:1033D00012D5770505D4002C03D0944221D09C420D
:1033E0001FD00F9A102A32D00F9A022A37D01F2CE2
:1033F0000AD830222A5501341F2C05D84A46002A03
:1034000033D02D222A55013403960293019400955E
:1034100043466246FFF756FF05B0C0BCB946B0460A
:10342000F0BD621E012C10D00F9F102F0BD0140086
:103430000F9A102AD8D1B206D6D51F2CD4D858222C
:103440002A550134D3E7023CCBE71400C9E7B206A2
:10345000EED41F2CECD878222A550134C7E71F2C54
:10346000D2D860322A550134C1E7720703D52B2226
:103470002A550134C8E73207C6D520222A5501341F
:10348000C2E7F0B5DE4657464E464546E0B593B036
:1034900081468A46089209931CAB10CB1B789B4649
:1034A0001E9D219B9846002C03D1102342469A432F
:1034B00090468023DB0046461E4042461A4212D008
:1034C000002C22D000260EE03033D9B2771C0AAB94
:1034D00099552900200001F00DF8AC4216D31F2F9A
:1034E00014D83E0004002900200001F003F8CBB2FC
:1034F000092BE9D94246920605D54121C918C9B21E
:103500000A39C9B2E2E76121F8E72700434606938A
:10351000209B05931F9B049303955B4602930197A1
:103520000AAB0093099B089A51464846FFF721FFD2
:1035300013B0F0BCBB46B246A946A046F0BDF0B5FC
:10354000DE4657464E464546E0B597B00A900B9189
:103550000C929A46209B9946219F22AA13789B465B
:10356000249B0993259C289B98464A463A4302D1BE
:103570001032934398468022D20045461540434678
:1035800013420AD04A463A4341D000252E00534602
:103590000D934D46099B9A461BE02E0053460D9312
:1035A0004D46099B9A4614E03033DAB2731C9946B3
:1035B0000EAB9A55524623002800390000F0D8FF80
:1035C000BC4226D819D04B461F2B1CD84E460500AE
:1035D0000F00524623002800390000F0C9FFD3B283
:1035E000092BE1D94246920605D54122D218D2B222
:1035F0000A3AD2B2DAE76122F8E7AA45E3D94E46A1
:103600000D9B9A4608E04E460D9B9A4604E0002624
:1036100002E04E460D9B9A4643460693279B059330
:10362000269B0493099B03935B46029301960EAB82
:10363000009353460C9A0B990A98FFF79AFE17B01D
:10364000F0BCBB46B246A946A046F0BDF0B5DE468A
:1036500057464E464546E0B591B0804689460C92A5
:103660009A461A9C1B9D22002B002000290001F085
:1036700002FA002800D0ECE001225242D44B200094
:10368000290001F0F3F9002800D0E2E001225242C3
:10369000D04B2000290001F0D3F9002800D0D8E059
:1036A000002200232000290001F0CAF9002800D0E0
:1036B000E4E0069407958023DB001E9A1A400D92E1
:1036C0001E9A1A4201D106231C93069807990200FC
:1036D0000B000892099303000A00024300D1D9E0CD
:1036E000080D4005400DBC4EB44660440A03120B61
:1036F0001E00BA4B13431F0001F0D0F9B84AB94B72
:1037000001F057F9B84AB94B01F034F90890099122
:103710000022B74B3000390001F027F9B54AB64B0B
:1037200001F047F902000B000898099901F022F90D
:1037300001F0CCF9834601F0B1F906000F00AF4A61
:10374000AF4B01F036F90022AE4B01F013F901F056
:10375000BDF90890AC4AAD4B3000390001F029F9B1
:1037600006000F00089801F099F9A94AA94B01F049
:1037700020F902000B003000390001F0F6F80600D5
:103780000F0002000B0001F014F90A900B91089B46
:10379000A14A9446634400210022089109921B0526
:1037A00009930023089332003B003000390001F0F8
:1037B000E1F80E900F9132003B0000208021C905F6
:1037C00001F0D3F806000F000022944B0A980B99E1
:1037D00001F0D5F80022924B01F0CCF802000B006A
:1037E0000A980B9901F0CBF800228E4B01F0C2F839
:1037F00002000B000A980B9901F0C1F802000B00BF
:103800003000390001F0B6F802000B000E980F9955
:1038100001F0B5F80022714B01F0ACF8089A099B51
:1038200001F0C7F806000F0008960997069A079B53
:1038300001F01CF900282FD001235B429C46E34491
:103840000022774B3000390001F099F80890099177
:1038500022E01E9B04931D9B03931C9B02930094E8
:10386000019553460C9A4946404600F0FFF811B0C6
:10387000F0BCBB46B246A946A046F0BD00210022DE
:1038800006910792069480231B069C46AC4463462F
:10389000079310E700239B465B466333C62B20D873
:1038A00004261E9B1B0528D5089A099B1900114365
:1038B0000FD05D4A5D4B0698079901F0CFF80028BC
:1038C0007AD000225A4B0698079901F0B9F80028DF
:1038D00072D01C9B5B4506DD5A469B1A013B1C932C
:1038E00003E00526DDE700231C938023DB001E9AFE
:1038F0001A431E92002600239B461D9B9E4265D2C2
:103900009F1B02231E9A1A400A921E9A134202D04B
:10391000002E00D000275B46002B07D0089A099B99
:103920000698079901F02BF80690079100220023D2
:103930002000290001F084F8002800D07CE03D4BF5
:103940001E9A1340049303971C9B0293069B079CAB
:103950000093019453460C9A4946404600F086F87D
:10396000002E00D183E71E9B9B0671D54525441C84
:103970005346020049462800C0475A46D317D2187A
:103980005A4005230593013E0496002303930A330E
:1039900002935B46DB0F0193009253462200494697
:1039A0004046FFF76EFD0A9B002B00D15FE7020047
:1039B00047460C9E1D9D53E01C9B002B9DD00D9BEC
:1039C000002B9AD01C9B013B1C9396E7002798E79D
:1039D000FFFFEF7FFFFFEFFF01FCFFFF0000F03F65
:1039E000FB799F501344D33FB3C8608B288AC63FEE
:1039F0000000F83F61436F63A787D23F71A3790945
:103A00004F930A400000E03F1655B5BBB16B024032
:103A1000EF39FAFE422EE63FFF03000000002C4083
:103A200000002440000018402D431CEBE2361A3FF2
:103A300080842E41FFF7FFFF069C079D220029008E
:103A400080200006844661440B000692079376E7C7
:103A500065258CE7541C534649462020B847220070
:103A6000931BAB42F6D3100001E7C046F0B5DE462B
:103A700057464E464546E0B595B0069007919346A9
:103A80009946209F1E9A1F9B1000190000F0F3FF1B
:103A9000002831D101225242BF4B1E981F9900F0DD
:103AA000CFFF002837D101225242BC4B1E981F99EC
:103AB00000F0DCFF00283DD10022B94B1E981F9971
:103AC00000F0D4FF002850D10022B64B1E981F9959
:103AD00000F0B6FF002848D1002200231E981F994D
:103AE00000F0AEFF002850D100239846229B5B05D2
:103AF00000D4B6E0002458E0229B0393219B02935C
:103B000003230193A84B00934B465A460799069806
:103B1000FFF7D8FB0EE1229B0393219B0293042322
:103B20000193A24B00934B465A4607990698FFF71C
:103B3000C9FBFFE00423229A1A4022990B4210D0BD
:103B40009B4B002A0FD004222299039121990291C4
:103B5000019200934B465A4607990698FFF7B2FB2D
:103B6000E8E0944BEDE70322EEE7229B0493219BD0
:103B7000039302971E9B1F9C009301944B465A4649
:103B800007990698FFF762FDD4E01E9A1F9B00205C
:103B9000002100F0EAFE1E901F9101239846A5E740
:103BA0000CAB30221A55013F01341F2C01D8092FCC
:103BB000F6D81E981F9900F089FF050000F06EFFEF
:103BC00002000B001E981F9900F0CFFE7A4BFA00FE
:103BD0009B181A685B680A920B9300F0EAFE089043
:103BE000099100F097FF060000F054FF02000B005F
:103BF0000898099900F0B9FE0890099100226F4BCE
:103C000000F034FF00282ED00136300000F042FFD3
:103C100002000B000A980B9900F018FF002801D051
:103C200001350026002F2CD1280000F037FF0200BC
:103C30000B001E981F9900F098FE06000F0000224E
:103C40005E4B00F0FDFE002846D100225B4B3000A9
:103C5000390000F00BFF00283ED1EB073CD50135C1
:103C60003AE0062746E70022544B0898099900F0ED
:103C7000E7FE0028D6D1002E01D0F307D2D50136B9
:103C8000D0E7AA461F2C11D8013F0A21300000F0CE
:103C900031FC651C30310CAB19550A21300000F0A5
:103CA00029FC092E0ED906002C00EBE755461F2CE7
:103CB0000CD87B1E002F09D00CAA302111551F00F3
:103CC0000134F4E72B0055461C00F0E71F2C03D805
:103CD0000CAB2E221A5501341F2C10D80A212800B3
:103CE00000F0E0FB661C30310CAB19550A212800AE
:103CF00000F0D8FB051E01D03400EDE734000323AB
:103D0000229A1340012B1CD01F2C06D84346002BAF
:103D100032D00CAB2D221A550134229B0393219BE8
:103D2000029301940CAB00934B465A4607990698B0
:103D3000FFF7C8FA15B0F0BCBB46B246A946A0468C
:103D4000F0BD219B002B13D04346002B02D10C3336
:103D500013420FD0219B013B2193190003E00CABD0
:103D600030221A5501348C42CED21F2CF7D9CBE722
:103D70002199F8E72199F6E7229B5B0704D50CAB64
:103D80002B221A550134C8E7229B1B07C5D50CAB63
:103D900020221A550134C0E7FFFFEFFFFFFFEF7F3E
:103DA00065CDCD4165CDCDC1C8AE0010CCAE001003
:103DB000BCAE0010C4AE001018B900100000E03F07
:103DC000F0B5DE4657464E464546E0B593B08246CE
:103DD000884693461193002900D106E300255646F4
:103DE000119B1878002800D102E3252809D06C1C0B
:103DF0005B462A004146B047119B013311932500D1
:103E0000EEE701331193002720E001231F43013225
:103E10001192012418E002231F4301321192012460
:103E200012E004231F430132119201240CE0082305
:103E30001F4301321192012406E010231F43013277
:103E40001192012400E00024002C09D0119A13786B
:103E5000203BD9B21029F6D88B00C449CB589F46D5
:103E6000119B1A781300303BDBB2092B10D92A2A98
:103E700013D00B94119B1A782E2A1ED0119A137806
:103E8000683BD9B2122959D88B00B949CB589F4603
:103E900011A8FFF705FA0B90ECE71C9B1A1D1C926A
:103EA0001B68002B04DB0B93119B01331193E1E79B
:103EB000022217435B420B93F6E78022D20017439E
:103EC0005A1C11925A781300303BDBB2092B0BD9E4
:103ED0002A2AD3D11C9B1A1D1C921C68002C08DBBB
:103EE000119B01331193C9E711A8FFF7D9F9040019
:103EF000C4E70024F4E780235B003B43511C11918D
:103F000051786C2901D01F0018E0C0239B001F438B
:103F10000232119212E080233B43511C11915178DF
:103F2000682901D01F0009E0C0231F43023211920B
:103F300004E080235B001F4301321192119B18782B
:103F4000672816D8252826D30300253BDAB2422A53
:103F500021D89300874AD3589F4680239B001F4354
:103F600001321192EAE780235B001F430132119274
:103F7000E4E778280FD869280DD30200693AD2B255
:103F8000012393407C4A13420FD11A0600D507E261
:103F90005B0500D594E16C1C5B462A004146B047A6
:103FA000119B0133119325001AE778280AD0622863
:103FB0003AD06F283BD058283CD010239F43063B73
:103FC0009C4601E010239C46582836D0692803D02F
:103FD000642801D00C2297437A0501D5012297432A
:103FE00069282DD064282BD0BA0500D5A2E0FA05A7
:103FF00000D5C3E07A0600D4D5E01C9A111D1C91AF
:104000001168FF220A4005970B9B049303946346B3
:1040100002930023019300925B462A004146300040
:10402000FFF72FFA05002AE002239C46CCE708237D
:104030009C46C9E710239C46C6E720221743C5E7E4
:10404000BA0520D4FA0550D47A0666D51C9A111DFB
:104050001C911168FF220A40D017111841400597A2
:104060000B9B0493039463460293D20F0192009139
:104070005B462A0041463000FFF703FA0500119B1A
:1040800001331193ACE61C9A073207218A431100D1
:1040900008311C91116853689946DB170C930D93F6
:1040A0000C9A0D9B100048400E904A4653400F93C7
:1040B0000E980F990C9A0D9B801A99410E900F91B2
:1040C00008970B9B0793069463460493002305937C
:1040D0004B46DA0F0292009001915B462A0041465E
:1040E0003000FFF72CFA0500C9E71C9A111D1C913E
:1040F0001268D0171118414005970B9B0493039445
:1041000063460293D20F019200915B462A0041461A
:104110003000FFF7B6F90500B1E73A0605D51C9A5D
:10412000111D1C910023D25E96E71C9A111D1C9153
:10413000126891E71C9A073207218A43110008315F
:104140001C9108970B9B07930694634604930023E6
:104150000593029353681268009201935B462A000C
:1041600041463000FFF7EBF9050088E778B700100B
:10417000BCB7001008B80010419000001C9A111D37
:104180001C9105970B9B04930394634602930023B1
:104190000193136800935B462A0041463000FFF705
:1041A00070F905006BE73A0606D51C9A111D1C91A3
:1041B00012681204120C26E71C9A111D1C91126839
:1041C00021E7462819D01C9B0733072293431A0086
:1041D00008321C9204970B9A039202941A685B6847
:1041E000009201935B462A0041463000FFF73EFCF7
:1041F0000500119B01331193F2E520231F43E2E7F1
:10420000672801D0472802D180231B011F4345287E
:1042100001D0472801D120231F431C9B07330722CD
:1042200093431A0008321C9204970B9A039202944B
:104230001A685B68009201935B462A004146300091
:10424000FFF704FA0500119B01331193C8E502231F
:104250001A003A4091463B421DD001241C9B1A1D76
:104260001C926F1C18785B462A004146B0474B46AB
:10427000002B14D1119B013311933D00B0E5571C65
:104280005B4641462020B04723003A005C1C9D421B
:10429000F5D81500E2E701232A000B9DF6E73A0066
:1042A000B1460B9E06E0571C5B4641462020C8479E
:1042B0002C003A00651CA642F5D817004E46D9E7F7
:1042C0001C9B1A1D1C921B689A46002C25D10122AA
:1042D0005242534601E001330A001978002902D006
:1042E000511E002AF7D152469B1A8022D200390073
:1042F00011408946174202D0A34200D9230002226E
:104300001100394010913A4209D02A002500574641
:104310009A4633004E46994621E02200D9E72A000A
:104320004546A04606E0541C5B4629002020B047C5
:104330003B0022005F1C0B999942F4D84446A846E2
:104340003B00250057469A4633004E46994606E004
:104350001D000137541C5B464146C847220038788F
:10436000002804D0002EF4D06B1E002DF0D11500D3
:1043700053464E46109A002A03D1119B01331193E4
:104380002EE50B9F2A0006E0551C5B464146202087
:10439000B04723002A005C1C9F42F5D81500ECE7CB
:1043A00021233B431C9A111D1C911268059308237D
:1043B00004930394083302930023019300925B4615
:1043C0002A0041463000FFF75CF80500119B0133DD
:1043D000119305E56C1C5B462A0041462520B04739
:1043E000119B013311932500FAE40B4B9A46F5E437
:1043F000B2465D450DD35B465A1E5B4641460020E2
:10440000D047280013B0F0BCBB46B246A946A04630
:10441000F0BD2A00F1E7C0469132001000B585B02A
:104420000290039101210448009313004A4202A91B
:10443000FFF7C6FC05B000BD93320010014804210F
:10444000014B1847A01A00206D44001010B5010060
:1044500018231B8814221088984710BD10B501003E
:1044600018231B8816221088984710BDF0B5C64641
:1044700000B507000E0000250123984600E0013535
:10448000B5420AD2AC003C192068FFF7DFFF20607C
:104490000028F4D100239846F1E7404680BCB84696
:1044A000F0BD0000124A936F9B0815D29066D1664A
:1044B000002905D0FFE7FFE7FFE7516F106F704756
:1044C00004B580210906C2175140002800D0C84316
:1044D00005F072FF002104BDF0B5146E556E576FE4
:1044E000166FFFF7E3FF1466556657671667F0BD52
:1044F000000000D0114A936F9B0813D210665166DA
:10450000002905D0FFE7FFE7FFE7516F106F704705
:1045100004B5002801D00020C04305F04DFF002164
:1045200004BDC046F0B5146E556E576F166FFFF799
:10453000E5FF1466556657671667F0BD000000D0AA
:1045400094464A4A926F9208624601D228E0C046D9
:10455000F0B5464E346E756E776F366F00F020F80A
:104560009446424A14665566576716676246F0BD20
:1045700094463E4A926F9208624601D254E0C04689
:10458000F0B53A4E346E756E776F366F00F04CF8BA
:104590009446364A14665566576716676246F0BDFC
:1045A000002B24DB11D000293EDA00B5C94340427C
:1045B00000D1013100F038F8C943404200D1013147
:1045C000DB43524200D1013300BD002AEBD1002869
:1045D00001D1002905D00020C90FC90701D1C0436E
:1045E000410800B505F0C0FE0022002300BD00B563
:1045F00000290ADBDB43524200D1013300F014F8FA
:10460000C943404200D1013100BDC943404200D1FD
:104610000131DB43524200D1013300F005F8DB43A6
:10462000524200D1013300BD002923D1002B18D103
:10463000002A0CD0BC460D4F38667A660021002354
:10464000FFE7FFE7FFE77A6F386F6746704700289C
:1046500001D00748010000B505F086FE00220023C6
:1046600000BD02000B00002000217047000000D0B8
:10467000FFFFFFFF002B00D0BFE0130C28D1002A62
:10468000E7D080B4114F39667A66FFE7FFE730B4B0
:10469000040C7B6F396F1B0423433B667A66FFE78C
:1046A000FFE7FFE7C04684B27B6F3D6F1B042343E7
:1046B0003B667A66FFE7FFE7C04600232C042D0C1B
:1046C0007A6F386F00196941B0BC7047000000D0A4
:1046D000F0B594460025140E01D112020835140FCE
:1046E00001D112010435940F01D192000235D40F8B
:1046F00001D152000135D40B0134254F7C66254C85
:104700003C660E0C93B2FFE7FFE7FFE73C6F6643A2
:10471000360C7703BE467343DF0B5B04C01AB94106
:10472000130C7343DB18C91ACE086643360CB64423
:1047300093B273431F0F1B01C01AB941130C73438B
:104740001F0B1B05C01AB941860D8F023E436643FD
:10475000360C092D24DB520A7243801A7703460A6D
:104760006643360C16235B1BDE40DF40BF196446F0
:104770006643821B7046043506330100D940A840C9
:10478000C01900D30131A24206D20023F0BD0000BF
:10479000000000D0FFFFFFFF121B0130F3D3F1E751
:1047A00009277F1BFE406446A2B27243801A00D2E2
:1047B0000139220C7243130C1204821A99410B0026
:1047C0007046043513370100F940A840801900D322
:1047D0000131002B02D1A2420AD2F0BD013000D338
:1047E0000131121BFAD2013BF8D1A24200D2F0BD36
:1047F000013000D30131121BF7E7F0B51C0C00D0DB
:1048000080E00CB400251C0A04D11B02160E3343B1
:10481000120208351C0B04D11B01160F3343120181
:1048200004359C0B04D19B00960F33439200023554
:10483000DC0B02D192185B4101351C0097186441D2
:104840000134464F7C66464C3C660E0CFFE7FFE7A2
:10485000FFE7C0463C6F6643360C7703BE4697B20F
:104860007743C01B00D20139C01B00D201399FB26F
:104870007743C91BC91B170C77437E04FF0B801BB2
:10488000B941CE086643360C0C2D33DBB644120B0F
:104890001F053A431B0B97B27743C01B00D2013967
:1048A0009FB27743C91B170C77433E043F0C801B14
:1048B000B941860D8F023E43664329277F1BFE4088
:1048C0000C3D7746AF40BF1930BCA2B2ABB27243C9
:1048D0007343801A9941220C7243130C1204801AFC
:1048E000994102000B000137001BA941F9D2781E43
:1048F0000021F0BD0C277F1BFE4077467F0BAF40A9
:10490000FF19E0E700245D1C07D0144F7D6639666F
:10491000FFE7FFE7FFE7FFE73C6F95B29EB2654315
:104920006643401BB141150C1E0C654366433604BB
:104930002F0C3E432D04401BB141994204D202008A
:104940000B0020000021F0BD01D19042F7D3801A66
:10495000994101349942F2D3F6E70000000000D0FB
:10496000FFFFFFFF48404140484018B4134B5B68CD
:10497000019308BD18B4114B1B68019308BD944600
:104980000F4A926F920805D2624618B40B4BDB684F
:10499000019308BD0A4AF0B5146E556E576F166F35
:1049A0006246FFF7F2FF064A1466556657671667B8
:1049B000F0BD18B4014B9B68019308BD2C2F00205B
:1049C000000000D0FFB550404240504059404B409D
:1049D000594000E0FFB5154F4C00640D03D0BC42B8
:1049E00004D10C0314D80020090D09055C00640DE6
:1049F00003D0BC4204D11C030AD800221B0D1B05A6
:104A000001264B4009D44B4003D58B4200D1824252
:104A1000FFBD9942FCD19042FFBD0B43DB1803431D
:104A20001343F5D0C9434918FFBD0000FF0700003C
:104A300000B5FFF7CFFF01D0002000BD012000BD71
:104A400000B5FFF7C7FF804100BDC04600B5FFF7C6
:104A5000C1FF01D9002000BD012000BD00B5FFF756
:104A6000B1FF01D9002000BD012000BD00B5FFF756
:104A7000A9FF804100BD012040054A00121804D85A
:104A80005A00121801D800207047012070470020FA
:104A9000704700000021002805D17047C117484029
:104AA000401AFAD0C90713B5064B1B6898470CBCCF
:104AB000441CA2401005120B0349091B09051943A8
:104AC000114310BD2C3000201F04000010B54C0015
:104AD000620D8023D218DB00D21A5B057E2A10DD1E
:104AE0009E3A13DACC170903490819435242D140C0
:104AF000640001341532202A05DAD04008436043AF
:104B000010BD002010BD0846604310BDC80FC0187E
:104B1000013810BD18B4024B5B6A019308BD000058
:104B20002C2F002018B4024BDB6F019308BD00004E
:104B30002C2F002018B4024B9B69019308BD000084
:104B40002C2F002018B4024B9B6D019308BD000070
:104B50002C2F002018B4024BDB6C019308BD000021
:104B60002C2F002018B4024B1B6D019308BD0000D0
:104B70002C2F002010B50148FEF772FBD4AE0010B8
:104B800070B513231C78012C12D0012C12DC214BA0
:104B9000214A93642148FFF759FC214B186070BDEE
:104BA00020491D4A9800815001331F2BF8D9ECE7AA
:104BB0000023FAE71C48FFF751FC05001B48FFF7EC
:104BC0004DFC023803789B007F2B09DD12488022C0
:104BD000290000F017FD022C08D0022CDADCD6E701
:104BE000134B144A14483221FEF7A2FA134B1A88C9
:104BF000B5231B029A4209D1114B1A88114B9A42D4
:104C000004D1114B1A88114B9A42E6D00020FEF7CE
:104C100027FBC046795300102C2F00204C33000096
:104C20002C300020754B0010534400005346000008
:104C3000ECAE001068B9001040AF0010543800000E
:104C4000D8380000494600009C3800005946000052
:104C500030B50B0D5B055C0D002B14D00D4B9C4249
:104C600011D01419002C09DD0B4B9C420CDDC90F2F
:104C7000C907002409480843050002E00024C90FC1
:104C8000CD072000290030BD0024150524184D4112
:104C9000F7E7C046FF070000FE0700000000F07FB6
:104CA00030B50B0D5B055A0D002B1FD0134BD218DE
:104CB0001ED434239B1A002B1CDD1C00203C0CD47A
:104CC00001225242A240012464429C400300A343BB
:104CD00091430B4310D1012009E02024E41A012262
:104CE00052421500E5409A402A43ECE7012030BDCE
:104CF0000020FCE70120FAE70020F8E701FCFFFFB5
:104D000030B50B0D5B055B0D1B4A9B182CD4342270
:104D1000D31A2BD41C00203C16D4353AA2400124CF
:104D200064429C400500A5432C000D0095432A00D9
:104D300022431DD1342B1DD01A00203A0DD4080077
:104D4000D0400123184030BD2024E41A01225242F1
:104D50001500E5409A402A43E1E72022D21A0C00D0
:104D60009440D8402043ECE70020ECE70020EAE73D
:104D70000020E8E70120E6E701FCFFFF02000B004E
:104D8000090D4905480D002907D00549884205D07D
:104D90001803000B10434342584170470020FCE7C2
:104DA000FF07000070B504000D001600012A0ED0A8
:104DB000D20F92195210FFF7F5FF02000B00FFF718
:104DC000F8FDF60703D522002B00FFF7F2FD70BDBA
:104DD00010B5141E03DB2200FFF7E4FF10BD020034
:104DE0000B0000200249FFF7CAFD6442F3E7C0460A
:104DF0000000F03FF0B5D6464F464646C0B588B0F5
:104E000014001D000E0D7605760D674BF718674AE6
:104E1000921BFFF71DFFFFF7A5FE654A654BFFF7E5
:104E2000AEFD0022644B00900191FFF71FFE0028A9
:104E300009D00022614B00980199FFF796FD009080
:104E400001915F4BF718002F11D000225D4B20001D
:104E50002900FFF703FE002815D0002F10DB0020EB
:104E6000594908B0E0BCBA46B146A846F0BD220098
:104E70002B0000980199FFF79CFD00F085F9F0E701
:104E800000200021EDE70022504B20002900FFF711
:104E9000DDFD002807D0002F02DB00200021E0E725
:104EA00000204949DDE72000290000F001F90490C5
:104EB000059102000B0020002900FFF756FD0300BA
:104EC0000C001A220293039400F0EEF800F0F0F8C0
:104ED0001A225242FFF7BCFE04000D0002000B0034
:104EE00002980399FFF741FD0690079104980599F0
:104EF000FFF7ECFD8146010079438A463800FFF751
:104F0000CDFD22002B0004900591FFF752FD060015
:104F10000F0000F0CDF804000D00FFF7D7FD80462C
:104F2000D04422002B0030003900FFF71EFD0400A2
:104F30000D00069A079B04980599FFF73AFD0200B9
:104F40000B0020002900FFF715FD0490059148464D
:104F5000FFF7A4FD009A019BFFF72BFD04000D0055
:104F600000F0A6F806000F00FFF7B0FD8044320005
:104F70003B0020002900FFF7F8FC049A059BFFF78F
:104F8000F9FC04000D00029A039B00980199FFF7B9
:104F900010FD22002B00FFF7EDFC00F0F5F8424673
:104FA000FFF756FE5DE7C04601FCFFFFFF03000070
:104FB000EF39FAFE422EE63F0000E03F0000F03FEE
:104FC00002FCFFFF0000B0400000F07F0000B0C016
:104FD000F0B5C64600B582B004000D0016001F00F3
:104FE000019000291DDA10001900FFF789FE002842
:104FF0000ED0200080231B06E91832003B00FFF78B
:10500000E7FF80242406091902B080BCB846F0BD31
:10501000019880231B06E91832003B00FFF7D8FFF8
:10502000F2E710001900FFF751FD8046200029002B
:10503000FFF7A4FE00280CD14346002B28D02033D4
:10504000402B1FD932003B0020002900FFF7D2FE81
:10505000DAE72A0D5205520D0F4B9C46624480231D
:105060001B01984505DA0D4B984504DA0B4B984621
:1050700001E00B4B984643465A4300200949FFF78D
:10508000E7FDC1E7424620002900FFF7A1FEBBE78C
:1050900000200449B8E7C04601FCFFFF00F8FFFF0D
:1050A000FF0700000000F03F10B5FFF7D1FD10BD75
:1050B00070B50B0D5B055B0D214A944663445A1C89
:1050C00024DB5A1C28D03422D21A002A1DDD3324B6
:1050D000E41A2500203D26D40126AE4033000125E8
:1050E000A5402A0012184B412500203D21D402265C
:1050F000AE4031000225A5402800002544428D41E4
:105100001600264030002B40190070BD0022C90F48
:10511000CB0710001900F8E7CB0FDB070020094A86
:105120001A431100F1E720252D1B0126EE40330024
:10513000D5E720252D1B0226EE403100DAE7C046D8
:1051400001FCFFFF0000F03F10B50B0D084A934231
:1051500007D0084A934207D00022074BFFF7F2FC22
:1051600010BD06480649FBE704480649F8E7C04673
:10517000FF070000FF0F00000000F03F182D44540F
:10518000FB21F93FFB21F9BF70B504000D000A0DAA
:10519000194B9A4229D00022184BFFF757FC0028E0
:1051A00026D10022164B20002900FFF757FC0028CB
:1051B00002D0002013491DE020002900FFF778FFEE
:1051C000FFF784FC0600FFF769FC02000B002000DB
:1051D0002900FFF7CAFB0C4A0C4BFFF7EAFBFFF76D
:1051E000B9FC3200FFF734FD04E00020002101E0AB
:1051F0000020002170BDC046FF0F00000000B0C0BD
:105200000000B0400000F07FEF39FAFE422EE63F8A
:10521000F8B5CE46474680B506000F0014001D00C5
:1052200000224E4BFFF704FC002821D12B0D98469D
:105230005B055A0D9146002B1AD00022484B3000D6
:105240003900FFF7F5FB002802D0464B99456DD099
:105250003A0D5305590D002B1DD1002D0EDB2000FA
:105260002900FFF74DFD002863D03000390001E030
:1052700000203A49C0BCB946B046F8BD200029001C
:10528000FFF73EFD002857D0FB0FDB070020364A12
:105290001A431100EEE7334B9A4213D0334B9A4234
:1052A00015D0304B984527D0304B98452AD0200058
:1052B0002900FFF7F5FC00282AD1002F2FDA002063
:1052C0002949D7E7002D3ADA00200021D2E7002D46
:1052D00008DB20002900FFF713FD002832D0002052
:1052E0002349C7E720002900FFF70AFD00282CD03A
:1052F000002080210906BDE71E4B994228DC0020D2
:105300000021B7E71B4B994225DC00201649B1E785
:1053100022002B0030003900FFF75AFEAAE72200D6
:105320002B0030003900FFF765FDA3E700200B4993
:10533000A0E7002000219DE700200B499AE700200C
:10534000094997E70020084994E70020002191E7E8
:10535000002005498EE7002000218BE70000F03F88
:105360000000F0BFFF0700000000F07FFF0F00000B
:105370000000F0FFFE03000007B56046002800D1E2
:1053800000BE01880A0A0230DF2AFAD1C9B28208B7
:1053900004D3028840880004104300E00068024AF9
:1053A0005050039007BD00002C2F00205143434371
:1053B000C9188C46110C83B24B4310B4040C6143E2
:1053C00092B280B2504362431C041B0C001910BC03
:1053D00059411304120CC018514161447047000038
:1053E0004840414048400E4B5B6818470C4B1B68D7
:1053F00018470C4A936F9B0802D2094BDB68184789
:10540000F0B5146E556E576F166FFFF7F6FF054A2D
:105410001466556657671667F0BD014B9B681847C1
:1054200030300020000000D007B5484041404840DF
:1054300001E0C04607B54200120E03D0FF2A03D197
:10544000420218D8C00DC0054A00120E03D0FF2A30
:1054500003D14A020FD8C90DC9050122414005D424
:10546000414001D5814207BD884207BD014349182B
:1054700001D0C043001807BD00B5FFF7DBFF01D026
:10548000002000BD012000BD00B5FFF7D3FF01D90A
:10549000002000BD012000BD01231B064200D218E0
:1054A00004D84A00D21801D8002070470120704764
:1054B000491A002808D1084670470000C10FC907E3
:1054C00000D54042002817D0F44603B40B4B1B68AC
:1054D000984706BC81409E384042803107D20B0677
:1054E00007D04900490AC00510430843604701300E
:1054F000F8E7490A8902F5E7704700002C300020E0
:10550000014B5B6A1847000030300020014BDB6F15
:10551000184700003030002010B50148FDF7A0FE0C
:1055200084A5001070B513231E781848FEF796FF67
:105530000500012E11D0012E09DDAB1E1B789B004A
:105540007F2B1DDD12488022290000F05BF81148F6
:10555000FEF77CFF104B186070BD0D4854222900E7
:1055600000F050F8002300E001331F2BE3D8084A75
:105570009C00A258002AF7D10849054AA150F3E738
:10558000074B084A08484221FDF7D2FD5346000068
:10559000303000204C3300002C3000201955001012
:1055A00088AF00107CB90010BCAF001010B5002807
:1055B00004D04018034B984200D810BD0248FDF7B4
:1055C0004FFEC0460000042004B0001070B5050076
:1055D00004F028F804002900FFF7E8FF200070BD60
:1055E00010B504F029F810BD01480421014B1847FB
:1055F000B01A00206D440010014B1B6818470000D2
:10560000B01A0020014B5B6818470000B01A002058
:1056100010B5FFF7DBFF10BD10B5FFF7E1FF10BDC0
:1056200010B5FFF7DDFF10BD10B503000800110035
:105630001B68984710BD0000F8B507000D00160064
:10564000437D002B02D0002400200CE003681100F1
:10565000280098472DE03B7D10E03B68154802216B
:105660009847601C0134B44214DA002CF3DD2B1986
:10567000013B1B780D3B5A425341DBB22A5D0A2A9B
:10568000F0D1002BEED1A042E7DA3B68211A2818AE
:105690009847E2E7B04203DA3B68311A2818984786
:1056A000002E06DDAD19013D2B780D3B5A425341CA
:1056B0003B75F8BDB4B9001070B505000368002B48
:1056C00016D00C4B1C6805E0290004C92000FFF728
:1056D000B3FF2469002C09D02368002BF9D0064BB6
:1056E0001B68002BF0D0A342F3D1EDE700232B6021
:1056F00070BDC046F02A0020F82A002070B50500D1
:105700000C000B68802B05D023685A1C2260E4181B
:10571000257170BD0800FFF7CFFFF5E710B5002B2E
:1057200002DB0260436010BD024B034A03483F2185
:10573000FDF7FEFC10A80010B8B900102CA800104E
:1057400010B582B00400FDF73BF802000B0068467C
:10575000FFF7E4FF009A019B22606360200002B023
:1057600010BD000070B582B0060014001D00FA22C2
:105770009200002306980021FFF718FE02000B009C
:1057800012196B41002B09DB6846FFF7C7FF009A2F
:10579000019B32607360300002B070BD0122524242
:1057A000004BF1E7FFFFFF7F30B585B004000D002F
:1057B00002A8FFF7C5FF029A039B00952000FFF7A0
:1057C000D1FF200005B030BD00B583B0FA218900BB
:1057D0006846FFF7E9FF009A019B024804F02CFE9F
:1057E00003B000BD5023002010B5024804F0B4FD02
:1057F00010BDC04650230020F0B5CE46474680B5C8
:1058000083B006000D0090461C00FFF7DDFF8146C7
:105810006B1C05D0002C08D0194F1A4B1C6807E0F0
:10582000300004F0E5FB0500F4E7174FF5E72469C5
:10583000002C17D02368002BF9D0144B1B68002BC9
:1058400001D0A342F3D12A0031002000B8474346DB
:10585000002BECD06B46D91D0A230B7001222000CF
:10586000B847E4E74B46002B07D16B1E9D41E8B2D9
:1058700003B0C0BCB946B046F0BDFFF7B5FFF4E7D2
:1058800029560010F02A002039560010F82A00206E
:10589000094A01E010331A001368002B08D0834234
:1058A000F8D1002907D1036913600023036102E0E6
:1058B000002900D010607047F02A002010B5064B78
:1058C0001C6801E098472469002C03D06368002B12
:1058D000F8D1F8E710BDC046F02A002070B50500E9
:1058E00004F086FB04000023012201002800FFF7DA
:1058F00083FFFFF7E3FF200070BD000070B5A2B08A
:1059000004000E00FFF760FF0500002301930A4822
:105910003300220001A9FEF781FD040001A8FFF772
:10592000CBFEFFF7CBFF002D02D1200022B070BDCF
:10593000FFF75AFFF9E7C046FD5600100FB400B557
:1059400083B004A901C90191FFF7D8FF03B008BCD7
:1059500004B0184710B500F0AFF910BD7047000053
:10596000014B00221A707047693100204B79FF2BE0
:105970000CD18B79002B0BD1CB79012B0AD1082AC2
:105980000AD98A78054B1A70092000E00020704778
:105990000020FCE70020FAE70020F8E7693100204A
:1059A0000120704770B504000D000348FEF74EFD5E
:1059B00003002900200098475542000010B5012936
:1059C00026D1117953791B020B43124909788B4276
:1059D00001D000201DE05378012B03D0022B10D002
:1059E000002016E09178D3781B021943DB0506D519
:1059F0004B0A012098407F231940FFF7D3FF002076
:105A0000F9E7642200210020FDF734FB012000E0CB
:105A1000012010BD69310020012303700048704748
:105A2000D0B9001010B50A784B781B0213438A785E
:105A300012041A43CB781B0613439622D2009342DA
:105A400000D010BD00210800FFF7ACFF024B18602A
:105A5000024B19607047C046542A0020582A002083
:105A600010B5002B02DB0260436010BD024B034AFD
:105A700003483F21FDF75CFB10A8001004BA00109A
:105A80002CA8001010B582B00400FCF799FE0200AB
:105A90000B006846FFF7E4FF009A019B22606360F9
:105AA000200002B010BD000070B582B006001400E6
:105AB0001D00FA229200002306980021FFF776FCD1
:105AC00002000B0012196B41002B09DB6846FFF73F
:105AD000C7FF009A019B32607360300002B070BD56
