:020000041000EA
:1000000000B5324B212058609868022188439860DF
:10001000D860186158612E4B002199600221596106
:100020000121F02299502B49196001219960352056
:1000300000F044F80222904214D00621196600F024
:1000400034F8196E01211966002018661A6600F04E
:100050002CF8196E196E196E052000F02FF8012189
:100060000842F9D1002199601B49196000215960AB
:100070001A491B48016001219960EB211966A021F2
:10008000196600F012F800219960164914480160C1
:100090000121996001BC002800D000471248134993
:1000A000086003C880F30888084703B5996A0420EC
:1000B0000142FBD001200142F8D103BD02B5186610
:1000C0001866FFF7F2FF186E186E02BD00000240BE
:1000D000000000180000070000035F00212200005C
:1000E000F4000018222000A00001001008ED00E03C
:1000F00000000000000000000000000074B24E7A12
:1001000000200420F7010010C3010010C5010010F9
:10011000C1010010C1010010C1010010C101001097
:10012000C1010010C1010010C1010010C701001081
:10013000C1010010C1010010C9010010CB01001065
:10014000CD010010CD010010CD010010CD01001037
:10015000CD010010CD010010CD010010CD01001027
:10016000CD010010CD010010CD010010CD01001017
:10017000CD010010CD010010CD010010CD01001007
:10018000CD010010CD010010CD010010CD010010F7
:10019000CD010010CD010010CD010010CD010010E7
:1001A000CD010010CD010010CD010010CD010010D7
:1001B000CD010010CD010010CD010010CD010010C7
:1001C00000BE00BE00BE00BE00BE00BEEFF3058054
:1001D000103800BEF2EB8871CC390510F0390510EB
:1001E0003402001090A31AE700201F49086006C8D7
:1001F00081F3088810471D48006800282FD10DA4FE
:100200000ECC002902D000F012F8F9E71849194A7B
:10021000002000E001C19142FCD1174988471749ED
:1002200088471749884700BEFDE701C901C29A42C5
:10023000FBD37047F0390510C0000020680E002085
:10024000984705100000042000000420984705107E
:10025000001004200010042000000000704709482E
:1002600001F066F90047000008ED00E0000000D052
:10027000880E0020ACDA00204D1501109505001005
:100280000D1501105756000006005250ABB36053D5
:100290005CB0011006005250861C03026CB00110C5
:1002A000060052505422A29D80B001100500525009
:1002B000DE65F46898470510F8B5C0460448054B5C
:1002C00010B5834203D0044B002B00D0984710BDDB
:1002D000680E0020680E0020000000000648074954
:1002E000091A8B10C90FC91810B5491003D0044B57
:1002F000002B00D0984710BD680E0020680E00202B
:100300000000000010B5074C2378002B09D1FFF73F
:10031000D5FF054B002B02D0044800E000BF0123AD
:10032000237010BDE00F002000000000D069011014
:10033000054B10B5002B03D00449054800E000BF71
:10034000FFF7CCFF10BDC04600000000E40F002006
:10035000D069011010B51C000E49106816F0F0F9B4
:1003600000280CD124680C49200016F0E9F9002877
:1003700007D00A49200016F0E3F9002805D0084804
:1003800010BD00210CF0B2F8F9E701210CF0AEF835
:10039000F5E7C046BCA40110747C0110546D011037
:1003A000D0690110F0B5C64600B584B00C00904687
:1003B000012840D0022800D17DE0002805D000208F
:1003C00080B204B080BCB846F0BD434813F02CFCAA
:1003D00003A902A800F0C4F9029813F037FA060046
:1003E0000F003E4D039813F031FA00900191320056
:1003F0003B00280013F018FC394B04221A60394BDB
:100400001B68DB05FBD5374B58680004000C13F064
:10041000FBF9354913F0EBF9E621890513F0E7F90B
:10042000324D13F013FA009001912A00414620004A
:1004300012F0F0F9C4E7284813F0F6FB03A902A86C
:1004400000F08EF9029813F001FA06000F00234D18
:10045000039813F0FBF90090019132003B00280053
:1004600013F0E2FB1E4B04221A601E4B1B68DB05D7
:10047000FBD51C4B58680004000C13F0C5F91A4951
:1004800013F0B5F9E621890513F0B1F9184913F015
:1004900094F9184913F097F9011C174813F08DF9D6
:1004A000124D13F0D3F9009001912A00414620002B
:1004B00012F0B0F984E700200CF022F8002805D0F3
:1004C0000E4A4146200012F0A5F979E70C4A414650
:1004D000200012F09FF973E7E0690110EC69011048
:1004E00000E0044000C0044033335340F46901107D
:1004F0006ABC343F2D93E13A0000D841F8690110FD
:10050000FC69011010B50248012110F0E5FF10BD93
:1005100050B30110D0B584B015F04CFE164B02223A
:100520001A60164B1A688023DB015340E022D20187
:100530001340134A136000F0EDF8124813F044FB27
:1005400002A903A800F00CF9039813F07FF9060044
:100550000F000D4C029813F079F9009001913200D0
:100560003B00200013F060FB08490948032210F00B
:100570008FFF04B0D0BDC04600E0044000C004407E
:1005800000D00440006A0110EC690110F80C002052
:10059000A503001010B513F053FB0CF099F80BF005
:1005A00085FF114802F083FA02E0104813F00CFBBB
:1005B0000F491048104B114A0CF04DF80028F4D1A7
:1005C0000F4813F001FB10F053FF0E4813F0FCFA34
:1005D000FFF7A0FF0C4813F0F7FAFFF793FF0B4863
:1005E00013F0F2FAFEE7C046B80B0000186A0110DB
:1005F00030B3011040B3011030750000040040001A
:10060000346A0110406A0110586A0110706A0110C2
:1006100000B585B003AA6B23138004480023009320
:100620000233682115F09AFF05B000BD400E00208E
:10063000F0B587B005000E0017000F226A443B2377
:100640001370314C3A3B00936821200015F086FF6F
:100650002E4B186000230093063304AA6821200063
:1006600015F088FF2A4B1860002308E05A0004A9FF
:100670008C5C2402501C095C2143A9520133022BDB
:10068000F4DD0F226A44432313701F4C423B009356
:100690006821200015F062FF1C4B186000230093B6
:1006A000063304AA6821200015F064FF184B186077
:1006B000002308E0580004AA155C2D02411C545C7C
:1006C0002C4334520133022BF4DD0F226A444123C0
:1006D00013700D4C403B00936821200015F03EFF45
:1006E0000A4B186000230093023304AA68212000FB
:1006F00015F040FF064B18606B461A7C12025B7CBB
:1007000013433B8007B0F0BD400E002078DA002094
:1007100004D8002010B513F093FA0E4813F054FAE1
:100720000D480E4915F0EEFE0321042001F036F8C5
:100730000321052001F032F800220121042001F0FC
:1007400045F800220121052001F040F8FFF760FF85
:1007500010BDC046A46A0110400E0020A086010012
:10076000F0B5DE4657464E464546E0B593B0824664
:10077000884600230B608D4A956A0493A6E0220008
:100780002B003000390012F02DFF06000F00220070
:100790002B000098019912F025FF02000B00300099
:1007A000390012F0D1FA12F0AFFB04000D000298EC
:1007B00012F05EFB22002B0012F0CBFA12F0AEFE1C
:1007C0007B4A7C4B12F0DFFA12F096FB8346C7E0BF
:1007D0004B465B42994622002B003000390012F054
:1007E00001FF06000F0022002B000098019912F073
:1007F000F9FE02000B003000390012F0A5FA12F0E9
:1008000083FB04000D00484612F032FB22002B004F
:1008100012F09FFA12F082FE654A664B12F0B3FAAC
:1008200012F06AFB061C8321059812F025F812F0DD
:10083000EBFF0A9F391C12F0DAFF099912F0C0FF92
:1008400013F004F85C4A5D4B12F09DFA04000D00B1
:10085000584612F0FBFF5A4A5A4B12F094FA020023
:100860000B002000290012F06FFA12F045FB5346EE
:1008700018608321089811F0FFFF12F0C5FF391CA2
:1008800012F0B5FF049912F09BFF12F0DFFF4A4A05
:100890004A4B12F078FA04000D00301C12F0D6FF1B
:1008A000474A484B12F06FFA02000B002000290063
:1008B00012F04AFA12F020FB0490434618605346A7
:1008C0001B680993012002F0F2F80B9D10AC0CABF1
:1008D0009A1D0EA92000FFF7ABFE0022A35E9946E9
:1008E0000222A35E02930422A35E9B460CAB082265
:1008F0009B5E05930CAB0A229B5E08932B4B9B6A75
:100900000B93581B12F07AFF2F4912F05CFF0A90EC
:10091000484612F0ADFA06000F0000248025ED05D0
:1009200022002B0012F05EFE06900791584612F04E
:100930009FFA0090019122002B0012F053FE02005A
:100940000B000698079912F0FFF912F0DDFA002269
:10095000002312F057FA002800D110E700239B462D
:10096000029812F085FA06000F0000248025ED059C
:1009700022002B0012F036FE0290039122002B0081
:100980000098019912F02EFE02000B0002980399C4
:1009900012F0DAF912F0B8FA0022002312F032FA5B
:1009A000002800D114E700263DE7C046004005407E
:1009B000E79AD56194A94C405C8FC2F5285CEF3F63
:1009C0007B14AE47E17A943F0024744910B50029A6
:1009D00005D0FA229200002311F0B4FF03E0FA21BF
:1009E000890011F071FF10BD10B5002B02DB026011
:1009F000436010BD024B034A03483F2110F08AFDBB
:100A0000D86A011060B30110F46A011070B582B0A9
:100A1000060014001D00FA2292000023069800210F
:100A200012F0AEFE02000B0012196B41002B09DB25
:100A30006846FFF7D9FF009A019B3260736030006F
:100A400002B070BD01225242004BF1E7FFFFFF7F71
:100A500010B5064B8B4202D108F020F910BD044BB3
:100A6000044A0548182110F055FDC046080D002025
:100A70003C6B011078B301105C6B011010B582B0B3
:100A8000040002F093F802000B006846FFF7ACFF89
:100A9000009A019B22606360200002B010BD30B557
:100AA00085B004000D0002A8FFF7E8FF029A039B3F
:100AB00000952000FFF7AAFF200005B030BD000020
:100AC00030B583B00400134B994213D101230B724C
:100AD00008F00EF90100431C12D10F4B0F4A1068A9
:100AE00051689860D96023685B690B49200098477A
:100AF00003B030BD0A4B0B4A0B481D2110F00AFD14
:100B0000054D6846FFF7CBFF009A019BAA60EB609A
:100B1000E9E7C046200D0020080D0020E0B60110D6
:100B2000A06B011090B301105C6B011010B50400B4
:100B3000094B1B78002B08D0084901230B7223684E
:100B4000DB6920009847012010BD02F0B7FB024B83
:100B500001221A70F0E7C0469ADA0020200D00202A
:100B600010B5040003689B690349984723681B6A12
:100B700002492000984710BD080D0020200D0020DC
:100B800000207047704700B583B06846FFF776FFD6
:100B900000980199FFF71AFF03B000BD02000B0097
:100BA0000449086849685040594008434342584145
:100BB000C0B27047E0B6011010B5002B02DB026036
:100BC000436010BD024B034A03483F2110F0A2FCD2
:100BD000D86A0110A4B30110F46A011010B582B0F4
:100BE000040001F0E3FF02000B006846FFF7E4FF9A
:100BF000009A019B22606360200002B010BD0830A3
:100C000000E018000368002B03D08B42F9D10020CC
:100C100002E001600B6001207047083000E018001E
:100C20000368002B05D08B42F9D10B6803600120CB
:100C300000E000207047043000E018000368002B3B
:100C400003D08B42F9D1002002E001600B6001204B
:100C50007047043000E018000368002B05D08B4279
:100C6000F9D10B680360012000E00020704700000C
:100C7000F0B585B00500806800282AD002A8FFF7EB
:100C8000ADFF029E039F08350023019306E0134B3E
:100C9000134A1448422110F03DFC25002C68002C1A
:100CA00011D0A268E36830003900801A9941002908
:100CB000F3DBA668E76830003900FFF76FFF002814
:100CC000E5D10195E9E7019A002A04D0106803688C
:100CD000136005B0F0BD0198FBE7C046D06B011072
:100CE000BCB30110F46B0110F0B50D4B1E685F68CA
:100CF000836802E09E68DF686346002B0DD01A68A7
:100D000094469C68DD6831003A00091BAA41002A1C
:100D1000F0DCF1D10029EDD1EEE706614761F0BDCD
:100D2000E0B6011070B506000D0002E04B68280027
:100D300098472800FFF79CFF011EF7D16C6800E080
:100D40002468002C09D0237A002BF9D000232372C9
:100D50006368210028009847F2E72800FFF7C4FFE6
:100D60002A696B6932607360300070BD034B1B6889
:100D700002201840431E9841C0B2704700C0064090
:100D800070B50F4C0F4D24184D41A900A00F08431A
:100D9000A90F604069400C4A0C4B12F0F1FC4A016B
:100DA000C30E1343CA0E58405140094A094B12F072
:100DB000E7FC4A00C30F1343CA0F5840514070BDAF
:100DC000157C4A7FB979379EB9E5E41C6D4758BF59
:100DD000EB113113BB49D094F0B5C64600B584B0D1
:100DE00002000B0013498C461BE0614601C90090CC
:100DF0008C4600210191910E9F010F4396010098AE
:100E000001998019794102900391110C1D040D4341
:100E100014040298039900196941801A994102004B
:100E20000B0005498C45E0D91000190004B080BCC6
:100E3000B846F0BD001C0420FF1F0420F0B5CE46CC
:100E4000474680B583B080460368446800930194A8
:100E500003008068D96801E001F0A8FE009C019DB4
:100E600023002B4302D103000B43F5D0009C019DCE
:100E7000A60FAB003343A2002E002500AD185E4143
:100E80006B0E9946F3019C464B46624613431F0086
:100E9000730EEA0113431E005B0F9C46FB00644681
:100EA0002343F20092197B41009C019D6040694000
:100EB000260A2F063E432D0A009C24062543454062
:100EC00034004C40070C0E043E4307047D40744040
:100ED0004646356074604C01C50E2C434001C90E76
:100EE0000843B460F0601000190003B0C0BCB946FC
:100EF000B046F0BD10B5002B02DB0260436010BDB0
:100F0000024B034A03483F2110F004FBD86A01104A
:100F1000ECB30110F46A011010B582B0040001F0C6
:100F200045FE02000B006846FFF7E4FF009A019BB4
:100F300022606360200002B010BD000010B582B0D6
:100F400004000498059912184B41002B09DB6846F0
:100F5000FFF7D0FF009A019B22606360200002B07F
:100F600010BD01225242014BF1E7C046FFFFFF7F57
:100F700070B584B0040016001D0002A8FFF7CCFF76
:100F8000029A039B009601952000FFF7D7FF2000EF
:100F900004B070BDF0B5DE4657464E464546E0B556
:100FA00085B082464B4B9B69DB040FD54A4BDA6B0D
:100FB000E0231340402B09D0EFF305839B46002824
:100FC0000AD0002301930026002774E0434B444AD3
:100FD0004448812110F09EFA434B414A4148862102
:100FE00010F098FA414B1868596801F0FBFCEFF3D8
:100FF000108572B63E4B1B68002BFBD0BFF35F8F92
:101000003A4B1A685B68904516D0BFF35F8F384B38
:1010100000221A6085F310884B46002B48D1334BD1
:101020001A6890465C685B46002BDBD02F4B186833
:10103000596801F0C7FDDAE7A342E6D13000390074
:1010400080197941234BDA690123134003431E00C1
:101050000F00264C0A22002302A8FFF789FF029AFC
:10106000039B226063605346013B019A93421CD16B
:10107000204A514620390ED413688B4012685146DD
:101080008A4032433B4316001F001A4B1E605F60CC
:1010900001239946B9E7202351465B1A1168D940CC
:1010A0005368504683400B43E8E701239946ACE779
:1010B000019B01330193019B534502D200239946C2
:1010C000ADE73000390005B0F0BCBB46B246A946DA
:1010D000A046F0BD0000064000800040486C0110B2
:1010E00004B40110106D0110DC8E0110D80F002027
:1010F000300100D0680E002010B586B0394C206851
:101100006168FFF769FE20606160FFF739FE029AAF
:10111000039B424002924B400393684600F006F95D
:1011200000980199FFF72CFE049A059B4240049217
:101130004B4005934020FFF72DFFFFF721FE029A59
:10114000039B424002924B40039301F02FFDFFF7B7
:1011500017FE049A059B424004924B400593EFF31F
:10116000108472B6204B1B68002BFBD0BFF35F8F3F
:101170001E4B1B78002B26D10022032A09D8531CB2
:10118000DB001B498C4663445B681F2B03D0013294
:10119000F3E701225242531C1ED0164B1A70FF2354
:1011A00013400133DB00124A9446634405225A601F
:1011B00002A8FFF743FE1048102202A912F0A4FB78
:1011C0000A4B01221A70BFF35F8F074B00221A608F
:1011D00084F3108806B010BD084B094A0948E9217C
:1011E00010F098F9700E0020300100D0A4DA002031
:1011F0000000034095DA0020780E00204C6D0110AD
:1012000024B40110106D011070B584B03A4B1B78F6
:10121000002B00D167E039491022684612F074FBB8
:10122000374B1C78E4B201F0C1FCFFF7A9FD009A2E
:10123000019B424000924B4001930120FFF7AAFE20
:10124000FFF79EFD029A039B424002924B4003939C
:101250002C4B1A78531CDB002B4958582B4B9842C7
:1012600044D00021FFF78CFD009A019B4240009280
:101270004B400193EFF3108672B6254B1B68002B91
:10128000FBD0BFF35F8F1E4B1B78DBB2A34210D0A5
:101290000099019A194B1C685868614000914240BE
:1012A00001920299039A9C68D86861400291424079
:1012B00003926846FFF7C2FD05000C000F4810229C
:1012C000694612F021FB0E4A13780133DBB213702A
:1012D000BFF35F8F0E4B00221A6086F31088280040
:1012E000210004B070BDFFF707FF94E70132D20080
:1012F0000B000021D150B4E7A4DA0020780E0020C2
:1013000096DA002095DA002000000340FFFFFF007E
:10131000300100D010B5FFF777FF10BD10B50248BF
:1013200000F03AF810BDC04610D8002010B50249B0
:10133000082212F0E9FA10BD10D8002010B50029DB
:1013400001D000230AE0104B104A11481F3110F061
:10135000E1F800220DE03732C25401334A1E9A42AE
:101360000ED90F2B0CD85A080A4CA45CDA07F0D41B
:10137000042214410F222240092AECDC3032EBE730
:10138000C0180023037010BD586D011034B4011053
:10139000606D011010D8002070B588B0040004AD55
:1013A000002604960922002105A812F0A7FA00964B
:1013B0000922002101A812F0A1FA4B232B700D2263
:1013C0006946280015F07CFA002304E05A1D69469E
:1013D0008A5CE2540133072BF8DD08B070BD0000D1
:1013E000EFF3108072B6034B1B68002BFBD0BFF3EA
:1013F0005F8F70472C0100D0BFF35F8F024B00223C
:101400001A6080F3108870472C0100D0F8B50600F0
:101410000C001500FFF7E4FFE308F718F15C072262
:101420002240012393400B4205D1DBB20B433B70BA
:10143000FFF7E2FFF8BD2100280010F003F9F0B536
:1014400083B00600019114001F00FFF7C9FF00E000
:101450000134BC420CD8E308F518F35C07212140A5
:1014600001228A401A42F3D1D2B21A432A7001E013
:1014700001246442FFF7C0FF002C02DB200003B010
:10148000F0BD019B002BF9D0089810F0DBF80000AC
:1014900070B505000C00FFF7A3FFE308EE18EA5C47
:1014A0000721214001238B40134204D09A4332701C
:1014B000FFF7A2FF70BD034B034A0448332110F02D
:1014C00029F8C046046F011064B40110246F0110A4
:1014D000002307E0054A9A189200BFF35F8F0021AE
:1014E000116001331F2BF5D97047C046400000340E
:1014F000054A1078431CDBB21370172B02D9130076
:1015000010221A707047C046300D002010B582B00E
:101510000100054C054B00931F2318222000FFF704
:101520008EFF02B010BDC0467C160020686F01100F
:1015300010B5010018231B8814221088984710BD8D
:1015400010B5010018231B8816221088984710BD7B
:10155000F0B5C64600B507000E00002501239846E9
:1015600000E00135B5420AD2AC003C192068FFF713
:10157000DFFF20600028F4D100239846F1E74046C1
:1015800080BCB846F0BD0000F8B5DE4657464E4672
:101590004546E0B506000F0015000A9A934250D365
:1015A0001A0E92461B0298460A9A0023404651465C
:1015B00011F0C8F981467400A419A4002F4B9C4671
:1015C00064446368834200D26060331FDBB29B4691
:1015D000012B3CD9C0239B012343802212011A60B6
:1015E000274BB200D158002907D0586911F06CF987
:1015F000013043001B18033BFDD26D0123685D40A1
:10160000E0222A4080235B0123431A605A46012AC4
:1016100028D980239B012343802212011A604B4664
:1016200063604A4600234046514611F08BF9144B43
:10163000B60098510120F0BCBB46B246A946A04670
:10164000F8BD104B104A114833210FF063FF012FF2
:10165000C0D1C0239B01234303221A60A368DB0788
:10166000FCD5CAE72168794003220A401A60A368C2
:101670000125BD401D42FAD0CBE7C04600800040A6
:1016800080160020846F011074B40110986F01104F
:1016900030B583B00C2001F08BFDFFF767FB00280D
:1016A0000DD0002304E02E4A99002E4888500133C3
:1016B000092BF8D92A4B2C4A5A6203B030BD2B4B68
:1016C00000229A6701F0E6FD294B01221A60274BA0
:1016D0005B6C012BFBD1274B03221A60234B9B6BC6
:1016E000012BFBD1013300930433234A012123480A
:1016F00001F0CEFC05230093214A0121214801F08D
:10170000C7FC214B0093002202210420FFF73CFF7D
:101710001E4D00952B00002201210520FFF734FF0C
:10172000104C00942300002200210720FFF72CFF1B
:1017300000942300002200210820FFF725FF0A4B18
:1017400000932300002200210920FFF71DFF0095D0
:101750002B00002200210620FFF716FFADE7C04650
:1017600080160020006CDC021BB7000000800040E7
:101770003CB0004030B00040002F6859008002406B
:10178000008C864700C00240001BB7004059730719
:10179000014B8000C05870478016002010B58300B0
:1017A000084A944663441A684024624080341440D6
:1017B0008022520113431C60C000034B9C466044CE
:1017C000416010BD04C001400040014080000B4B4F
:1017D0009C46604400290DD00823002A0CD0042226
:1017E0001343026853400C221A4080235B010343D9
:1017F0001A6070470023F0E70022F1E704C00140BF
:10180000002909D08000094B9C46604480239B013D
:10181000034302221A6070478000044B9C466044D8
:10182000C0239B01034302221A60F4E704C0014075
:1018300070B5D0231B061B68094C9D002C59204213
:1018400007D1074D9B0004435C510D2000F05AF96D
:1018500070BD044B044A0548CC210FF05BFEC04626
:10186000F8D70020DC6F0110A8B401100870011037
:1018700010B50400D0231B061A680B4B9200D358F6
:1018800018420BD00D2000F045FAD0231B061B6830
:1018900005499B005A58A2435A5010BD034B044AB5
:1018A0000448D6210FF036FEF8D70020487001100A
:1018B00084B4011008700110072303409B00C00886
:1018C00099403C308000014BC150704700400140BE
:1018D000F8B507000C0016001D00FFF7EDFFFB0830
:1018E0009B00ED180720384080008440002E04D073
:1018F00080239B012B431C60F8BDC0239B012B431D
:101900001C60F9E710B5D0231B061B68002B03D021
:10191000024BFFF7DDFF10BD014BFAE730410140FC
:101920000041014010B501238340D022120693628A
:1019300093610521FFF732FF10BD0000074B9B6844
:10194000103080001950BFF35F8FBFF35F8F044BDF
:101950000021196082F310887047C04600ED00E056
:10196000240100D01F23181A7047000010B5038807
:10197000DA0A1C2A05D15B055B1502335B00C0182F
:1019800010BD034B034A0448B1210FF0C3FDC0460C
:101990007470011030B501108C70011010B5091A67
:1019A0000B1F0A4A88180A4A904208D8C90706D469
:1019B0005B105B055B0D0748184380B210BD064BFA
:1019C000064A0748A3210FF0A5FDC046FC0700000A
:1019D000FE0F000000E0FFFFCC70011024B50110E5
:1019E0008C70011010B5091A04394A08090B08D186
:1019F0004905490D064B0B430380064B13434380B7
:101A000010BD054B054A0648AB210FF083FDC046CB
:101A100000F0FFFF00F8FFFFFC700110F8B40110A8
:101A20008C70011001238340034A10681840431E44
:101A30009841C0B27047C04600E100E0002904D0E0
:101A4000034B1860034B18607047034B1860FBE7AB
:101A500080E200E000E100E080E100E010B5012359
:101A600083401800FFF7EAFF10BD00000123834008
:101A7000014A13607047C04600E200E0024B9B68D9
:101A800010308000C058704700ED00E010B5FFF73F
:101A9000F5FF002805D0054BC01A2F2803D80120D8
:101AA00010BD0020FCE70020FAE7C046340D0020FE
:101AB00070B504000D00EFF3108672B60C4B1B6876
:101AC000002BFBD0BFF35F8F2000FFF7D7FF094B40
:101AD000984201D0A84205D1320029002000FFF72A
:101AE0002DFF70BD044B054A054886210FF012FDFD
:101AF000240100D0CD0100100C71011058B5011067
:101B00008C700110F0B5DE4657464E464546E0B5AE
:101B100089B0814601911500EFF3108A72B66D4BC2
:101B20001B68002BFBD0BFF35F8F6B4B00269E57CB
:101B3000002E41DB7400A419A40068482418062272
:101B4000A256654B1A70664B9A684B4610339B0041
:101B5000D35898461F00181A2F2839D9614B984539
:101B600030D105AF604B3B80604973009B469819AC
:101B700080005A4B984640440230FFF70FFF7880B0
:101B80005B4BBB80FF23BB71FD71019B079333004F
:101B90005B449B00434407CF07C301231C43A0467B
:101BA000524641464846FFF7C9FE09B0F0BCBB4665
:101BB000B246A946A046F0BD4E4B4F4A4F48D721EA
:101BC0000FF0A8FC4E4B4C4A4C48DE210FF0A2FC13
:101BD00001380C2110F078FE002912D101239F4317
:101BE000BB463B000027DA79AA4211D90621595693
:101BF00000290CDB4A005218920038491F008B184C
:101C0000F1E7404B3C4A3D48EA210FF083FC1F00BE
:101C1000002F2ED005AB3C4A1A80813A5A80062309
:101C2000FB560293002B17DA384805AB9B46988089
:101C3000029A9A71DD71019A0792381D2100FFF70F
:101C4000ADFEB880BE71254B7200921992009B18B0
:101C50005A4613CA13C3A3E7381DFFF787FE0100D6
:101C60007000801980001D4BC0180430FFF796FEED
:101C7000DBE705AF1C4B3B801C49730002939B19AB
:101C80009B00164A90461A0042440392901CFFF7AC
:101C900085FE7880039A101D5946FFF77FFEB880B5
:101CA0001B4B5A464146521A524153431B0DBB71BE
:101CB000FD71019A0792029B9B199B00434407CF39
:101CC00007C3114B5A461380813B538001231C43A9
:101CD000A04665E7240100D09DDA0020340D0020E5
:101CE00000ED00E0CD01001000A1FFFF640D002019
:101CF00001BDFFFF4471011040B501108C7001104F
:101D00006C710110947101100148000001BD0000C8
:101D1000AAAA0000F0B5CE46474680B583B00600BB
:101D20000D00EFF3108872B64F4B1B68002BFBD0F1
:101D3000BFF35F8F4D4B9A6834001034A300D7581F
:101D40004B4B9F4207D0AF4200D18BE00197494BEC
:101D5000FB1A2F2B09D9424639003000FFF7EEFD60
:101D600003B0C0BCB946B046F0BD3000FFF75AFE24
:101D7000814600213000FFF771FEBFF35F8FEFF364
:101D80000581002901D08C4211D10123019C9C4383
:101D90000020A368AB4212D00622A256002A0DDB17
:101DA00053009B189B00334A2000D418F1E7324BB4
:101DB000324A36213248FF310FF0ACFB2000AB42F3
:101DC00049D106256557002D2BDB2A4B6A00521995
:101DD00092009B189A68A260DA79E2719B795BB2F3
:101DE000A371002B0FDA2748A080224B6A005219FA
:101DF00092009B18244A1178997115704946300059
:101E0000FFF72CFEA7E7680040198000194BC018A7
:101E10000430FFF7ABFD0100231D1800FFF7BEFDE6
:101E2000E2E7002912D100280ED0FF238371174B5F
:101E3000838015490B78A3710E4A154BA41A64418F
:101E400063431B0D0B70D9E7094FF2E71149201DC1
:101E5000FFF7C8FDD2E7104B084A6A210848FF3156
:101E60000FF058FB024F76E7240100D000ED00E0B0
:101E7000CD010010340D00200872011010B50110C2
:101E80008C70011001BD00009DDA002001BDFFFF34
:101E9000AAAA00006E0D00203C72011010B50323A9
:101EA00004009C43064A9446644422681840C000DB
:101EB000FC3383409A43130081400B43236010BDE1
:101EC00000E400E070B5012202432E4BD31A2F2B01
:101ED00028D8EFF30583002B2BD0EFF3108C72B6CC
:101EE000294909680029FBD0BFF35F8F254C27499A
:101EF00005002D1B6D416943090D4CB224498968C9
:101F00009B00C95891421BD00021032932D81D4B98
:101F10004A00521892009B189B795BB2A3421FD0D3
:101F20000131F2E71B4B1C4AC7211C4849000FF046
:101F3000F1FA1B4B184A92211848FF310FF0EAFAC8
:101F4000134A92681749D150174B1A7882711C7046
:101F5000BFF35F8F0C4B00221A608CF3108870BDAA
:101F6000084B4A005518AD005D19FF26AE710F4AA7
:101F7000AA80E9E70E4B084AD121084849000FF032
:101F8000C9FAC046340D0020240100D0AAAA0000DE
:101F900000ED00E044720110DCB401108C700110FF
:101FA0006C720110CD0100109DDA002001BDFFFF11
:101FB000787201100022044B02E0044902C301328E
:101FC000072AFAD97047C04600E400E0808080808C
:101FD00010B5FFF7C7FC0100024B1800FFF758FAD5
:101FE00010BDC046A9DA002010B582B00100074C30
:101FF000074B0093052300222000FFF720FA00285A
:1020000001DB1F23181A02B010BDC046A9DA002058
:102010008072011070B504000E001500FFF768FA19
:102020000100200000F006F8A680E580BFF35F8F76
:1020300070BD0000024B9C466144890001607047FE
:102040004000003410B5002B02DB0260436010BD7D
:10205000024B034A03483F210FF05CFAD86A011093
:10206000B0B50110F46A011070B582B0060014001A
:102070001D00FA22920000230698002111F080FB37
:1020800002000B0012196B41002B09DB6846FFF7B9
:10209000D9FF009A019B32607360300002B070BDBE
:1020A00001225242004BF1E7FFFFFF7F10B582B0E3
:1020B000040000F07BFD02000B006846FFF7C2FF42
:1020C000009A019B22606360200002B010BD30B511
:1020D00085B004000D0002A8FFF7E8FF029A039BF9
:1020E00000952000FFF7C0FF200005B030BD10B5FF
:1020F0000400FFF7FDF901002000FFF79BFFFF231D
:102100002371BFF35F8F10BD10B50400FFF7F0F926
:1021100001002000FFF78EFFFF232371002363716E
:10212000BFF35F8F10BD0000034B9C4661448900E4
:102130000160BFF35F8F70474000003410B50400AA
:102140000120FFF7E3F901002000FFF7EDFF10BDCC
:10215000084B5B6A994209D8064A926A824207D2C2
:10216000994201D0012002E0002000E000207047E9
:102170000120FCE70040054010B500290AD00368A3
:102180001B7B8B4206D38068054B9C46614409014A
:10219000401810BD034B044A04483C210FF0BAF923
:1021A000FFFFFF0F28730110D4B601104C7301100C
:1021B000F8B504001700FFF7DFFF0668456839002F
:1021C0002000FFF7D9FF026843680120AB4201D825
:1021D00002D00020C0B2F8BDB242FBD8F9E700003F
:1021E00010B5002B02DB0260436010BD024B034AB6
:1021F00003483F210FF08EF9D86A0110A0B60110F4
:10220000F46A011010B582B0040004980599121800
:102210004B41002B09DB6846FFF7E2FF009A019B68
:1022200022606360200002B010BD01225242014BC7
:10223000F1E7C046FFFFFF7F10B5002908D0037B00
:102240008B4205D300684B005B18033BC01810BDE0
:10225000024B034A034868210FF05CF984730110B4
:102260007CB60110A073011010B5437B8B4201D1E5
:10227000012010BDFFF7E0FF8378002B01D1002083
:10228000F7E70120F5E770B50400857B002D01D14B
:10229000280070BD2900FFF7CFFF4378A373002B00
:1022A00000D1E3730023837043700370F0E70000F4
:1022B000F8B506000C001500FFF7BEFF0700002C64
:1022C0000DD0002D11D0AC4215D029003000FFF701
:1022D000B3FF84703B78002B13D13D70F8BD0A4BDF
:1022E0000A4A0B486F210FF015F90A4B074A0848B4
:1022F00070210FF00FF9084B044A054871210FF0C7
:1023000009F943703D70E9E7EC73011058B601100C
:10231000A0730110F87301100474011070B5060069
:102320000D001400002914D0002A14D043688068DE
:102330009847002806D0220029003000FFF7B8FF98
:10234000280007E02A0021003000FFF7B1FF20003D
:1023500000E0100070BD0800FCE7000070B504004C
:102360000D1E0CD0FFF768FF0023837043700370CD
:10237000617B2A002000FFF7D1FF607370BD034B23
:10238000034A0448A5210FF0C5F8C0461C7401108B
:102390006CB60110A073011070B504000D1E0FD0B3
:1023A000FFF762FF00280BD1E17B00290ED1A37B50
:1023B000002B03D1E37B002B0DD1A573E57370BD1A
:1023C000084B094A0948F6210FF0A4F82000FFF74E
:1023D00033FF4570EBE7064B034A0448FB210FF03F
:1023E00099F8C0462074011048B60110A07301107E
:1023F0004474011010B5002907D003681B7B8B4281
:1024000003D3C0680139401810BD034B034A044888
:1024100041210FF07FF8C0462873011034B6011037
:102420004C73011070B505000C00080000F09AFC18
:102430000949200000F0DAFBFFF75AF8074B9C46E9
:102440006044800068602C75D0231B061B786B7578
:10245000034BA400E55070BD71250010400000340E
:102460002CC800200A4B1A68EFF3108172B613686B
:10247000002BFCD0BFF35F8F054B1B68BFF35F8F52
:1024800000221A6081F3108840BF002000217047AD
:1024900020DA002010B582B0040000F087FB0200B3
:1024A0000B006846FFF79CFE009A019B2260636068
:1024B000200002B010BD70B584B0040016001D00ED
:1024C00002A8FFF7E7FF029A039B00960195200000
:1024D000FFF798FE200004B070BD0000F0B583B097
:1024E000070001921D000AAB1C780BAB1E78002C74
:1024F0000BD000682100FFF7B7FE002809D0194B68
:10250000194A1A4867210FF005F80068FFF7BBFE6B
:102510000400002C02D1200003B0F0BD21003800DF
:10252000FFF72AFE019B03604560089B8360099BBF
:10253000C36038682100FFF711FFA042EBD1387D5E
:10254000019A2B0000F09AFB051E01D0002E04D04A
:102550000C9B002BDFD01D70DDE73868210000F0F8
:1025600047FDF5E75874011088B601104C7301104F
:10257000F0B5DE4657464E464546E0B58FB00B9067
:102580000021794B8200D458894683E0290020003D
:10259000FFF7F2FD804602684368921BBB41002BA7
:1025A00009DD43461A685B680B9800F067FB00235F
:1025B000984600268AE0002B01D1002AF1D10021A3
:1025C000584600F00BFD0700A84215D143461A6893
:1025D0005B680892099343469E68DB689846002E24
:1025E00010D029002000FFF705FF037899461B0251
:1025F0001F432761002069E05C4B5D4A5D488E21E6
:102600000EF088FF5C4B5A4A5A4892210EF082FF26
:102610002369002B00D177E0BB4219D106980799B6
:10262000002342428B4100920193089A099B0CA817
:10263000FFF7E8FD0C9A0D9B0021049101310391F5
:1026400002954146019100962000FFF747FF16E0F2
:102650004A4B474A4748A1210EF05CFF069A079B68
:10266000002B01D1002A52D120682900FFF794FEE7
:1026700029002000FFF7BEFE03780133037000231A
:1026800023616268BFF35F8F13608AF310880120B3
:10269000002861D00CA8FFF7FDFE0C9E0D9F0022C4
:1026A0000023089209936268EFF3108A72B61368E8
:1026B000002BFCD0BFF35F8F23689B465D7B002D12
:1026C00000D063E700239846002600206368BFF32C
:1026D0005F8F00221A608AF31088002ED8D04B46F4
:1026E0001F022F4341463800B047069007916268A9
:1026F000EFF3108A72B61368002BFCD0BFF35F8F24
:10270000079B002B00DA83E7079B002BA6DD2369DC
:10271000002BA9D0BB4219D10CA8FFF7BBFE0C9A25
:102720000D9B06980799009001910CA8FFF76AFD90
:102730000C9A0D9B002104910131039102954146B1
:10274000019100962000FFF7C9FE98E70B4B084A5D
:102750000848A4210EF0DEFE0FB0F0BCBB46B24626
:10276000A946A046F0BDC0462CC8002080740110C8
:10277000B8B601104C73011098740110A4740110C4
:1027800010B50C4B5B68002B04D00B480A21FFF7F7
:1027900051FC10BD074C094A20682300102100F0AD
:1027A00088FB032000F0F6F903212000FFF73AFE32
:1027B000EBE7C0467C0D002020DA0020B12100109C
:1027C00010B5064B5B68002B01D0044810BD044BCC
:1027D000044A05485E210EF09DFEC0467C0D002097
:1027E000E07401101CB601104C730110F0B5DE4608
:1027F00057464E464546E0B58DB0060090461F0050
:10280000169B9A46179B994618AB1B78079327236C
:1028100002AA9446634400221A7021E001003000AD
:10282000FFF7E8FD00783CE00698002B5CD0079BA2
:10283000002B59D04946D04704000D0003000B433C
:1028400059D0002940DB08A8FFF724FE089A099B0D
:102850000094019508A8FFF7D5FC089B9846099FAE
:102860007268EFF3108B72B6136859424B41D9B2BC
:102870000691002BF8D1BFF35F8F273302AA94464D
:10288000634404930023039302934B4601935346FE
:10289000009342463B003000FFF720FE0400051E77
:1028A000BCD17368BFF35F8F002119608BF3108870
:1028B000002D17D0272302AA944663441B78002BCF
:1028C000B2D100022043B0E700236242AB41009244
:1028D000019342463B0008A8FFF794FC089B9846EA
:1028E000099FBDE7012040420DB0F0BCBB46B24697
:1028F000A946A046F0BD0698F6E7F0B5C64600B575
:1029000084B00500884616001F000AAB1C78FFF74C
:1029100057FF0294019700962A004346FFF766FF8F
:1029200004B080BCB846F0BDF0B5C64600B50500A1
:102930000C1E42D04268EFF3108772B61368002B6A
:10294000FCD0BFF35F8FE6B22B68984631001800C9
:10295000FFF78AFC00282AD02B69A34213D0240A4F
:10296000E4B231002800FFF745FD0378A34211D0FF
:1029700000206B68BFF35F8F00221A6087F3108816
:1029800080BCB846F0BD0E4B0E4A2C210E48FF31DC
:102990000EF0C0FD3100404600F02AFB0028E8D1CF
:1029A0000A4B084A9921084849000EF0B3FD2B69EB
:1029B000A342DED100232B61DBE70020E0E7C04625
:1029C0000475011004B601104C7301102875011034
:1029D00010B50400FFF7F4FE2100FFF7A5FF10BDBE
:1029E000407D704730B587B004000D00EFF30583DC
:1029F000002B20D106225242D31712196B418B4271
:102A000002D803D1824201D90022002304A8FFF793
:102A1000E7FB02A8FFF73EFD02980399049A059B85
:102A2000121A8B41002B0BDC08D02000290000F08B
:102A3000C9F807B030BD14480EF004FE002AF4D0E7
:102A4000124A0498059900230093FFF756FF0028C7
:102A500013DAEAE70E4B1A68EFF3108172B61368C7
:102A6000002BFCD0BFF35F8F094B1B68BFF35F8F58
:102A700000221A6081F3108820BF04980599FFF79F
:102A800067FB0028E6D0D0E72C7501106524001004
:102A900020DA002000B583B002000B006846FFF783
:102AA0000AFD00980199FFF79DFF03B000BD10B526
:102AB000FA2292000023002110F062FEFFF7EAFFE5
:102AC00010BD000030B583B005000C00EFF30583A6
:102AD000002B0FD10B4A00230093FFF70EFF0028B5
:102AE0000BDD20BFFFF774FF28002100FFF730FB4C
:102AF00003B030BDFFF72CFBFAE728002100FFF7F9
:102B000027FBF5E76524001070B5EFF3058010385A
:102B1000EFF3108C72B6194B1B68002BFBD0BFF380
:102B20005F8F01221300834015494B6315490B60E9
:102B3000154909780C00C440224213D0104A546A47
:102B4000124A8500AA58944205D3114AAA580E4C3D
:102B50009943217007E00A4A031D9B009958995038
:102B6000002200E00022BFF35F8F044B00211960B8
:102B70008CF31088002A00D0904770BD280100D047
:102B8000004005403C700540A8DA00202CDA002007
:102B90004C14002010B50100024A034B1800FEF748
:102BA00035FC10BD7C75011097DA0020044B5B6A80
:102BB000034A906A1900536A9942F9D17047C04696
:102BC00000400540084B5B6A01E0074B5B6A8B42A3
:102BD000FBD301E0044B5B6A8B4203D1024B9B6A3F
:102BE0008342F7D37047C0460040054070B50400EB
:102BF0000E00EFF3108572B61B4B1B68002BFBD049
:102C0000BFF35F8F002E1CD02000FEF737FF174B5D
:102C100083420BD019002000FEF74AFF012120005B
:102C2000FEF71CFF0123A340114A1360114BA400BF
:102C3000E650BFF35F8F0C4B00221A6085F31088BB
:102C400070BD0C4BA2000021D1500122A2400A49C4
:102C50000B7893430B7005492000FFF75BF80021C8
:102C60002000FEF7FBFEE4E7280100D0092B00104E
:102C7000386005404C140020A8DA0020F0B5DE468C
:102C800000B584B00400150001921E000293FFF706
:102C90008DFF03958E4202D84ED185424CD9EFF379
:102CA000108B72B6274B1B68002BFBD0BFF35F8FD6
:102CB000254A17780125A540EBB23B431370234BFF
:102CC0005D63221D92000199D150214AA100029812
:102CD00088501B6A2B4212D11C4B1B6C2B4208D014
:102CE0000020BFF35F8F174B00221A608BF3108810
:102CF00023E0184B184A1948C5210EF00BFCFFF7CA
:102D000055FF8E4214D802D1039B834210D80E4B3C
:102D10001B78BB420ED00D4B1D625D631F2222400B
:102D2000012393400E4A1360074B1F700120D8E720
:102D30000020D6E70120D4E7012004B080BCBB46C8
:102D4000F0BDC046280100D0A8DA002000400540B0
:102D50002CDA0020A0750110E8B60110C47501102E
:102D600080E200E0EFF3108C72B60B4B1B68002B77
:102D7000FBD0BFF35F8F01238340084A13620849E9
:102D80000A789A430A70BFF35F8F034B00221A60E0
:102D90008CF310887047C046280100D000400540E1
:102DA000A8DA002010B5002908D0037B8B4205D398
:102DB00000684B005B18033BC01810BD024B034A70
:102DC000034868210EF0A6FB8473011044B701107C
:102DD000A0730110F8B506000C001500FFF7E2FF24
:102DE0000700002C0DD0002D11D0AC4215D02900C9
:102DF0003000FFF7D7FF84703B78002B13D13D7074
:102E0000F8BD0A4B0A4A0B486F210EF083FB0A4BB0
:102E1000074A084870210EF07DFB084B044A05481C
:102E200071210EF077FB43703D70E9E7EC73011000
:102E300030B70110A0730110F87301100474011071
:102E400070B506000D001400002914D0002A14D01B
:102E5000436880689847002806D022002900300087
:102E6000FFF7B8FF280007E02A0021003000FFF735
:102E7000B1FF200000E0100070BD0800FCE770B555
:102E800005000023437301338373037BC373012461
:102E900006E021002800FFF785FF0134E4B244700A
:102EA000297BA142F5D82800FFF77CFF002343705F
:102EB00070BD10B5017342608360FFF7E0FF10BD85
:102EC000F0B5C64600B505000C1E03D1200080BC3D
:102ED000B846F0BDFFF766FF4678002EF6D0310009
:102EE0002800FFF75FFF47780023984643702100D2
:102EF0002800FFF757FF43464370320021002800A7
:102F0000FFF79EFF040039002800FFF7D9FF0200F9
:102F100021002800FFF794FF0400D7E7F0B5C6466C
:102F200000B504000D001700002927D0FFF73AFF75
:102F30004378002B28D18378002B2BD101782000F7
:102F4000FFF7BEFF06008046002F0AD0E17B002974
:102F500026D1A37B002B03D1E37B002B25D1A573C6
:102F6000E5734346002B26D129002000FFF71AFF06
:102F700000234370300080BCB846F0BD114B124AAC
:102F8000124838210EF0C6FA114B0F4A0F483A2169
:102F90000EF0C0FA0F4B0C4A0C483B210EF0BAFA67
:102FA0002000FFF7FFFE4570D3E70B4B064A0748AA
:102FB00042210EF0AFFA31002000FFF7F3FE0023AC
:102FC0008370D1E7087601101CB70110107601104C
:102FD00048760110707601104474011070B5040039
:102FE0000A00457B2900FFF799FF6073280070BD38
:102FF00070B506000C1E40D0437B8B4207D0FFF714
:10300000D1FE05008178002906D1002036E001219B
:10301000FFF7E4FF012031E03000FFF7C3FE017845
:10302000A1420DD03000FFF7BDFE4178A1420AD089
:103030000029F7D1124B134A13486B310EF06AFA8C
:103040006B78037001E06B7843700023AB706B709A
:10305000012221003000FFF761FF0200717B8142F5
:1030600005D03000FFF7ECFE7073012006E0074B3F
:10307000044A054871210EF04DFA002070BDC0468B
:103080007872011004B701101076011094760110C7
:10309000F0B5C64600B504000E0017001D00374805
:1030A0000FF012FC8046364BFA18364B9A4239D84C
:1030B000010038000FF008FC0200103A98235B0072
:1030C0009A4235D86B1E062B38D8069B013B062B3F
:1030D00034D83F09474537D32D04069B1B031D43B6
:1030E0002368002B36DB284B9C4244D080235B01B5
:1030F000264A1360264A1360264A926819009143B3
:10310000FAD12660A060221DC0239B011343212217
:103110001A602268002AFCDAE56008221A6080BC86
:10312000B846F0BD1C4B1D4A1D4811210EF0F2F9A6
:103130001C4B1A4A1A4819210EF0ECF91A4B174A7F
:1031400017481C210EF0E6F9184B144A14482321A5
:103150000EF0E0F922683F231340B342C3D1A368C5
:103160001B051B0D8342BED1E368EE22D202134041
:10317000AB42B8D1D3E780239B01B9E7001BB7006E
:1031800080E84BD380F8A93200C0024000E0004044
:1031900000F0004000C00040B476011050B70110AC
:1031A000147701105477011070770110BC7701106B
:1031B00080239B000343014AD3627047008005408F
:1031C000024B1A68024B5A607047C046142E00200A
:1031D0000080054010B5174B8022D2051A60164BAF
:1031E000164A1A6000290AD0154BE022D2041A6050
:1031F000002809D1124B802212061A6010BD0D4B17
:10320000E022D2041A60F3E743011B1A9B0018184E
:1032100000010C4B186080235B04984202D3094BD9
:10322000094A1A60FFF7CCFF054B8022D2051A60CD
:10323000E4E7C04600B0054008200140FCFF010063
:1032400000A00540142E0020FFFFFF0010B5030072
:1032500010000C4A8024E4051460002B0DD00122DC
:103260001343094A094CD461094C5C401462516211
:1032700093620021FFF7AEFF10BD034B0022DA611D
:10328000F7E7C04600B0054000800540D3C007B056
:103290002D3FF84F064BAA2212011A602F22DA6046
:1032A000044B054A1A60024B5B68002BFBDA70473F
:1032B000004002400060024000B0FA0010B501F08A
:1032C0008DFC00F00BFC00F0E1FD00F07DFE05F050
:1032D0009BFD01F041FD00F064FA05F0CDFC10BD4E
:1032E0000302000A184380B27047030000061A0266
:1032F000FF2109040A4010431A0AFF2109020A406B
:1033000010431B0E18437047F8B5CE46474680B5AC
:1033100080460F009146080013F056FA061E17D09B
:10332000444600E001342578002D17D0A319424609
:103330004A4493420AD83B78AB42F3D13200390079
:10334000200013F06FFA0028ECD102E0002400E026
:1033500044462000C0BCB946B046F8BD0024F8E79A
:1033600030B501E0002C14D0047801300B78013125
:103370009C42F7D020222243D2B21500613DEDB22B
:10338000192D08D820252B43DBB29A42EAD0012020
:1033900000E0002030BD0120FCE7000000280AD03A
:1033A000C07A002809D1431C054A9B009B58002B7A
:1033B00004D0012002E0002000E000207047C04659
:1033C0003821002010B5FDF7A5FF80B2002301E0F1
:1033D0000133DBB2032B10D8084A1901C9180901BF
:1033E0005218927A022AF3D1044A1901C918090124
:1033F000521812898242EBD1E5E710BD402100202E
:10340000F0B5D6464F464646C0B50600884600246D
:1034100001E00134E4B2032C25D8334A63001B19C0
:103420009B009F58002FF4D01300620012199200E5
:103430009B181B7AB342ECD1300180190001103087
:103440002A4BC018284A630099461B199B009246D4
:1034500053445A684146B84723004B449B0000221E
:1034600051465A50D5E7002301E00133DBB2032B6C
:1034700018D8B342F9D01D4A1901C91809015218C8
:10348000927A022AF1D119491A01D21812018A1826
:10349000D07B3201921912018918CA7B9042E4D183
:1034A0000422CA73114B3201921912019B18DB7B63
:1034B000032B04D9E0BCBA46B146A846F0BD0C4C7B
:1034C0009B00185905F096FF084B3201911909012C
:1034D0005918C97B890000200851921912019B18C4
:1034E0000422DA73E6E7C0460821002040210020CC
:1034F000F8200020F0B5D6464F464646C0B584B009
:103500008046564B0201424412019B18DB7A012B84
:1035100033D8534A9B009B58002B31D007014744B6
:103520003F0110374D4BFF18380013F04DF9A02222
:10353000123081B29200362000F0DCFF051E00D16F
:1035400089E001AC0C220021200010F0D7F9434B98
:1035500042461201424412019B181889FFF7C0FE2F
:1035600020800123A370FF33A3800C2221002800B8
:1035700001F0E2F9013F0C2638E03A480EF062F81B
:103580000021FFF73DFF354B424612014244120134
:103590009B1800229A720024200004B0E0BCBA46B6
:1035A000B146A846F0BD0134E4B201373B782E2B7A
:1035B00001D0002BF7D14B46FB1A9BB29A46331928
:1035C000294A934216DC22003100280001F04EFA0D
:1035D000731C9BB252464946280001F0F9F9A41920
:1035E000A4B2661CB6B23B78002B09D00137B946AD
:1035F0000024DBE7280000F03FFF06246442CBE70D
:1036000000223100280001F031FA0234A3B28022F6
:10361000520069460A804A80FC3A280001F0D8F935
:103620000E4B424612014146511809015918C97BF7
:10363000424412019B18DA7A9200094BD2180B4BC4
:103640008900C8583523290005F04CFE04002800E5
:1036500000F012FFA0E7012464429DE74021002012
:1036600038210020D8770110FEFF0000F82000204C
:1036700070B5040003011B181B0141481818032CE6
:1036800020D83F4A2101091909015218927A022AC9
:1036900034D01AD8002A14D0012A00D06CE0FFF7E9
:1036A00091FE374A21010B191B01D3181881022002
:1036B00098720020D87201251D7358732000FFF7FF
:1036C00019FF70BD2F480DF0BDFF032A54D12C4ABD
:1036D00023011B191B019B58002B07D0013B110034
:1036E0002201121912015350002BEAD1244B22015E
:1036F000121912019B1800229A72E2E72049220156
:103700001219120189180A7B013AD2B20A73002AEF
:10371000D7D11B4922011219120189184A7B0132A3
:10372000D2B24A73042A09D0154B210109190901A3
:103730005B181A732000FFF7DDFEC2E7FFF72EFECD
:1037400000280DD00E4A21010B191B01D318D87A7D
:103750000130D872012018731A0000235373E9E76F
:1037600000212000FFF74CFE054B22011219120127
:103770009B1800229A72A4E703480DF063FFC0462D
:1037800040210020F07701100C78011010B50024C2
:1037900004E02000FFF76CFF0134E4B2032CF8D9F9
:1037A00010BD7047012800D97047002904D0054B8F
:1037B00080000A68C250F7E7024B8000024A126894
:1037C000C250F1E73821002088B9011010B5FFF789
:1037D000DDFF10BD70B5002501231E000640184214
:1037E00005D0002903DD05782D02013901300322BF
:1037F00013000340104209D0012903DD0388023978
:10380000023003E0002301E00839200007290CDD25
:103810000268D218934200D9013204000834436888
:103820009B189A42F0D90133EEE71A0C1B041B0CCB
:10383000D31803E002889B18023902300129F9DC11
:10384000002904DD0278FF218D431543ADB2ED1848
:103850002B0C2D042D0C5B19180C1B041B0CC01811
:10386000002E05D003061B0C020AFF20104018434F
:1038700080B270BDF8B5CE46474680B50500894692
:1038800090461C00002700E02D68002D15D06868C8
:103890006E893100FFF79EFF0019040C0004000C34
:1038A0002418F607F0D57B425F41FFB223061B0CBC
:1038B000220AFF2414401C43E6E7002F05D023060C
:1038C0001B0C220AFF2414401C434846FFF708FD46
:1038D00024184046FFF704FD2018030C0004000CD8
:1038E0001B18180C1B041B0CC018C04380B2C0BCB2
:1038F000B946B046F8BD70B51B681C04240C1B0CFF
:103900001C19049B1B681D042D0C2C191B0C1B1966
:103910001C0C1B041B0CE418230C2404240C1B1982
:10392000FFF7A8FF70BD10B582B0049C0094FFF7AC
:10393000E2FF02B010BD10B5FFF74CFFC04380B2EC
:1039400010BDF8B505000026002400E02D68002D0C
:1039500015D068686F893900FFF73CFF0019040C27
:103960000004000C2418FF07F0D573425E41F6B244
:1039700023061B0C220AFF2414401C43E6E7002EFA
:1039800005D023061B0C220AFF2414401C43E043ED
:1039900080B2F8BD014B1B68181870473CC8002066
:1039A000024B1B68C01A80B27047C0463CC800205A
:1039B000F8B50400FFF7F4FF050027883800FFF78B
:1039C000E9FF060064882000FFF7E4FFFA231B01EB
:1039D0009F420FD89C420FD8AC4202D00388AB4222
:1039E0000CD1094B1B68B3420AD07388AB4209D192
:1039F000012000E00020F8BD0020FCE70020FAE7ED
:103A00000120F8E70020F6E740C8002070B5040068
:103A10002B4B1B68834240D82A4B1D6885423FD9F7
:103A20000379002B3FD10088FA231B0198423DD82F
:103A3000FFF7B0FF844215D00379002B12D18542E5
:103A400010D0214B1B68834233D000882080FA239A
:103A50001B01984206D0FFF79DFF05002000FFF7ED
:103A60009FFF68806088FFF795FF0500844213D0B0
:103A70000379002B10D1144B1B68A3421CD0208863
:103A80002880FA231B01984206D0FFF783FF040029
:103A90002800FFF785FF608070BD0C480DF0D2FD57
:103AA0000B480DF0CFFD0B480DF0CCFD0A480DF092
:103AB000C9FD054B1C60C8E7034B1860DFE7C04633
:103AC0003CC8002040C80020102E00202C78011097
:103AD00044780110607801107C78011070B50B4CAF
:103AE00003239C430A4B1C60FA252D0125800023EB
:103AF000638023712800FFF74DFF064B18600123F8
:103B0000037105804580044B1C6070BD47C80020D0
:103B10003CC8002040C80020102E002070B5041EB4
:103B200023D0830722D10500083D164B1B68AB420A
:103B30001FD803000C33144A1268934219D80300AB
:103B4000083B1B79002B17D02800FFF731FF002816
:103B500015D0083C002323710C4B1B68AB4201D9E4
:103B60000A4B1D602800FFF751FF70BD08480DF09B
:103B700069FD08480DF066FD07480DF063FD074834
:103B80000DF060FD3CC8002040C80020102E002031
:103B9000A8780110CC780110E87801101079011094
:103BA000F0B5C64600B50500CC1CA4B203239C4367
:103BB0000B2C05D9FA231B019C4202D900253FE0BA
:103BC0000C248C4200D277E03C4B1B68AB423BD8C4
:103BD0003B4B1B68AB4237D92F00083F3800FFF73B
:103BE000DFFE06003F883B1A9BB2083B9BB298461B
:103BF0009C422CD824D03800FFF7CCFE0379002B50
:103C000031D1FA231B019F4224D00788A419A4B202
:103C10000834A4B22B4B1B6883421ED02000FFF750
:103C2000B9FE00230371078046802B00083B1C80EF
:103C30000088FA231B01984202D0FFF7ABFE4480B4
:103C4000280080BCB846F0BD1F480DF0FBFC1F48A3
:103C50000DF0F8FC1E480DF0F5FC2000FFF79AFE71
:103C6000184B1860DAE7230014334345E8D8A41949
:103C7000A4B20834A4B2FA231B019F4219D0200039
:103C8000FFF788FE0F4B1B68834201D90D4B18606C
:103C9000002303712B00083B1A88028046801C8099
:103CA0000088FA231B019842CAD0FFF773FE4480B4
:103CB000C6E707480DF0C6FC0025C1E73CC8002058
:103CC00040C80020102E0020447901105C790110BA
:103CD0007C790110F0B5CE4600B582B0002800D145
:103CE00082E0C61CB6B2032296430B2E05D9FA23F6
:103CF0001B019E4202D9002072E00C26864200D2AF
:103D000074E03B4B1B6899461800FFF749FE07001B
:103D100031E038480DF096FC01230371A1450FD026
:103D200065190835344B1B689D421DD8A3071ED169
:103D30002000083054E04B461888FFF72BFE8146E0
:103D40004B461B79002B03D02B4A12684A45F2D10F
:103D5000274A49461160284A12684A45E0D0002B9C
:103D6000DED026480DF06EFC25480DF06BFC254892
:103D70000DF068FC278801973500FA231B019B1B77
:103D80009F422CD23800FFF705FE04000379002B78
:103D9000F0D10388019A9B1A083BAB42EAD32A0070
:103DA00014329342B8D3BE19B6B20836B6B2FA236B
:103DB0001B019E42ADD03000FFF7ECFD00230371E4
:103DC0002388038047802680012323710088FA23FB
:103DD0001B019842A2D0FFF7DDFD46809EE7002040
:103DE00002B080BCB946F0BD0020F9E70020F7E73B
:103DF000102E00207C79011040C80020907901101D
:103E0000AC790110DC79011010B50400FCF7B8FEA4
:103E1000E3681C68002C0AD022681A60A30703D14B
:103E2000FCF7B0FE200010BD02480DF00BFCFCF7C3
:103E3000A9FEF7E70C7A011070B505000C008B079E
:103E400009D1FCF79DFEEB681B682360EB681C60E2
:103E5000FCF798FE70BD01480DF0F4FB307A0110BC
:103E6000C36800221A60836803330332934300223D
:103E700007E0C16809681960C1680B6081885B1838
:103E80000132C1889142F4DC7047000010B5002473
:103E900006E0054BA200D058FFF7E2FF0134A4B2C0
:103EA000082CF6D910BDC0465CB7011010B5082823
:103EB00005D8054B8000C058FFF7A6FF10BD03488A
:103EC0000FF0B2FE0020F9E75CB70110507A011044
:103ED00010B5082807D8002904D0054B8000C05829
:103EE000FFF7AAFF10BD03480FF09EFEFAE7C04699
:103EF0005CB70110707A01100B688268934202D09F
:103F00008360012070470020FCE70B68C268934281
:103F100002D0C360012070470020FCE70C20404223
:103F2000704770B504000D0001F092FA29002000DE
:103F300005F090FA2900200000F034FE70BD00006A
:103F400010B500280DD03923C25C343B1340052B3B
:103F500006D1C90704D54368002B01D0120703D44A
:103F600010BD03480DF06EFB011D06F04DFEF7E796
:103F7000F07A011030B583B005000C001000002964
:103F800008D0002A09D00A686B689A4208D100203C
:103F900003B030BD0B480DF055FB0A480DF052FB45
:103FA0000192036001A9FFF7BCFF23686B60012148
:103FB0002800FFF7C5FFEB69002B01D028009847C8
:103FC0000120E5E7147B011070470000F0B5C646FC
:103FD00000B582B005000C0017001E00002920D09B
:103FE000002F20D0002E20D0002C02D02368002BE0
:103FF0001DD101AA21002800FFF7BCFF012398462C
:10400000002239002800FFF777FF00223100280046
:10401000FFF77BFF4346002B0CD002B080BCB846B4
:10402000F0BD074CDCE7064FDCE7054EDCE700237C
:104030009846E5E701AA21002800FFF79BFFECE77F
:1040400088B90110F0B5C64600B504000E0017008F
:104050009846002832D0079B002B34D0002937D057
:10406000002F37D04346002B36D000256560A56071
:10407000E560354B6361258600223923E254200038
:104080002830042200210FF039FCE5612562069BEF
:1040900063622E4B1A783C23E254089B236143460B
:1040A0003A0031002000FFF791FF2000079B98475E
:1040B000002823D0002080BCB846F0BD24480FF073
:1040C000B3FD2000F7E723480FF0AEFD0020F2E734
:1040D000214EC5E7204FC5E71F4B9846C5E7C33BB8
:1040E0000022E2540EE01D480DF0ACFA1C480DF021
:1040F000A9FA01313C22A154002B15D03C23E35CEA
:10410000FF2BECD0174B1D682B000022002BF3D0A7
:104110009C42E8D00132FF2AE8DC3C21585C615C1B
:104120008842E6D01B68F1E73C33E35CFE2B07D006
:104130000133064A137025600A4B1C602000BAE761
:10414000024B00221A70F6E71D3F0010A0DA002093
:10415000247B0110407B011088B90110647B0110A1
:10416000787B011018C80020014B18607047C046CA
:1041700014C8002010B5041E10D03923C35CDA0720
:104180000BD40122134339228354C369002B00D07E
:10419000984703212000FFF7D3FE10BD01480FF020
:1041A00043FDFAE7A87B011010B5041E10D0392397
:1041B000C35CDA070BD501221900914338328154D0
:1041C0001B0709D4E369002B01D02000984710BDDC
:1041D00003480FF029FDFAE706F068FCF2E7C04655
:1041E000C47B011010B5041E28D04368002B12D1E7
:1041F0003923E35CDB0713D4114B1B68A34213D0B4
:10420000104B1B68A34213D0002B17D01A68A24290
:1042100012D01300F8E704300021FFF782FEE7E731
:104220002000FFF7C1FFE7E70020FFF79DFFE7E76A
:104230002268044B1A6001E022681A6010BDC04673
:1042400014C8002018C8002010B5041E04D039235B
:10425000C35C5A0704D510BD09480FF0E5FCFAE726
:10426000042213433922835406F02EF80321200040
:10427000FFF766FE236A002BEDD020009847EAE79F
:10428000E47B011010B500280CD03923C35C5A0719
:1042900007D50422934335328354036A002B00D0A0
:1042A000984710BD01480FF0BFFCFAE7087C0110E9
:1042B000021E0BD0064B1868002808D03C23C35CB4
:1042C0000133DBB2934202D00068F5E7002070476B
:1042D00018C8002030B504AC257800240460416083
:1042E0000281438103AB1B780373457301238373FE
:1042F000C47330BD02E0C91A89B20068002802D038
:1043000043898B42F7D9002A00D011807047000002
:1043100010B5FCF735FC034B01221A70FCF732FC98
:1043200010BDC046A2DA002070B500281AD0802344
:104330005B02994221D2002921D08CB203891B193A
:104340009BB2A3421DD30C254557002D0DDB002A3F
:1043500019D04268511A4160428912194281038181
:1043600000200BE009480DF06DF94268511A020077
:1043700010328A42EFD9012000E0012070BD0020F8
:10438000FCE70120FAE70120F8E7C0462897011072
:1043900010B5FCF7F5FB084B00221A70FCF7F2FB96
:1043A000064B186800E0C068002804D0436F002B5B
:1043B000F9D000F0CBFE10BDA2DA00203CDA0020DC
:1043C000F0B583B007000E001500412A01D0012A84
:1043D0000FD10720FFF76AFD041E07D000230193C9
:1043E0000095330032003900FFF774FF200003B05E
:1043F000F0BD01480DF026F92C7C011010B500220B
:10440000FFF792FF10BD000010B5002813D08023E5
:104410005B02994217D2002917D08AB2438993428E
:104420000CD34468611841609B1A438103899B1A2D
:104430000381002010BD06480DF004F905480FF077
:10444000F3FB0120F6E70120F4E70020F2E7C04685
:1044500028970110407C011010B5002902DBFFF7FE
:1044600063FF10BD4942FFF7CFFFFAE710B5012205
:10447000FFF7F2FF10BD000070B5051E01D0002649
:104480000CE019480DF0DEF818480DF0DBF82900B3
:104490000820FFF71DFD0136F6B22500002D21D0C2
:1044A000FCF76EFBAC7B002CEED0013CE4B2AC73AD
:1044B000FCF768FB002C15D12C682A7B0F231340D6
:1044C000022BE4D0012B05D0002B08D12800FFF7E8
:1044D00025FBE0E729000720FFF7FAFCDBE70448AB
:1044E0000DF0B0F8300070BD28970110607C01100D
:1044F000787C0110F0B5D6464F464646C0B582B02E
:1045000005000F0090460400C1235B009A4240D092
:1045100011D8012A02D0412A00D07BE0424639005E
:104520000020FFF74DFF8146484602B0E0BCBA4686
:10453000B146A846F0BDA0239B009A426AD1C31C95
:1045400003218B43FA1C90B288431B189BB21800BE
:10455000103080B28A4393425FD3824260D8FFF723
:10456000B9FB81460028DFD01035290049440331CA
:104570000324A14300230193434600933B003A00E8
:10458000FFF7A8FE4B465B682342CDD026480DF0CE
:1045900059F800250023994625E0FFF7B9FE4B4660
:1045A000002B02D04846FFF767FFA946BCE7B6B22A
:1045B0001034291903310324A143002301934346F6
:1045C000009333003A002800FFF784FE6B68234213
:1045D0001BD14B46002B1BD053461D60BF1BBFB2E7
:1045E0000024002FA0D0AA460820FFF75FFC051E7C
:1045F000D3D0E21C03239A4392B20C4B9B1A9BB27A
:104600001E1CBB42D3D93E1CD1E709480DF01AF855
:10461000A946E3E707480DF015F80023994683E71C
:104620000023994680E7C046F07C0110EC050000AD
:104630008C7C01101C7D011070B5041E12D0008905
:10464000884220D90D006389AB420ED2ED1AADB27B
:1046500023890A1A9B1823812468002CF3D113485C
:104660000CF0F0FF12480CF0EDFF227B120701D195
:10467000AB4209D1658125812068002801D0FFF770
:10468000FBFE0023236070BD6168091B691889B2B5
:104690002000FFF785FA002804D08442EAD00548BC
:1046A0000CF0D0FF04480CF0CDFFC046507D011047
:1046B000387D0110847D0110687D01100300002009
:1046C00002E0013080B21B68002BFAD17047000075
:1046D00010B5041E09D0FCF753FAA37B0133A37372
:1046E000FCF750FAA37B002B00D010BD01480CF062
:1046F000A9FFC046A07D011010B5002801D00029F7
:1047000008D10C480FF090FA0FE003890C891B19AF
:10471000038110000268002AF7D10389428993427D
:1047200004D10A899B180381016010BD02480CF076
:1047300089FFC046B47D0110EC7D011010B50C005E
:10474000FFF7DAFF2000FFF7C3FF10BDF8B5CE4634
:10475000474680B506000D1E914698460AD00A8944
:104760004A4507D300280BD002894B449A4207DB05
:10477000002726E03D480FF057FA1020404270E035
:104780003B480FF051FA102040426AE039480CF0E3
:1047900059FF39480CF056FF4B46002B36D1002705
:1047A000424539D0002D03D06A892B899A4245D0E1
:1047B000002E03D0728933899A4248D04B46002B91
:1047C0004ED0738942469B1A6A89D21B934200D30A
:1047D00013004C46994500D91C0070686968404434
:1047E000C91922000FF090F8A0443F194B461C1B3A
:1047F000A3B2994672894245C8D36B89BB42C8D3DC
:10480000CED82D68002DC7D00027C9E71B480FF070
:104810000BFA1020404224E03668002E02D000231C
:104820009846BFE74B46002B02D100239846B9E7D4
:1048300013480FF0F9F91020404212E02B68002BCA
:10484000B6D010480FF0F0F90620404209E0336876
:10485000002BB3D00B480FF0E7F90620404200E0F0
:104860000020C0BCB946B046F8BDC0461C7E011051
:10487000507E0110807E0110987E0110B47E0110E0
:10488000C47E0110D47E011010B5002904D00A891D
:104890000023FFF75BFF10BD02480FF0C5F91020A1
:1048A0004042F8E70C7F0110F8B5CE46474680B588
:1048B000051E8846914604D000290BD0002700260B
:1048C00024E019480FF0B0F900273800C0BCB94601
:1048D000B046F8BD15480FF0A7F90027F5E76C8939
:1048E000E41AA4B2A14500D24C4669684246901928
:1048F000C91822000FF008F8E719BFB23619B6B28E
:104900004B461C1BA3B2994600232D684A46002A39
:10491000DBD0002DD9D0002BE1D06A899A42DED8B5
:104920009B1A9BB2F1E7C046287F0110487F011017
:1049300010B5FFF7DFFC10BDF8B5CE46474680B591
:104940000500884616009146002806D000290AD0A6
:10495000038993420DD300271DE018480FF064F936
:104960001020404223E016480FF05EF9102040422C
:104970001DE014480FF058F90120404217E012489A
:104980000CF060FE68684346D91922000EF0BCFFA7
:10499000361B3F192D68002E06D0002DEFD06C89F4
:1049A000B442EFD33400EDE74F4504D10020C0BC42
:1049B000B946B046F8BD05480CF044FE6C7F0110C6
:1049C000847F0110A07F0110C07F0110D87F0110EB
:1049D000F0B583B00F00140019006B469A1DFFF765
:1049E000A7FF061E24D001896B4606331B881A19BF
:1049F000914220DB7589AB4211D2EA1A944211DD53
:104A000095B27068C0182A0039000EF07DFF621B55
:104A100092B27919002A07D1002003B0F0BD0748EF
:104A20000CF010FE2500ECE73068FFF785FFF4E797
:104A300001204042F1E701204042EEE7F07F011003
:104A400070B50B00150011891A00FFF753FD041E05
:104A500004D02900FFF718FF002801D1200070BD05
:104A600001480CF0EFFDC0460880011010B582B07F
:104A700014006B469A1DFFF75BFF002807D04289A0
:104A80006B4606331B889A4201D94268D45402B05F
:104A900010BD000010B5027A002A07D0134B5C68E5
:104AA0003C23E35C0133DBB29A4213D1002906D0E8
:104AB000002811D00368002B10D000200BE0002844
:104AC0000ED00368002B0DD0084A526993420BD0D8
:104AD000080000E0002010BD0120FCE70120FAE7FB
:104AE0000120F8E70120F6E70120F4E7F82D002087
:104AF000F0B5D6464F464646C0B58046254B1968A8
:104B0000586907F03EFB070043465B685E7A224B1C
:104B10001C6800239946002515E063699A46002B1E
:104B20000FD043465B6899461C4BA0694246210062
:104B3000D04700281BD143465B684B4527D1022351
:104B400099462500E468002C1BD0237C9E42F8D1B6
:104B500039002000FFF79EFF0028F2D0637CDB07BE
:104B6000DBD562680B4B1B699A42EAD1D5E7002D71
:104B700005D0E368EB60084B1A68E2601C60012313
:104B800099464846E0BCBA46B146A846F0BD04483E
:104B90000CF058FDF82D002000D80020082E002031
:104BA0001C80011010B5002814D00368002B11D010
:104BB00000290FD00B68002B0CD0074B1B6800E0BE
:104BC000DB68002B06D01C6802689442F8D10A68A2
:104BD0001A60F5E710BDC04600D8002070470000FD
:104BE00010B5002409E0154B154A1A800DE0013478
:104BF000A4B28023DB019C421DD2104A13880133EA
:104C00009BB213800F4A9342EDD0002003280FD8A7
:104C10000D4B8200D3581B68002B06D0D98A074A57
:104C200012889142E3D0DB68F6E70130C0B2EDE7CD
:104C3000024B188810BD0020FCE7C046A80D0020DC
:104C400000C0FFFFFFFF000010B8011010B50029E1
:104C500003D106480CF0F6FCC068002805D0C36FED
:104C60008B42F9D10023C367F6E710BD68800110BD
:104C700070B5051E04D0037D012B04D101240DE085
:104C800008480CF0DFFC08480CF0DCFC074BA200E5
:104C9000D35818682900FFF7D9FF0134032CF5D940
:104CA00070BDC046908001109C80011010B80110AA
:104CB00010B50100037D012B03D00320FFF708F995
:104CC00010BD01480CF0BEFCB480011070B5041E8C
:104CD00009D0037D042B13D0072B18D0032B05D04C
:104CE0000025280070BD11480CF0ACFC03F048FB17
:104CF000051E13D105232375200003F0B9FCF0E74E
:104D000003F03EFB051E09D105232375F4E703F0EC
:104D100037FB051E02D109232375EDE76B1CE0D19B
:104D2000638B0822134363830025DAE79080011028
:104D300010B5084B186800E02000002809D0C468AE
:104D4000438B1A07F8D5082293434383FFF7BEFF2E
:104D5000F2E710BD3CDA002010B5FCF7DBFA800466
:104D6000800C034B9C466044024B188010BDC0462B
:104D700000C0FFFFA80D002010B50100037D012B2E
:104D800003D00220FFF7A4F810BD01480CF05AFC34
:104D9000D080011070B506000D1E0ED0002E0ED072
:104DA000337D002B11D1002A15D00020032816DCFA
:104DB000234B8100CB581B6821E0224DEEE72248AF
:104DC0000EF032FF1020404217E020480EF02CFF7A
:104DD0000620404211E0FFF703FF021E23D0002D02
:104DE00003D02B68002B00D03360F282184B1A6876
:104DF000F2601E6003F002FF002070BDDB68002B34
:104E00000FD0DC8A9442F9D11C68002C0ED0002D02
:104E10000FD0296800290FD08C42EFD108204042E2
:104E2000EBE70130C2E702204042E6E708204042BB
:104E3000E3E708204042E0E708204042DDE7C046C3
:104E400010B8011088B90110E4800110FC80011035
:104E500040DA002070B504001600002829D0037D38
:104E6000002B2DD1012B4BD00320FFF71FF8051E7F
:104E70004AD023690361E38AC38201230375637DFA
:104E80004375637A4372237A0372E37AC372A37A17
:104E9000837223680360E38A002B20D01C4B1B68BD
:104EA000A34214D0002B18D0D968A14213D00B0014
:104EB000F8E718480EF0B8FE250010235B421AE010
:104EC00015480EF0B1FE0F235B42002513E0DA68AF
:104ED0000F4B1A6001E0E268DA600023E360200013
:104EE000FFF74AFF0D4BAB610D4B1A68EA601D607E
:104EF00003F084FE0023002E00D03370280070BD24
:104F0000050009235B42F6E701235B42F3E7C04655
:104F100040DA0020248101105481011075530010E3
:104F200048DA002010B50022FFF794FF10BD000002
:104F3000F8B5002816D0456A068DA919C26A448EB4
:104F4000231C0E4FBC4200D93B1C9BB2D318CB1A7A
:104F50000BD5521B0CD480235B029A420BD24285A4
:104F60000020F8BD06480CF06DFB4685881AF8E76E
:104F700000234385F4E703480CF064FBD0160000DF
:104F80008C810110B081011010B5041E13D0037D77
:104F9000012B14D0038D591889B20F4A914201D8C0
:104FA0008B420FD90C4B23852000FFF7C1FF0B4B21
:104FB000984209D810BD0A480EF036FEFAE70948B3
:104FC0000CF040FB0185EFE7638B02221343638300
:104FD000200003F04DFBEDE7A02D0000670B000063
:104FE000CC810110E481011010B5041E08D0406886
:104FF000002801D0FFF740FA21000420FEF768FFE7
:1050000010BD10B503E00468FFF7EEFF2000002894
:10501000F9D110BD10B5002801D0417510BD02486E
:105020000EF002FEFAE7C0460C82011070B5051EB4
:105030000DD00420FEF73AFF041E06D014222900EA
:105040000EF062FC6068FFF743FB200070BD014872
:105050000CF0F8FA28820110002800D00161704796
:1050600010B5002804D0037D012B02D08423C15049
:1050700010BD01480CF0E6FA4482011010B500287A
:1050800004D0037D012B02D08023C15010BD014804
:105090000CF0D8FA6C82011010B5002804D0037D02
:1050A000012B02D09023C15010BD01480CF0CAFA68
:1050B00094820110002802D0037D012B00D070479C
:1050C0008161FCE710B5002806D0037D012B07D0D5
:1050D0008C23C150427710BD03480EF0A5FDFAE7BE
:1050E00002480CF0AFFAC046BC820110D482011015
:1050F00010B5002806D0054B054A186812688018BC
:10510000186010BD03480CF09DFAC046A40D0020A5
:105110004CDA0020F482011010B5002A0ED00029CC
:105120000BD00B8E002B08D0282B0AD9283B9BB222
:105130001A1C834200D9021C90B210BD02480CF028
:1051400081FA0023F4E7C0461083011010B5040073
:10515000406F002803D0FFF754FF0023636710BDA2
:1051600010B5041E22D0037D002B1ED00A2B1CD0AC
:10517000012B1AD0806F002803D0FFF77DF90023A0
:10518000A367636F002B02D02000FFF7DFFF01232E
:105190005B422386E06EFFF734FF206FFFF731FF9D
:1051A0000023E36623676822A35210BD01480EF076
:1051B0003BFDFAE73883011010B50C1E0BD0002818
:1051C0000CD003688B420CD0002B0FD0DA68A242BF
:1051D0000AD01300F8E71C480CF034FA1B480CF016
:1051E00031FADB68036001E0E268DA600023E36023
:1051F0002000FFF7B5FF237D0A2B04D0012B02D03E
:10520000638BDA070FD4237D012B08D0E36E002BCC
:1052100010D1236F002B10D1636F002B10D100230E
:105220002375E38210BD022213436383200003F041
:105230001FFAE8E706480CF005FA06480CF002FAF7
:1052400005480CF0FFF9C04654830110708301102B
:1052500090830110A8830110C4830110F0B5D646D5
:105260004F464646C0B584B004000D0000281CD04F
:10527000037D012B1DD00A2B1ED0026D9046426A81
:105280009146902286580769002B47D1C38A9A46D7
:10529000002B4DD02E4B1B68834215D0002B19D00C
:1052A000DA68A24214D01300F8E72A480EF0BCFCDA
:1052B0002EE029480CF0C6F928482100FFF77CFFB2
:1052C0002000FFF759FD23E0DA68214B1A6001E066
:1052D000E268DA600023E3609A460025206F002828
:1052E00001D0FFF78EFEE06E002801D0FFF789FEA7
:1052F000606F002801D0FFF784FE002D1AD1200036
:10530000FFF73AFD002E03D00D2149423800B04787
:1053100004B0E0BCBA46B146A846F0BDC38A9A467E
:105320000F482100FFF748FF0E4B01221A70D5E706
:105330000025D3E7231D228B02925246019200934F
:1053400023004A464146200003F02AF9D7E7C04629
:1053500040DA0020DC830110F883011050DA0020CD
:105360003CDA0020A5DA002010B50121FFF776FF16
:1053700010BD000010B5081E04D0FFF7F5FF0D208A
:10538000404210BD01480CF05DF9C0462C8401106C
:1053900010B50B4B1B680024002000E0DB68002BDD
:1053A00008D0196A074A1268521AA242F6D31400AA
:1053B0001800F3E7002801D0FFF7D6FF10BDC04664
:1053C00050DA00204CDA002070B543B2002B02DB2B
:1053D000002801D11FE07F200138C2B20E4B1B68AC
:1053E0000024002006E00D4A12681C6A141B0A0003
:1053F0001800DB68002B0AD0597D9142F3D3F8D115
:105400001E6A064D2D68AD1BA542F2D3EBE70028BE
:1054100001D0FFF7A9FF70BD3CDA00204CDA002074
:1054200070B504000800002C06D108480CF00AF9F9
:10543000C568FFF799FF2800002805D00268236897
:105440009A42F5D0C068F7E770BDC0464C840110A1
:1054500070B504000D00002802D00368002B00D1B5
:1054600070BD0D4B1968FFF7DBFF0C4B196820006E
:10547000FFF7D6FF002DF3D02B68002BF0D0084BA0
:105480001B6800E0DB68002BEAD0196822689142B3
:10549000F8D12A681A60F5E73CDA002040DA0020EB
:1054A00048DA002070B501000300083BDBB2012B95
:1054B00004D80E4B1B680025002003E00C480CF0BC
:1054C000C1F8DB68002B0BD01A7D8A42F9D11C6A27
:1054D000084A1268121BAA42F3D315001800F0E71D
:1054E000002802D00021FFF7B9FE70BD3CDA002091
:1054F000808401104CDA002070B505000220FEF710
:10550000D5FC041E2ED0A422002120000EF0F6F9B6
:105510006575254B6422A352638523859B32E27215
:105520001A32FF326286062240216252E287073A2F
:10553000228649323F39A1521C4A126822621C4A13
:105540001278A2774A22A3521A4B3A32A3509423DC
:10555000194AE2500433194AE25004330922E25056
:10556000200070BDFFF7E4FBFFF712FF0220FEF7FB
:105570009DFC041EC7D10920FFF794FF0220FEF70F
:1055800095FC041EBFD10820FFF78CFF0220FEF718
:105590008DFC041EB7D12800FFF716FF0220FEF78E
:1055A00085FC041EAFD1DBE7A02D00004CDA002003
:1055B000A7DA00203557001000DD6D00F824010047
:1055C00010B54020FFF798FF10BD000010B584B063
:1055D000041E13D0002904D0037D042B11D0072B07
:1055E0000FD0237D012B00D166E0022B00D16FE0AC
:1055F000002B46D02000FFF769FB3DE03A480CF055
:1056000021F8A36F002B1CD0638BDB061ED5231D56
:10561000626A216D208B0290E08A01900093230042
:10562000200002F0BDFF2000FFF79AFD2F4B1B6802
:10563000A3420ED0002B12D0DA68A2420DD0130084
:10564000F8E7228D2A4B9A42DED1CAE729480BF0AF
:10565000F9FFDA68254B1A6001E0E268DA6000239E
:10566000E360254B01221A70244B1B68A34205D02E
:105670002000FFF781FB002004B010BD02F04EF8BF
:10568000F9E7E38A002B12D01D4B1B68A34206D01A
:10569000002B0AD0DA68A24205D01300F8E7DA68D6
:1056A000174B1A6001E0E268DA600023E360200033
:1056B000FFF762FB0020DFE72000FFF7D9FA11486F
:1056C0002100FFF779FD2000FFF7F2FA0020D3E771
:1056D00006482100FFF770FD074B01221A702000D9
:1056E000FFF74AFB0020C7E7908401103CDA002056
:1056F000A02D0000B0840110A5DA002044DA0020BB
:1057000040DA002048DA002010B500280AD0037DD6
:10571000012B03D0438B1022134343830121FFF756
:1057200055FF10BD02480EF07FFA10204042F8E706
:10573000CC84011010B508001400002909D0002AFB
:105740000DD01189FFF720FC2000FEF795FE002008
:1057500010BD06480EF068FA10204042F8E7002B12
:1057600001D00020F4E7FFF7CFFFF1E7E484011058
:10577000F8B5041E25D0866F777B002383678433BA
:10578000C558002D23D00069002332002100A8470E
:105790000500002D23D1BF0627D5238D144A93423F
:1057A00001D0013323858423E658002E1DD02069C3
:1057B000002300222100B04703000D3315D105005E
:1057C00013E00C480EF030FA10256D420DE0002376
:1057D000320001000020FFF7ADFF0500D9E72B00E4
:1057E0000D3302D0A66705256D422800F8BDC046DE
:1057F000A02D00000085011070B51C4A13780133FC
:1058000013701B4B1C6813E00222134363832000B8
:1058100002F02EFF638B03229343638313E008227D
:10582000934363832000FFF751FA0FE0E5682C00F3
:10583000002C19D0A27F0D4B1B789A42F6D0A3778B
:10584000638BDA07E0D4638B1A07E8D4E568A36FAB
:10585000002BECD0074E002333702000FFF788FFA9
:105860003378002BE3D0CCE770BDC046A7DA002028
:105870003CDA0020A5DA0020F0B5CE46474680B5D8
:1058800085B0BA4A136801331360B94A13780133FB
:105890001370B84B1C68002686E1B7480BF0D2FEA7
:1058A000B6480BF0CFFEB6480BF0CCFE2600E468FD
:1058B0007AE14033E35C052B00D88BE101256FE0F2
:1058C000B0480BF0BFFEB0480BF0BCFE200002F069
:1058D000CFFB00280CD0A0230022E2540133E35C6C
:1058E000062B00D9A3E00133A132A354002557E0D1
:1058F000200002F0BDFE0028EDD1002550E0238EEF
:10590000A24A934201D8013323863023E25E40232A
:10591000E35E9A4244DB200002F066FD002805D0D9
:10592000236F002B3CD1E36E002B39D0237D022B5B
:1059300015D04223E25C131C0C2A00D90C23DAB2E6
:105940003C21635EDB103E20215E5B1890498A5C3F
:1059500093408E4A934220DC1BB24022A352002384
:1059600023866033E25A183BE15A131C8A4200D95D
:105970000B1C9BB25B084A22A352618E4A0092B272
:10598000934201D24A23E2524823E15222330022B9
:10599000E252200003F002F802E07E4BDDE7012531
:1059A000217D062945D0637A082217001F401A423C
:1059B00004D0042949D0072947D00027636F002B62
:1059C0000AD0236A694A1268D21A4023E15E4B006A
:1059D0005B185B009A426BD2237D032B6CD0092BA2
:1059E00073D0002D7AD1E568237F0133DBB22377B2
:1059F000627F934200D2D5E000232377664A13707A
:105A00008C33E358002B00D1A8E02069210098478F
:105A1000614B1B78002B00D03BE7002800D19FE0B2
:105A200026002C00C0E00125BAE70025B8E70025D4
:105A3000B6E7638BDB06B6D5226A4C4B1B689B1A14
:105A4000282BB0D90135EDB2ADE7484B1F68236A6A
:105A5000FF1A9423E35898469C23E058043BE358EC
:105A6000994658434044FA2149000CF02DFF8742E3
:105A700003D90135EDB20127A0E7A323E35C4A4631
:105A8000534343441800FA2149000CF01DFF87429C
:105A900001D8002792E7200002F0A4FF002805D1DA
:105AA000A322A35C0133A354002787E7002785E7DF
:105AB0002000FFF74BFB8FE7216A2C4A1268521A2D
:105AC000282A8CD90135EDB289E7226A274B1B6859
:105AD0009B1AF02B85D90135EDB282E79023E5586A
